{
	"data": {
		"bytecode": {
			"linkReferences": {},
			"object": "610140604052738103b0a8a00be2ddc778e6e7eaa21791cd36462573ffffffffffffffffffffffffffffffffffffffff166101009073ffffffffffffffffffffffffffffffffffffffff1681525066038d7ea4c68000600155674563918244f400006002556005600455348015610074575f5ffd5b506040516123623803806123628339818101604052810190610096919061033a565b33610100518073ffffffffffffffffffffffffffffffffffffffff1660808173ffffffffffffffffffffffffffffffffffffffff1681525050505f73ffffffffffffffffffffffffffffffffffffffff168173ffffffffffffffffffffffffffffffffffffffff1603610140575f6040517f1e4fbdf70000000000000000000000000000000000000000000000000000000081526004016101379190610387565b60405180910390fd5b61014f816101de60201b60201c565b506101005173ffffffffffffffffffffffffffffffffffffffff1660a08173ffffffffffffffffffffffffffffffffffffffff16815250508167ffffffffffffffff1660e08167ffffffffffffffff16815250508073ffffffffffffffffffffffffffffffffffffffff1660c08173ffffffffffffffffffffffffffffffffffffffff168152505050506103a0565b5f5f5f9054906101000a900473ffffffffffffffffffffffffffffffffffffffff169050815f5f6101000a81548173ffffffffffffffffffffffffffffffffffffffff021916908373ffffffffffffffffffffffffffffffffffffffff1602179055508173ffffffffffffffffffffffffffffffffffffffff168173ffffffffffffffffffffffffffffffffffffffff167f8be0079c531659141344cd1fd0a4f28419497f9722a3daafe3b4186f6b6457e060405160405180910390a35050565b5f5ffd5b5f67ffffffffffffffff82169050919050565b6102bf816102a3565b81146102c9575f5ffd5b50565b5f815190506102da816102b6565b92915050565b5f73ffffffffffffffffffffffffffffffffffffffff82169050919050565b5f610309826102e0565b9050919050565b610319816102ff565b8114610323575f5ffd5b50565b5f8151905061033481610310565b92915050565b5f5f604083850312156103505761034f61029f565b5b5f61035d858286016102cc565b925050602061036e85828601610326565b9150509250929050565b610381816102ff565b82525050565b5f60208201905061039a5f830184610378565b92915050565b60805160a05160c05160e0516101005161012051611f706103f25f395f61051c01525f50505f61053d01525f8181610b370152610b6001525f6104e001525f818161091501526109690152611f705ff3fe6080604052600436106100e0575f3560e01c806382df16391161007e5780639a6f5ac3116100585780639a6f5ac3146102d4578063dd8039c9146102fe578063f2fde38b1461033d578063f3fef3a31461036557610138565b806382df1639146102565780638da5cb5b146102805780639619367d146102aa57610138565b806322af00fa116100ba57806322af00fa146101aa5780632e5b2168146101ee5780636edefa1014610218578063715018a61461024057610138565b80630c30f0f91461013c5780630ed469b8146101585780631fe543e31461018257610138565b36610138573460035f8282546100f69190611554565b925050819055507f76dad7de074aee7a970edb9de9050a73a2218abbd33110c3a39225d597856ca260035460405161012e9190611596565b60405180910390a1005b5f5ffd5b6101566004803603810190610151919061162b565b61038d565b005b348015610163575f5ffd5b5061016c61090d565b6040516101799190611596565b60405180910390f35b34801561018d575f5ffd5b506101a860048036038101906101a39190611842565b610913565b005b3480156101b5575f5ffd5b506101d060048036038101906101cb919061189c565b6109d3565b6040516101e599989796959493929190611924565b60405180910390f35b3480156101f9575f5ffd5b50610202610a96565b60405161020f9190611596565b60405180910390f35b348015610223575f5ffd5b5061023e600480360381019061023991906119af565b610a9c565b005b34801561024b575f5ffd5b50610254610aef565b005b348015610261575f5ffd5b5061026a610b02565b6040516102779190611596565b60405180910390f35b34801561028b575f5ffd5b50610294610b08565b6040516102a191906119ed565b60405180910390f35b3480156102b5575f5ffd5b506102be610b2f565b6040516102cb9190611596565b60405180910390f35b3480156102df575f5ffd5b506102e8610b35565b6040516102f59190611a61565b60405180910390f35b348015610309575f5ffd5b50610324600480360381019061031f9190611aa4565b610b59565b6040516103349493929190611acf565b60405180910390f35b348015610348575f5ffd5b50610363600480360381019061035e9190611aa4565b610cf6565b005b348015610370575f5ffd5b5061038b60048036038101906103869190611b4d565b610d7a565b005b5f5f5f61039933610b59565b509250925092506001543410156103dc576040517f7bf0329f00000000000000000000000000000000000000000000000000000000815260040160405180910390fd5b82341115610416576040517f71b9338500000000000000000000000000000000000000000000000000000000815260040160405180910390fd5b8480156104205750835b15610457576040517fb85687c400000000000000000000000000000000000000000000000000000000815260040160405180910390fd5b8780156104615750855b15610498576040517f4be2efe000000000000000000000000000000000000000000000000000000000815260040160405180910390fd5b89156104dd5760248960ff1611156104dc576040517f625ef11f00000000000000000000000000000000000000000000000000000000815260040160405180910390fd5b5b5f7f000000000000000000000000000000000000000000000000000000000000000073ffffffffffffffffffffffffffffffffffffffff16635d3b1d307f00000000000000000000000000000000000000000000000000000000000000007f0000000000000000000000000000000000000000000000000000000000000000600362030d4060016040518663ffffffff1660e01b8152600401610584959493929190611bff565b6020604051808303815f875af11580156105a0573d5f5f3e3d5ffd5b505050506040513d601f19601f820116820180604052508101906105c49190611c64565b90505f606484346105d59190611c8f565b6105df9190611cfd565b90508060035f8282546105f29190611554565b925050819055505f81346106069190611d2d565b90505f8411156106cd575f6064853461061f9190611c8f565b6106299190611cfd565b90505f3373ffffffffffffffffffffffffffffffffffffffff168260405161065090611d8d565b5f6040518083038185875af1925050503d805f811461068a576040519150601f19603f3d011682016040523d82523d5f602084013e61068f565b606091505b50509050806106ca576040517fcd3b1d5700000000000000000000000000000000000000000000000000000000815260040160405180910390fd5b50505b6040518061012001604052803373ffffffffffffffffffffffffffffffffffffffff1681526020018281526020018e151581526020018d60ff1681526020018c151581526020018b151581526020018a15158152602001891515815260200188151581525060055f8581526020019081526020015f205f820151815f015f6101000a81548173ffffffffffffffffffffffffffffffffffffffff021916908373ffffffffffffffffffffffffffffffffffffffff160217905550602082015181600101556040820151816002015f6101000a81548160ff02191690831515021790555060608201518160020160016101000a81548160ff021916908360ff16021790555060808201518160020160026101000a81548160ff02191690831515021790555060a08201518160020160036101000a81548160ff02191690831515021790555060c08201518160020160046101000a81548160ff02191690831515021790555060e08201518160020160056101000a81548160ff0219169083151502179055506101008201518160020160066101000a81548160ff0219169083151502179055509050503373ffffffffffffffffffffffffffffffffffffffff167f87b9df6fa7123c2e6044c3a3a37b4b0662c188d7a58ef86ee55067c46e4613ad84836040516108bd929190611da1565b60405180910390a27f76dad7de074aee7a970edb9de9050a73a2218abbd33110c3a39225d597856ca26003546040516108f69190611596565b60405180910390a150505050505050505050505050565b60045481565b7f000000000000000000000000000000000000000000000000000000000000000073ffffffffffffffffffffffffffffffffffffffff163373ffffffffffffffffffffffffffffffffffffffff16146109c557337f00000000000000000000000000000000000000000000000000000000000000006040517f1cf993f40000000000000000000000000000000000000000000000000000000081526004016109bc929190611dc8565b60405180910390fd5b6109cf8282610eb3565b5050565b6005602052805f5260405f205f91509050805f015f9054906101000a900473ffffffffffffffffffffffffffffffffffffffff1690806001015490806002015f9054906101000a900460ff16908060020160019054906101000a900460ff16908060020160029054906101000a900460ff16908060020160039054906101000a900460ff16908060020160049054906101000a900460ff16908060020160059054906101000a900460ff16908060020160069054906101000a900460ff16905089565b60025481565b610aa46113cf565b808210610add576040517f46bc653500000000000000000000000000000000000000000000000000000000815260040160405180910390fd5b81600181905550806002819055505050565b610af76113cf565b610b005f611456565b565b60035481565b5f5f5f9054906101000a900473ffffffffffffffffffffffffffffffffffffffff16905090565b60015481565b7f000000000000000000000000000000000000000000000000000000000000000081565b5f5f5f5f5f7f000000000000000000000000000000000000000000000000000000000000000073ffffffffffffffffffffffffffffffffffffffff166332854c13876040518263ffffffff1660e01b8152600401610bb791906119ed565b602060405180830381865afa158015610bd2573d5f5f3e3d5ffd5b505050506040513d601f19601f82011682018060405250810190610bf69190611e12565b6003811115610c0857610c07611e3d565b5b90505f60025490505f60045490505f5f90505f5f905060016003811115610c3257610c31611e3d565b5b8503610c5f57671bc16d674ec8000084610c4c9190611554565b9350600392506002915060059050610cde565b60026003811115610c7357610c72611e3d565b5b8503610ca057674563918244f4000084610c8d9190611554565b93506002925060059150600a9050610cdd565b600380811115610cb357610cb2611e3d565b5b8503610cdc57678ac7230489e8000084610ccd9190611554565b935060019250600a9150601490505b5b5b83838383985098509850985050505050509193509193565b610cfe6113cf565b5f73ffffffffffffffffffffffffffffffffffffffff168173ffffffffffffffffffffffffffffffffffffffff1603610d6e575f6040517f1e4fbdf7000000000000000000000000000000000000000000000000000000008152600401610d6591906119ed565b60405180910390fd5b610d7781611456565b50565b610d826113cf565b600354811115610dbe576040517f8fb8563f00000000000000000000000000000000000000000000000000000000815260040160405180910390fd5b8060035f828254610dcf9190611d2d565b925050819055505f8273ffffffffffffffffffffffffffffffffffffffff1682604051610dfb90611d8d565b5f6040518083038185875af1925050503d805f8114610e35576040519150601f19603f3d011682016040523d82523d5f602084013e610e3a565b606091505b5050905080610e75576040517f750b219c00000000000000000000000000000000000000000000000000000000815260040160405180910390fd5b7f76dad7de074aee7a970edb9de9050a73a2218abbd33110c3a39225d597856ca2600354604051610ea69190611596565b60405180910390a1505050565b5f60055f8481526020019081526020015f20604051806101200160405290815f82015f9054906101000a900473ffffffffffffffffffffffffffffffffffffffff1673ffffffffffffffffffffffffffffffffffffffff1673ffffffffffffffffffffffffffffffffffffffff16815260200160018201548152602001600282015f9054906101000a900460ff161515151581526020016002820160019054906101000a900460ff1660ff1660ff1681526020016002820160029054906101000a900460ff161515151581526020016002820160039054906101000a900460ff161515151581526020016002820160049054906101000a900460ff161515151581526020016002820160059054906101000a900460ff161515151581526020016002820160069054906101000a900460ff16151515158152505090505f6025835f8151811061100557611004611e6a565b5b60200260200101516110179190611e97565b90505f5f90505f5f90505f61102e855f0151610b59565b93505050508460400151801561104d57508360ff16856060015160ff16145b156110815760648160246110619190611554565b86602001516110709190611c8f565b61107a9190611cfd565b91506111a9565b8460800151156110ba57606481600261109a9190611554565b86602001516110a99190611c8f565b6110b39190611cfd565b91506111a8565b8460c0015180156110cd57505f8460ff16145b156111015760648160126110e19190611554565b86602001516110f09190611c8f565b6110fa9190611cfd565b91506111a7565b8460e00151801561112057505f60028561111b9190611ec7565b60ff16145b156111545760648160026111349190611554565b86602001516111439190611c8f565b61114d9190611cfd565b91506111a6565b846101000151801561117557505f60028561116f9190611ec7565b60ff1614155b156111a55760648160026111899190611554565b86602001516111989190611c8f565b6111a29190611cfd565b91505b5b5b5b5b6003548211156111e5576040517fcd9c37c100000000000000000000000000000000000000000000000000000000815260040160405180910390fd5b5f855f015173ffffffffffffffffffffffffffffffffffffffff168360405161120d90611d8d565b5f6040518083038185875af1925050503d805f8114611247576040519150601f19603f3d011682016040523d82523d5f602084013e61124c565b606091505b5050905080611287576040517f90b8ec1800000000000000000000000000000000000000000000000000000000815260040160405180910390fd5b8260035f8282546112989190611d2d565b92505081905550855f015173ffffffffffffffffffffffffffffffffffffffff167f7204b31c5bbfa97e1aee8ef0fb88d079da912ad60e762363640da9f84333c11089886020015188886040516112f29493929190611ef7565b60405180910390a260055f8981526020019081526020015f205f5f82015f6101000a81549073ffffffffffffffffffffffffffffffffffffffff0219169055600182015f9055600282015f6101000a81549060ff02191690556002820160016101000a81549060ff02191690556002820160026101000a81549060ff02191690556002820160036101000a81549060ff02191690556002820160046101000a81549060ff02191690556002820160056101000a81549060ff02191690556002820160066101000a81549060ff021916905550505050505050505050565b6113d7611517565b73ffffffffffffffffffffffffffffffffffffffff166113f5610b08565b73ffffffffffffffffffffffffffffffffffffffff161461145457611418611517565b6040517f118cdaa700000000000000000000000000000000000000000000000000000000815260040161144b91906119ed565b60405180910390fd5b565b5f5f5f9054906101000a900473ffffffffffffffffffffffffffffffffffffffff169050815f5f6101000a81548173ffffffffffffffffffffffffffffffffffffffff021916908373ffffffffffffffffffffffffffffffffffffffff1602179055508173ffffffffffffffffffffffffffffffffffffffff168173ffffffffffffffffffffffffffffffffffffffff167f8be0079c531659141344cd1fd0a4f28419497f9722a3daafe3b4186f6b6457e060405160405180910390a35050565b5f33905090565b5f819050919050565b7f4e487b71000000000000000000000000000000000000000000000000000000005f52601160045260245ffd5b5f61155e8261151e565b91506115698361151e565b925082820190508082111561158157611580611527565b5b92915050565b6115908161151e565b82525050565b5f6020820190506115a95f830184611587565b92915050565b5f604051905090565b5f5ffd5b5f5ffd5b5f8115159050919050565b6115d4816115c0565b81146115de575f5ffd5b50565b5f813590506115ef816115cb565b92915050565b5f60ff82169050919050565b61160a816115f5565b8114611614575f5ffd5b50565b5f8135905061162581611601565b92915050565b5f5f5f5f5f5f5f60e0888a031215611646576116456115b8565b5b5f6116538a828b016115e1565b97505060206116648a828b01611617565b96505060406116758a828b016115e1565b95505060606116868a828b016115e1565b94505060806116978a828b016115e1565b93505060a06116a88a828b016115e1565b92505060c06116b98a828b016115e1565b91505092959891949750929550565b6116d18161151e565b81146116db575f5ffd5b50565b5f813590506116ec816116c8565b92915050565b5f5ffd5b5f601f19601f8301169050919050565b7f4e487b71000000000000000000000000000000000000000000000000000000005f52604160045260245ffd5b61173c826116f6565b810181811067ffffffffffffffff8211171561175b5761175a611706565b5b80604052505050565b5f61176d6115af565b90506117798282611733565b919050565b5f67ffffffffffffffff82111561179857611797611706565b5b602082029050602081019050919050565b5f5ffd5b5f6117bf6117ba8461177e565b611764565b905080838252602082019050602084028301858111156117e2576117e16117a9565b5b835b8181101561180b57806117f788826116de565b8452602084019350506020810190506117e4565b5050509392505050565b5f82601f830112611829576118286116f2565b5b81356118398482602086016117ad565b91505092915050565b5f5f60408385031215611858576118576115b8565b5b5f611865858286016116de565b925050602083013567ffffffffffffffff811115611886576118856115bc565b5b61189285828601611815565b9150509250929050565b5f602082840312156118b1576118b06115b8565b5b5f6118be848285016116de565b91505092915050565b5f73ffffffffffffffffffffffffffffffffffffffff82169050919050565b5f6118f0826118c7565b9050919050565b611900816118e6565b82525050565b61190f816115c0565b82525050565b61191e816115f5565b82525050565b5f610120820190506119385f83018c6118f7565b611945602083018b611587565b611952604083018a611906565b61195f6060830189611915565b61196c6080830188611906565b61197960a0830187611906565b61198660c0830186611906565b61199360e0830185611906565b6119a1610100830184611906565b9a9950505050505050505050565b5f5f604083850312156119c5576119c46115b8565b5b5f6119d2858286016116de565b92505060206119e3858286016116de565b9150509250929050565b5f602082019050611a005f8301846118f7565b92915050565b5f819050919050565b5f611a29611a24611a1f846118c7565b611a06565b6118c7565b9050919050565b5f611a3a82611a0f565b9050919050565b5f611a4b82611a30565b9050919050565b611a5b81611a41565b82525050565b5f602082019050611a745f830184611a52565b92915050565b611a83816118e6565b8114611a8d575f5ffd5b50565b5f81359050611a9e81611a7a565b92915050565b5f60208284031215611ab957611ab86115b8565b5b5f611ac684828501611a90565b91505092915050565b5f608082019050611ae25f830187611587565b611aef6020830186611587565b611afc6040830185611587565b611b096060830184611587565b95945050505050565b5f611b1c826118c7565b9050919050565b611b2c81611b12565b8114611b36575f5ffd5b50565b5f81359050611b4781611b23565b92915050565b5f5f60408385031215611b6357611b626115b8565b5b5f611b7085828601611b39565b9250506020611b81858286016116de565b9150509250929050565b5f819050919050565b611b9d81611b8b565b82525050565b5f67ffffffffffffffff82169050919050565b611bbf81611ba3565b82525050565b5f61ffff82169050919050565b611bdb81611bc5565b82525050565b5f63ffffffff82169050919050565b611bf981611be1565b82525050565b5f60a082019050611c125f830188611b94565b611c1f6020830187611bb6565b611c2c6040830186611bd2565b611c396060830185611bf0565b611c466080830184611bf0565b9695505050505050565b5f81519050611c5e816116c8565b92915050565b5f60208284031215611c7957611c786115b8565b5b5f611c8684828501611c50565b91505092915050565b5f611c998261151e565b9150611ca48361151e565b9250828202611cb28161151e565b91508282048414831517611cc957611cc8611527565b5b5092915050565b7f4e487b71000000000000000000000000000000000000000000000000000000005f52601260045260245ffd5b5f611d078261151e565b9150611d128361151e565b925082611d2257611d21611cd0565b5b828204905092915050565b5f611d378261151e565b9150611d428361151e565b9250828203905081811115611d5a57611d59611527565b5b92915050565b5f81905092915050565b50565b5f611d785f83611d60565b9150611d8382611d6a565b5f82019050919050565b5f611d9782611d6d565b9150819050919050565b5f604082019050611db45f830185611587565b611dc16020830184611587565b9392505050565b5f604082019050611ddb5f8301856118f7565b611de860208301846118f7565b9392505050565b60048110611dfb575f5ffd5b50565b5f81519050611e0c81611def565b92915050565b5f60208284031215611e2757611e266115b8565b5b5f611e3484828501611dfe565b91505092915050565b7f4e487b71000000000000000000000000000000000000000000000000000000005f52602160045260245ffd5b7f4e487b71000000000000000000000000000000000000000000000000000000005f52603260045260245ffd5b5f611ea18261151e565b9150611eac8361151e565b925082611ebc57611ebb611cd0565b5b828206905092915050565b5f611ed1826115f5565b9150611edc836115f5565b925082611eec57611eeb611cd0565b5b828206905092915050565b5f608082019050611f0a5f830187611587565b611f176020830186611587565b611f246040830185611915565b611f316060830184611906565b9594505050505056fea2646970667358221220137991c535b34f5e490ed07f9c4bc19dd3580caa467ef7ddd3513930f5d1162164736f6c634300081d0033",
			"opcodes": "PUSH2 0x140 PUSH1 0x40 MSTORE PUSH20 0x8103B0A8A00BE2DDC778E6E7EAA21791CD364625 PUSH20 0xFFFFFFFFFFFFFFFFFFFFFFFFFFFFFFFFFFFFFFFF AND PUSH2 0x100 SWAP1 PUSH20 0xFFFFFFFFFFFFFFFFFFFFFFFFFFFFFFFFFFFFFFFF AND DUP2 MSTORE POP PUSH7 0x38D7EA4C68000 PUSH1 0x1 SSTORE PUSH8 0x4563918244F40000 PUSH1 0x2 SSTORE PUSH1 0x5 PUSH1 0x4 SSTORE CALLVALUE DUP1 ISZERO PUSH2 0x74 JUMPI PUSH0 PUSH0 REVERT JUMPDEST POP PUSH1 0x40 MLOAD PUSH2 0x2362 CODESIZE SUB DUP1 PUSH2 0x2362 DUP4 CODECOPY DUP2 DUP2 ADD PUSH1 0x40 MSTORE DUP2 ADD SWAP1 PUSH2 0x96 SWAP2 SWAP1 PUSH2 0x33A JUMP JUMPDEST CALLER PUSH2 0x100 MLOAD DUP1 PUSH20 0xFFFFFFFFFFFFFFFFFFFFFFFFFFFFFFFFFFFFFFFF AND PUSH1 0x80 DUP2 PUSH20 0xFFFFFFFFFFFFFFFFFFFFFFFFFFFFFFFFFFFFFFFF AND DUP2 MSTORE POP POP POP PUSH0 PUSH20 0xFFFFFFFFFFFFFFFFFFFFFFFFFFFFFFFFFFFFFFFF AND DUP2 PUSH20 0xFFFFFFFFFFFFFFFFFFFFFFFFFFFFFFFFFFFFFFFF AND SUB PUSH2 0x140 JUMPI PUSH0 PUSH1 0x40 MLOAD PUSH32 0x1E4FBDF700000000000000000000000000000000000000000000000000000000 DUP2 MSTORE PUSH1 0x4 ADD PUSH2 0x137 SWAP2 SWAP1 PUSH2 0x387 JUMP JUMPDEST PUSH1 0x40 MLOAD DUP1 SWAP2 SUB SWAP1 REVERT JUMPDEST PUSH2 0x14F DUP2 PUSH2 0x1DE PUSH1 0x20 SHL PUSH1 0x20 SHR JUMP JUMPDEST POP PUSH2 0x100 MLOAD PUSH20 0xFFFFFFFFFFFFFFFFFFFFFFFFFFFFFFFFFFFFFFFF AND PUSH1 0xA0 DUP2 PUSH20 0xFFFFFFFFFFFFFFFFFFFFFFFFFFFFFFFFFFFFFFFF AND DUP2 MSTORE POP POP DUP2 PUSH8 0xFFFFFFFFFFFFFFFF AND PUSH1 0xE0 DUP2 PUSH8 0xFFFFFFFFFFFFFFFF AND DUP2 MSTORE POP POP DUP1 PUSH20 0xFFFFFFFFFFFFFFFFFFFFFFFFFFFFFFFFFFFFFFFF AND PUSH1 0xC0 DUP2 PUSH20 0xFFFFFFFFFFFFFFFFFFFFFFFFFFFFFFFFFFFFFFFF AND DUP2 MSTORE POP POP POP POP PUSH2 0x3A0 JUMP JUMPDEST PUSH0 PUSH0 PUSH0 SWAP1 SLOAD SWAP1 PUSH2 0x100 EXP SWAP1 DIV PUSH20 0xFFFFFFFFFFFFFFFFFFFFFFFFFFFFFFFFFFFFFFFF AND SWAP1 POP DUP2 PUSH0 PUSH0 PUSH2 0x100 EXP DUP2 SLOAD DUP2 PUSH20 0xFFFFFFFFFFFFFFFFFFFFFFFFFFFFFFFFFFFFFFFF MUL NOT AND SWAP1 DUP4 PUSH20 0xFFFFFFFFFFFFFFFFFFFFFFFFFFFFFFFFFFFFFFFF AND MUL OR SWAP1 SSTORE POP DUP2 PUSH20 0xFFFFFFFFFFFFFFFFFFFFFFFFFFFFFFFFFFFFFFFF AND DUP2 PUSH20 0xFFFFFFFFFFFFFFFFFFFFFFFFFFFFFFFFFFFFFFFF AND PUSH32 0x8BE0079C531659141344CD1FD0A4F28419497F9722A3DAAFE3B4186F6B6457E0 PUSH1 0x40 MLOAD PUSH1 0x40 MLOAD DUP1 SWAP2 SUB SWAP1 LOG3 POP POP JUMP JUMPDEST PUSH0 PUSH0 REVERT JUMPDEST PUSH0 PUSH8 0xFFFFFFFFFFFFFFFF DUP3 AND SWAP1 POP SWAP2 SWAP1 POP JUMP JUMPDEST PUSH2 0x2BF DUP2 PUSH2 0x2A3 JUMP JUMPDEST DUP2 EQ PUSH2 0x2C9 JUMPI PUSH0 PUSH0 REVERT JUMPDEST POP JUMP JUMPDEST PUSH0 DUP2 MLOAD SWAP1 POP PUSH2 0x2DA DUP2 PUSH2 0x2B6 JUMP JUMPDEST SWAP3 SWAP2 POP POP JUMP JUMPDEST PUSH0 PUSH20 0xFFFFFFFFFFFFFFFFFFFFFFFFFFFFFFFFFFFFFFFF DUP3 AND SWAP1 POP SWAP2 SWAP1 POP JUMP JUMPDEST PUSH0 PUSH2 0x309 DUP3 PUSH2 0x2E0 JUMP JUMPDEST SWAP1 POP SWAP2 SWAP1 POP JUMP JUMPDEST PUSH2 0x319 DUP2 PUSH2 0x2FF JUMP JUMPDEST DUP2 EQ PUSH2 0x323 JUMPI PUSH0 PUSH0 REVERT JUMPDEST POP JUMP JUMPDEST PUSH0 DUP2 MLOAD SWAP1 POP PUSH2 0x334 DUP2 PUSH2 0x310 JUMP JUMPDEST SWAP3 SWAP2 POP POP JUMP JUMPDEST PUSH0 PUSH0 PUSH1 0x40 DUP4 DUP6 SUB SLT ISZERO PUSH2 0x350 JUMPI PUSH2 0x34F PUSH2 0x29F JUMP JUMPDEST JUMPDEST PUSH0 PUSH2 0x35D DUP6 DUP3 DUP7 ADD PUSH2 0x2CC JUMP JUMPDEST SWAP3 POP POP PUSH1 0x20 PUSH2 0x36E DUP6 DUP3 DUP7 ADD PUSH2 0x326 JUMP JUMPDEST SWAP2 POP POP SWAP3 POP SWAP3 SWAP1 POP JUMP JUMPDEST PUSH2 0x381 DUP2 PUSH2 0x2FF JUMP JUMPDEST DUP3 MSTORE POP POP JUMP JUMPDEST PUSH0 PUSH1 0x20 DUP3 ADD SWAP1 POP PUSH2 0x39A PUSH0 DUP4 ADD DUP5 PUSH2 0x378 JUMP JUMPDEST SWAP3 SWAP2 POP POP JUMP JUMPDEST PUSH1 0x80 MLOAD PUSH1 0xA0 MLOAD PUSH1 0xC0 MLOAD PUSH1 0xE0 MLOAD PUSH2 0x100 MLOAD PUSH2 0x120 MLOAD PUSH2 0x1F70 PUSH2 0x3F2 PUSH0 CODECOPY PUSH0 PUSH2 0x51C ADD MSTORE PUSH0 POP POP PUSH0 PUSH2 0x53D ADD MSTORE PUSH0 DUP2 DUP2 PUSH2 0xB37 ADD MSTORE PUSH2 0xB60 ADD MSTORE PUSH0 PUSH2 0x4E0 ADD MSTORE PUSH0 DUP2 DUP2 PUSH2 0x915 ADD MSTORE PUSH2 0x969 ADD MSTORE PUSH2 0x1F70 PUSH0 RETURN INVALID PUSH1 0x80 PUSH1 0x40 MSTORE PUSH1 0x4 CALLDATASIZE LT PUSH2 0xE0 JUMPI PUSH0 CALLDATALOAD PUSH1 0xE0 SHR DUP1 PUSH4 0x82DF1639 GT PUSH2 0x7E JUMPI DUP1 PUSH4 0x9A6F5AC3 GT PUSH2 0x58 JUMPI DUP1 PUSH4 0x9A6F5AC3 EQ PUSH2 0x2D4 JUMPI DUP1 PUSH4 0xDD8039C9 EQ PUSH2 0x2FE JUMPI DUP1 PUSH4 0xF2FDE38B EQ PUSH2 0x33D JUMPI DUP1 PUSH4 0xF3FEF3A3 EQ PUSH2 0x365 JUMPI PUSH2 0x138 JUMP JUMPDEST DUP1 PUSH4 0x82DF1639 EQ PUSH2 0x256 JUMPI DUP1 PUSH4 0x8DA5CB5B EQ PUSH2 0x280 JUMPI DUP1 PUSH4 0x9619367D EQ PUSH2 0x2AA JUMPI PUSH2 0x138 JUMP JUMPDEST DUP1 PUSH4 0x22AF00FA GT PUSH2 0xBA JUMPI DUP1 PUSH4 0x22AF00FA EQ PUSH2 0x1AA JUMPI DUP1 PUSH4 0x2E5B2168 EQ PUSH2 0x1EE JUMPI DUP1 PUSH4 0x6EDEFA10 EQ PUSH2 0x218 JUMPI DUP1 PUSH4 0x715018A6 EQ PUSH2 0x240 JUMPI PUSH2 0x138 JUMP JUMPDEST DUP1 PUSH4 0xC30F0F9 EQ PUSH2 0x13C JUMPI DUP1 PUSH4 0xED469B8 EQ PUSH2 0x158 JUMPI DUP1 PUSH4 0x1FE543E3 EQ PUSH2 0x182 JUMPI PUSH2 0x138 JUMP JUMPDEST CALLDATASIZE PUSH2 0x138 JUMPI CALLVALUE PUSH1 0x3 PUSH0 DUP3 DUP3 SLOAD PUSH2 0xF6 SWAP2 SWAP1 PUSH2 0x1554 JUMP JUMPDEST SWAP3 POP POP DUP2 SWAP1 SSTORE POP PUSH32 0x76DAD7DE074AEE7A970EDB9DE9050A73A2218ABBD33110C3A39225D597856CA2 PUSH1 0x3 SLOAD PUSH1 0x40 MLOAD PUSH2 0x12E SWAP2 SWAP1 PUSH2 0x1596 JUMP JUMPDEST PUSH1 0x40 MLOAD DUP1 SWAP2 SUB SWAP1 LOG1 STOP JUMPDEST PUSH0 PUSH0 REVERT JUMPDEST PUSH2 0x156 PUSH1 0x4 DUP1 CALLDATASIZE SUB DUP2 ADD SWAP1 PUSH2 0x151 SWAP2 SWAP1 PUSH2 0x162B JUMP JUMPDEST PUSH2 0x38D JUMP JUMPDEST STOP JUMPDEST CALLVALUE DUP1 ISZERO PUSH2 0x163 JUMPI PUSH0 PUSH0 REVERT JUMPDEST POP PUSH2 0x16C PUSH2 0x90D JUMP JUMPDEST PUSH1 0x40 MLOAD PUSH2 0x179 SWAP2 SWAP1 PUSH2 0x1596 JUMP JUMPDEST PUSH1 0x40 MLOAD DUP1 SWAP2 SUB SWAP1 RETURN JUMPDEST CALLVALUE DUP1 ISZERO PUSH2 0x18D JUMPI PUSH0 PUSH0 REVERT JUMPDEST POP PUSH2 0x1A8 PUSH1 0x4 DUP1 CALLDATASIZE SUB DUP2 ADD SWAP1 PUSH2 0x1A3 SWAP2 SWAP1 PUSH2 0x1842 JUMP JUMPDEST PUSH2 0x913 JUMP JUMPDEST STOP JUMPDEST CALLVALUE DUP1 ISZERO PUSH2 0x1B5 JUMPI PUSH0 PUSH0 REVERT JUMPDEST POP PUSH2 0x1D0 PUSH1 0x4 DUP1 CALLDATASIZE SUB DUP2 ADD SWAP1 PUSH2 0x1CB SWAP2 SWAP1 PUSH2 0x189C JUMP JUMPDEST PUSH2 0x9D3 JUMP JUMPDEST PUSH1 0x40 MLOAD PUSH2 0x1E5 SWAP10 SWAP9 SWAP8 SWAP7 SWAP6 SWAP5 SWAP4 SWAP3 SWAP2 SWAP1 PUSH2 0x1924 JUMP JUMPDEST PUSH1 0x40 MLOAD DUP1 SWAP2 SUB SWAP1 RETURN JUMPDEST CALLVALUE DUP1 ISZERO PUSH2 0x1F9 JUMPI PUSH0 PUSH0 REVERT JUMPDEST POP PUSH2 0x202 PUSH2 0xA96 JUMP JUMPDEST PUSH1 0x40 MLOAD PUSH2 0x20F SWAP2 SWAP1 PUSH2 0x1596 JUMP JUMPDEST PUSH1 0x40 MLOAD DUP1 SWAP2 SUB SWAP1 RETURN JUMPDEST CALLVALUE DUP1 ISZERO PUSH2 0x223 JUMPI PUSH0 PUSH0 REVERT JUMPDEST POP PUSH2 0x23E PUSH1 0x4 DUP1 CALLDATASIZE SUB DUP2 ADD SWAP1 PUSH2 0x239 SWAP2 SWAP1 PUSH2 0x19AF JUMP JUMPDEST PUSH2 0xA9C JUMP JUMPDEST STOP JUMPDEST CALLVALUE DUP1 ISZERO PUSH2 0x24B JUMPI PUSH0 PUSH0 REVERT JUMPDEST POP PUSH2 0x254 PUSH2 0xAEF JUMP JUMPDEST STOP JUMPDEST CALLVALUE DUP1 ISZERO PUSH2 0x261 JUMPI PUSH0 PUSH0 REVERT JUMPDEST POP PUSH2 0x26A PUSH2 0xB02 JUMP JUMPDEST PUSH1 0x40 MLOAD PUSH2 0x277 SWAP2 SWAP1 PUSH2 0x1596 JUMP JUMPDEST PUSH1 0x40 MLOAD DUP1 SWAP2 SUB SWAP1 RETURN JUMPDEST CALLVALUE DUP1 ISZERO PUSH2 0x28B JUMPI PUSH0 PUSH0 REVERT JUMPDEST POP PUSH2 0x294 PUSH2 0xB08 JUMP JUMPDEST PUSH1 0x40 MLOAD PUSH2 0x2A1 SWAP2 SWAP1 PUSH2 0x19ED JUMP JUMPDEST PUSH1 0x40 MLOAD DUP1 SWAP2 SUB SWAP1 RETURN JUMPDEST CALLVALUE DUP1 ISZERO PUSH2 0x2B5 JUMPI PUSH0 PUSH0 REVERT JUMPDEST POP PUSH2 0x2BE PUSH2 0xB2F JUMP JUMPDEST PUSH1 0x40 MLOAD PUSH2 0x2CB SWAP2 SWAP1 PUSH2 0x1596 JUMP JUMPDEST PUSH1 0x40 MLOAD DUP1 SWAP2 SUB SWAP1 RETURN JUMPDEST CALLVALUE DUP1 ISZERO PUSH2 0x2DF JUMPI PUSH0 PUSH0 REVERT JUMPDEST POP PUSH2 0x2E8 PUSH2 0xB35 JUMP JUMPDEST PUSH1 0x40 MLOAD PUSH2 0x2F5 SWAP2 SWAP1 PUSH2 0x1A61 JUMP JUMPDEST PUSH1 0x40 MLOAD DUP1 SWAP2 SUB SWAP1 RETURN JUMPDEST CALLVALUE DUP1 ISZERO PUSH2 0x309 JUMPI PUSH0 PUSH0 REVERT JUMPDEST POP PUSH2 0x324 PUSH1 0x4 DUP1 CALLDATASIZE SUB DUP2 ADD SWAP1 PUSH2 0x31F SWAP2 SWAP1 PUSH2 0x1AA4 JUMP JUMPDEST PUSH2 0xB59 JUMP JUMPDEST PUSH1 0x40 MLOAD PUSH2 0x334 SWAP5 SWAP4 SWAP3 SWAP2 SWAP1 PUSH2 0x1ACF JUMP JUMPDEST PUSH1 0x40 MLOAD DUP1 SWAP2 SUB SWAP1 RETURN JUMPDEST CALLVALUE DUP1 ISZERO PUSH2 0x348 JUMPI PUSH0 PUSH0 REVERT JUMPDEST POP PUSH2 0x363 PUSH1 0x4 DUP1 CALLDATASIZE SUB DUP2 ADD SWAP1 PUSH2 0x35E SWAP2 SWAP1 PUSH2 0x1AA4 JUMP JUMPDEST PUSH2 0xCF6 JUMP JUMPDEST STOP JUMPDEST CALLVALUE DUP1 ISZERO PUSH2 0x370 JUMPI PUSH0 PUSH0 REVERT JUMPDEST POP PUSH2 0x38B PUSH1 0x4 DUP1 CALLDATASIZE SUB DUP2 ADD SWAP1 PUSH2 0x386 SWAP2 SWAP1 PUSH2 0x1B4D JUMP JUMPDEST PUSH2 0xD7A JUMP JUMPDEST STOP JUMPDEST PUSH0 PUSH0 PUSH0 PUSH2 0x399 CALLER PUSH2 0xB59 JUMP JUMPDEST POP SWAP3 POP SWAP3 POP SWAP3 POP PUSH1 0x1 SLOAD CALLVALUE LT ISZERO PUSH2 0x3DC JUMPI PUSH1 0x40 MLOAD PUSH32 0x7BF0329F00000000000000000000000000000000000000000000000000000000 DUP2 MSTORE PUSH1 0x4 ADD PUSH1 0x40 MLOAD DUP1 SWAP2 SUB SWAP1 REVERT JUMPDEST DUP3 CALLVALUE GT ISZERO PUSH2 0x416 JUMPI PUSH1 0x40 MLOAD PUSH32 0x71B9338500000000000000000000000000000000000000000000000000000000 DUP2 MSTORE PUSH1 0x4 ADD PUSH1 0x40 MLOAD DUP1 SWAP2 SUB SWAP1 REVERT JUMPDEST DUP5 DUP1 ISZERO PUSH2 0x420 JUMPI POP DUP4 JUMPDEST ISZERO PUSH2 0x457 JUMPI PUSH1 0x40 MLOAD PUSH32 0xB85687C400000000000000000000000000000000000000000000000000000000 DUP2 MSTORE PUSH1 0x4 ADD PUSH1 0x40 MLOAD DUP1 SWAP2 SUB SWAP1 REVERT JUMPDEST DUP8 DUP1 ISZERO PUSH2 0x461 JUMPI POP DUP6 JUMPDEST ISZERO PUSH2 0x498 JUMPI PUSH1 0x40 MLOAD PUSH32 0x4BE2EFE000000000000000000000000000000000000000000000000000000000 DUP2 MSTORE PUSH1 0x4 ADD PUSH1 0x40 MLOAD DUP1 SWAP2 SUB SWAP1 REVERT JUMPDEST DUP10 ISZERO PUSH2 0x4DD JUMPI PUSH1 0x24 DUP10 PUSH1 0xFF AND GT ISZERO PUSH2 0x4DC JUMPI PUSH1 0x40 MLOAD PUSH32 0x625EF11F00000000000000000000000000000000000000000000000000000000 DUP2 MSTORE PUSH1 0x4 ADD PUSH1 0x40 MLOAD DUP1 SWAP2 SUB SWAP1 REVERT JUMPDEST JUMPDEST PUSH0 PUSH32 0x0 PUSH20 0xFFFFFFFFFFFFFFFFFFFFFFFFFFFFFFFFFFFFFFFF AND PUSH4 0x5D3B1D30 PUSH32 0x0 PUSH32 0x0 PUSH1 0x3 PUSH3 0x30D40 PUSH1 0x1 PUSH1 0x40 MLOAD DUP7 PUSH4 0xFFFFFFFF AND PUSH1 0xE0 SHL DUP2 MSTORE PUSH1 0x4 ADD PUSH2 0x584 SWAP6 SWAP5 SWAP4 SWAP3 SWAP2 SWAP1 PUSH2 0x1BFF JUMP JUMPDEST PUSH1 0x20 PUSH1 0x40 MLOAD DUP1 DUP4 SUB DUP2 PUSH0 DUP8 GAS CALL ISZERO DUP1 ISZERO PUSH2 0x5A0 JUMPI RETURNDATASIZE PUSH0 PUSH0 RETURNDATACOPY RETURNDATASIZE PUSH0 REVERT JUMPDEST POP POP POP POP PUSH1 0x40 MLOAD RETURNDATASIZE PUSH1 0x1F NOT PUSH1 0x1F DUP3 ADD AND DUP3 ADD DUP1 PUSH1 0x40 MSTORE POP DUP2 ADD SWAP1 PUSH2 0x5C4 SWAP2 SWAP1 PUSH2 0x1C64 JUMP JUMPDEST SWAP1 POP PUSH0 PUSH1 0x64 DUP5 CALLVALUE PUSH2 0x5D5 SWAP2 SWAP1 PUSH2 0x1C8F JUMP JUMPDEST PUSH2 0x5DF SWAP2 SWAP1 PUSH2 0x1CFD JUMP JUMPDEST SWAP1 POP DUP1 PUSH1 0x3 PUSH0 DUP3 DUP3 SLOAD PUSH2 0x5F2 SWAP2 SWAP1 PUSH2 0x1554 JUMP JUMPDEST SWAP3 POP POP DUP2 SWAP1 SSTORE POP PUSH0 DUP2 CALLVALUE PUSH2 0x606 SWAP2 SWAP1 PUSH2 0x1D2D JUMP JUMPDEST SWAP1 POP PUSH0 DUP5 GT ISZERO PUSH2 0x6CD JUMPI PUSH0 PUSH1 0x64 DUP6 CALLVALUE PUSH2 0x61F SWAP2 SWAP1 PUSH2 0x1C8F JUMP JUMPDEST PUSH2 0x629 SWAP2 SWAP1 PUSH2 0x1CFD JUMP JUMPDEST SWAP1 POP PUSH0 CALLER PUSH20 0xFFFFFFFFFFFFFFFFFFFFFFFFFFFFFFFFFFFFFFFF AND DUP3 PUSH1 0x40 MLOAD PUSH2 0x650 SWAP1 PUSH2 0x1D8D JUMP JUMPDEST PUSH0 PUSH1 0x40 MLOAD DUP1 DUP4 SUB DUP2 DUP6 DUP8 GAS CALL SWAP3 POP POP POP RETURNDATASIZE DUP1 PUSH0 DUP2 EQ PUSH2 0x68A JUMPI PUSH1 0x40 MLOAD SWAP2 POP PUSH1 0x1F NOT PUSH1 0x3F RETURNDATASIZE ADD AND DUP3 ADD PUSH1 0x40 MSTORE RETURNDATASIZE DUP3 MSTORE RETURNDATASIZE PUSH0 PUSH1 0x20 DUP5 ADD RETURNDATACOPY PUSH2 0x68F JUMP JUMPDEST PUSH1 0x60 SWAP2 POP JUMPDEST POP POP SWAP1 POP DUP1 PUSH2 0x6CA JUMPI PUSH1 0x40 MLOAD PUSH32 0xCD3B1D5700000000000000000000000000000000000000000000000000000000 DUP2 MSTORE PUSH1 0x4 ADD PUSH1 0x40 MLOAD DUP1 SWAP2 SUB SWAP1 REVERT JUMPDEST POP POP JUMPDEST PUSH1 0x40 MLOAD DUP1 PUSH2 0x120 ADD PUSH1 0x40 MSTORE DUP1 CALLER PUSH20 0xFFFFFFFFFFFFFFFFFFFFFFFFFFFFFFFFFFFFFFFF AND DUP2 MSTORE PUSH1 0x20 ADD DUP3 DUP2 MSTORE PUSH1 0x20 ADD DUP15 ISZERO ISZERO DUP2 MSTORE PUSH1 0x20 ADD DUP14 PUSH1 0xFF AND DUP2 MSTORE PUSH1 0x20 ADD DUP13 ISZERO ISZERO DUP2 MSTORE PUSH1 0x20 ADD DUP12 ISZERO ISZERO DUP2 MSTORE PUSH1 0x20 ADD DUP11 ISZERO ISZERO DUP2 MSTORE PUSH1 0x20 ADD DUP10 ISZERO ISZERO DUP2 MSTORE PUSH1 0x20 ADD DUP9 ISZERO ISZERO DUP2 MSTORE POP PUSH1 0x5 PUSH0 DUP6 DUP2 MSTORE PUSH1 0x20 ADD SWAP1 DUP2 MSTORE PUSH1 0x20 ADD PUSH0 KECCAK256 PUSH0 DUP3 ADD MLOAD DUP2 PUSH0 ADD PUSH0 PUSH2 0x100 EXP DUP2 SLOAD DUP2 PUSH20 0xFFFFFFFFFFFFFFFFFFFFFFFFFFFFFFFFFFFFFFFF MUL NOT AND SWAP1 DUP4 PUSH20 0xFFFFFFFFFFFFFFFFFFFFFFFFFFFFFFFFFFFFFFFF AND MUL OR SWAP1 SSTORE POP PUSH1 0x20 DUP3 ADD MLOAD DUP2 PUSH1 0x1 ADD SSTORE PUSH1 0x40 DUP3 ADD MLOAD DUP2 PUSH1 0x2 ADD PUSH0 PUSH2 0x100 EXP DUP2 SLOAD DUP2 PUSH1 0xFF MUL NOT AND SWAP1 DUP4 ISZERO ISZERO MUL OR SWAP1 SSTORE POP PUSH1 0x60 DUP3 ADD MLOAD DUP2 PUSH1 0x2 ADD PUSH1 0x1 PUSH2 0x100 EXP DUP2 SLOAD DUP2 PUSH1 0xFF MUL NOT AND SWAP1 DUP4 PUSH1 0xFF AND MUL OR SWAP1 SSTORE POP PUSH1 0x80 DUP3 ADD MLOAD DUP2 PUSH1 0x2 ADD PUSH1 0x2 PUSH2 0x100 EXP DUP2 SLOAD DUP2 PUSH1 0xFF MUL NOT AND SWAP1 DUP4 ISZERO ISZERO MUL OR SWAP1 SSTORE POP PUSH1 0xA0 DUP3 ADD MLOAD DUP2 PUSH1 0x2 ADD PUSH1 0x3 PUSH2 0x100 EXP DUP2 SLOAD DUP2 PUSH1 0xFF MUL NOT AND SWAP1 DUP4 ISZERO ISZERO MUL OR SWAP1 SSTORE POP PUSH1 0xC0 DUP3 ADD MLOAD DUP2 PUSH1 0x2 ADD PUSH1 0x4 PUSH2 0x100 EXP DUP2 SLOAD DUP2 PUSH1 0xFF MUL NOT AND SWAP1 DUP4 ISZERO ISZERO MUL OR SWAP1 SSTORE POP PUSH1 0xE0 DUP3 ADD MLOAD DUP2 PUSH1 0x2 ADD PUSH1 0x5 PUSH2 0x100 EXP DUP2 SLOAD DUP2 PUSH1 0xFF MUL NOT AND SWAP1 DUP4 ISZERO ISZERO MUL OR SWAP1 SSTORE POP PUSH2 0x100 DUP3 ADD MLOAD DUP2 PUSH1 0x2 ADD PUSH1 0x6 PUSH2 0x100 EXP DUP2 SLOAD DUP2 PUSH1 0xFF MUL NOT AND SWAP1 DUP4 ISZERO ISZERO MUL OR SWAP1 SSTORE POP SWAP1 POP POP CALLER PUSH20 0xFFFFFFFFFFFFFFFFFFFFFFFFFFFFFFFFFFFFFFFF AND PUSH32 0x87B9DF6FA7123C2E6044C3A3A37B4B0662C188D7A58EF86EE55067C46E4613AD DUP5 DUP4 PUSH1 0x40 MLOAD PUSH2 0x8BD SWAP3 SWAP2 SWAP1 PUSH2 0x1DA1 JUMP JUMPDEST PUSH1 0x40 MLOAD DUP1 SWAP2 SUB SWAP1 LOG2 PUSH32 0x76DAD7DE074AEE7A970EDB9DE9050A73A2218ABBD33110C3A39225D597856CA2 PUSH1 0x3 SLOAD PUSH1 0x40 MLOAD PUSH2 0x8F6 SWAP2 SWAP1 PUSH2 0x1596 JUMP JUMPDEST PUSH1 0x40 MLOAD DUP1 SWAP2 SUB SWAP1 LOG1 POP POP POP POP POP POP POP POP POP POP POP POP POP JUMP JUMPDEST PUSH1 0x4 SLOAD DUP2 JUMP JUMPDEST PUSH32 0x0 PUSH20 0xFFFFFFFFFFFFFFFFFFFFFFFFFFFFFFFFFFFFFFFF AND CALLER PUSH20 0xFFFFFFFFFFFFFFFFFFFFFFFFFFFFFFFFFFFFFFFF AND EQ PUSH2 0x9C5 JUMPI CALLER PUSH32 0x0 PUSH1 0x40 MLOAD PUSH32 0x1CF993F400000000000000000000000000000000000000000000000000000000 DUP2 MSTORE PUSH1 0x4 ADD PUSH2 0x9BC SWAP3 SWAP2 SWAP1 PUSH2 0x1DC8 JUMP JUMPDEST PUSH1 0x40 MLOAD DUP1 SWAP2 SUB SWAP1 REVERT JUMPDEST PUSH2 0x9CF DUP3 DUP3 PUSH2 0xEB3 JUMP JUMPDEST POP POP JUMP JUMPDEST PUSH1 0x5 PUSH1 0x20 MSTORE DUP1 PUSH0 MSTORE PUSH1 0x40 PUSH0 KECCAK256 PUSH0 SWAP2 POP SWAP1 POP DUP1 PUSH0 ADD PUSH0 SWAP1 SLOAD SWAP1 PUSH2 0x100 EXP SWAP1 DIV PUSH20 0xFFFFFFFFFFFFFFFFFFFFFFFFFFFFFFFFFFFFFFFF AND SWAP1 DUP1 PUSH1 0x1 ADD SLOAD SWAP1 DUP1 PUSH1 0x2 ADD PUSH0 SWAP1 SLOAD SWAP1 PUSH2 0x100 EXP SWAP1 DIV PUSH1 0xFF AND SWAP1 DUP1 PUSH1 0x2 ADD PUSH1 0x1 SWAP1 SLOAD SWAP1 PUSH2 0x100 EXP SWAP1 DIV PUSH1 0xFF AND SWAP1 DUP1 PUSH1 0x2 ADD PUSH1 0x2 SWAP1 SLOAD SWAP1 PUSH2 0x100 EXP SWAP1 DIV PUSH1 0xFF AND SWAP1 DUP1 PUSH1 0x2 ADD PUSH1 0x3 SWAP1 SLOAD SWAP1 PUSH2 0x100 EXP SWAP1 DIV PUSH1 0xFF AND SWAP1 DUP1 PUSH1 0x2 ADD PUSH1 0x4 SWAP1 SLOAD SWAP1 PUSH2 0x100 EXP SWAP1 DIV PUSH1 0xFF AND SWAP1 DUP1 PUSH1 0x2 ADD PUSH1 0x5 SWAP1 SLOAD SWAP1 PUSH2 0x100 EXP SWAP1 DIV PUSH1 0xFF AND SWAP1 DUP1 PUSH1 0x2 ADD PUSH1 0x6 SWAP1 SLOAD SWAP1 PUSH2 0x100 EXP SWAP1 DIV PUSH1 0xFF AND SWAP1 POP DUP10 JUMP JUMPDEST PUSH1 0x2 SLOAD DUP2 JUMP JUMPDEST PUSH2 0xAA4 PUSH2 0x13CF JUMP JUMPDEST DUP1 DUP3 LT PUSH2 0xADD JUMPI PUSH1 0x40 MLOAD PUSH32 0x46BC653500000000000000000000000000000000000000000000000000000000 DUP2 MSTORE PUSH1 0x4 ADD PUSH1 0x40 MLOAD DUP1 SWAP2 SUB SWAP1 REVERT JUMPDEST DUP2 PUSH1 0x1 DUP2 SWAP1 SSTORE POP DUP1 PUSH1 0x2 DUP2 SWAP1 SSTORE POP POP POP JUMP JUMPDEST PUSH2 0xAF7 PUSH2 0x13CF JUMP JUMPDEST PUSH2 0xB00 PUSH0 PUSH2 0x1456 JUMP JUMPDEST JUMP JUMPDEST PUSH1 0x3 SLOAD DUP2 JUMP JUMPDEST PUSH0 PUSH0 PUSH0 SWAP1 SLOAD SWAP1 PUSH2 0x100 EXP SWAP1 DIV PUSH20 0xFFFFFFFFFFFFFFFFFFFFFFFFFFFFFFFFFFFFFFFF AND SWAP1 POP SWAP1 JUMP JUMPDEST PUSH1 0x1 SLOAD DUP2 JUMP JUMPDEST PUSH32 0x0 DUP2 JUMP JUMPDEST PUSH0 PUSH0 PUSH0 PUSH0 PUSH0 PUSH32 0x0 PUSH20 0xFFFFFFFFFFFFFFFFFFFFFFFFFFFFFFFFFFFFFFFF AND PUSH4 0x32854C13 DUP8 PUSH1 0x40 MLOAD DUP3 PUSH4 0xFFFFFFFF AND PUSH1 0xE0 SHL DUP2 MSTORE PUSH1 0x4 ADD PUSH2 0xBB7 SWAP2 SWAP1 PUSH2 0x19ED JUMP JUMPDEST PUSH1 0x20 PUSH1 0x40 MLOAD DUP1 DUP4 SUB DUP2 DUP7 GAS STATICCALL ISZERO DUP1 ISZERO PUSH2 0xBD2 JUMPI RETURNDATASIZE PUSH0 PUSH0 RETURNDATACOPY RETURNDATASIZE PUSH0 REVERT JUMPDEST POP POP POP POP PUSH1 0x40 MLOAD RETURNDATASIZE PUSH1 0x1F NOT PUSH1 0x1F DUP3 ADD AND DUP3 ADD DUP1 PUSH1 0x40 MSTORE POP DUP2 ADD SWAP1 PUSH2 0xBF6 SWAP2 SWAP1 PUSH2 0x1E12 JUMP JUMPDEST PUSH1 0x3 DUP2 GT ISZERO PUSH2 0xC08 JUMPI PUSH2 0xC07 PUSH2 0x1E3D JUMP JUMPDEST JUMPDEST SWAP1 POP PUSH0 PUSH1 0x2 SLOAD SWAP1 POP PUSH0 PUSH1 0x4 SLOAD SWAP1 POP PUSH0 PUSH0 SWAP1 POP PUSH0 PUSH0 SWAP1 POP PUSH1 0x1 PUSH1 0x3 DUP2 GT ISZERO PUSH2 0xC32 JUMPI PUSH2 0xC31 PUSH2 0x1E3D JUMP JUMPDEST JUMPDEST DUP6 SUB PUSH2 0xC5F JUMPI PUSH8 0x1BC16D674EC80000 DUP5 PUSH2 0xC4C SWAP2 SWAP1 PUSH2 0x1554 JUMP JUMPDEST SWAP4 POP PUSH1 0x3 SWAP3 POP PUSH1 0x2 SWAP2 POP PUSH1 0x5 SWAP1 POP PUSH2 0xCDE JUMP JUMPDEST PUSH1 0x2 PUSH1 0x3 DUP2 GT ISZERO PUSH2 0xC73 JUMPI PUSH2 0xC72 PUSH2 0x1E3D JUMP JUMPDEST JUMPDEST DUP6 SUB PUSH2 0xCA0 JUMPI PUSH8 0x4563918244F40000 DUP5 PUSH2 0xC8D SWAP2 SWAP1 PUSH2 0x1554 JUMP JUMPDEST SWAP4 POP PUSH1 0x2 SWAP3 POP PUSH1 0x5 SWAP2 POP PUSH1 0xA SWAP1 POP PUSH2 0xCDD JUMP JUMPDEST PUSH1 0x3 DUP1 DUP2 GT ISZERO PUSH2 0xCB3 JUMPI PUSH2 0xCB2 PUSH2 0x1E3D JUMP JUMPDEST JUMPDEST DUP6 SUB PUSH2 0xCDC JUMPI PUSH8 0x8AC7230489E80000 DUP5 PUSH2 0xCCD SWAP2 SWAP1 PUSH2 0x1554 JUMP JUMPDEST SWAP4 POP PUSH1 0x1 SWAP3 POP PUSH1 0xA SWAP2 POP PUSH1 0x14 SWAP1 POP JUMPDEST JUMPDEST JUMPDEST DUP4 DUP4 DUP4 DUP4 SWAP9 POP SWAP9 POP SWAP9 POP SWAP9 POP POP POP POP POP POP SWAP2 SWAP4 POP SWAP2 SWAP4 JUMP JUMPDEST PUSH2 0xCFE PUSH2 0x13CF JUMP JUMPDEST PUSH0 PUSH20 0xFFFFFFFFFFFFFFFFFFFFFFFFFFFFFFFFFFFFFFFF AND DUP2 PUSH20 0xFFFFFFFFFFFFFFFFFFFFFFFFFFFFFFFFFFFFFFFF AND SUB PUSH2 0xD6E JUMPI PUSH0 PUSH1 0x40 MLOAD PUSH32 0x1E4FBDF700000000000000000000000000000000000000000000000000000000 DUP2 MSTORE PUSH1 0x4 ADD PUSH2 0xD65 SWAP2 SWAP1 PUSH2 0x19ED JUMP JUMPDEST PUSH1 0x40 MLOAD DUP1 SWAP2 SUB SWAP1 REVERT JUMPDEST PUSH2 0xD77 DUP2 PUSH2 0x1456 JUMP JUMPDEST POP JUMP JUMPDEST PUSH2 0xD82 PUSH2 0x13CF JUMP JUMPDEST PUSH1 0x3 SLOAD DUP2 GT ISZERO PUSH2 0xDBE JUMPI PUSH1 0x40 MLOAD PUSH32 0x8FB8563F00000000000000000000000000000000000000000000000000000000 DUP2 MSTORE PUSH1 0x4 ADD PUSH1 0x40 MLOAD DUP1 SWAP2 SUB SWAP1 REVERT JUMPDEST DUP1 PUSH1 0x3 PUSH0 DUP3 DUP3 SLOAD PUSH2 0xDCF SWAP2 SWAP1 PUSH2 0x1D2D JUMP JUMPDEST SWAP3 POP POP DUP2 SWAP1 SSTORE POP PUSH0 DUP3 PUSH20 0xFFFFFFFFFFFFFFFFFFFFFFFFFFFFFFFFFFFFFFFF AND DUP3 PUSH1 0x40 MLOAD PUSH2 0xDFB SWAP1 PUSH2 0x1D8D JUMP JUMPDEST PUSH0 PUSH1 0x40 MLOAD DUP1 DUP4 SUB DUP2 DUP6 DUP8 GAS CALL SWAP3 POP POP POP RETURNDATASIZE DUP1 PUSH0 DUP2 EQ PUSH2 0xE35 JUMPI PUSH1 0x40 MLOAD SWAP2 POP PUSH1 0x1F NOT PUSH1 0x3F RETURNDATASIZE ADD AND DUP3 ADD PUSH1 0x40 MSTORE RETURNDATASIZE DUP3 MSTORE RETURNDATASIZE PUSH0 PUSH1 0x20 DUP5 ADD RETURNDATACOPY PUSH2 0xE3A JUMP JUMPDEST PUSH1 0x60 SWAP2 POP JUMPDEST POP POP SWAP1 POP DUP1 PUSH2 0xE75 JUMPI PUSH1 0x40 MLOAD PUSH32 0x750B219C00000000000000000000000000000000000000000000000000000000 DUP2 MSTORE PUSH1 0x4 ADD PUSH1 0x40 MLOAD DUP1 SWAP2 SUB SWAP1 REVERT JUMPDEST PUSH32 0x76DAD7DE074AEE7A970EDB9DE9050A73A2218ABBD33110C3A39225D597856CA2 PUSH1 0x3 SLOAD PUSH1 0x40 MLOAD PUSH2 0xEA6 SWAP2 SWAP1 PUSH2 0x1596 JUMP JUMPDEST PUSH1 0x40 MLOAD DUP1 SWAP2 SUB SWAP1 LOG1 POP POP POP JUMP JUMPDEST PUSH0 PUSH1 0x5 PUSH0 DUP5 DUP2 MSTORE PUSH1 0x20 ADD SWAP1 DUP2 MSTORE PUSH1 0x20 ADD PUSH0 KECCAK256 PUSH1 0x40 MLOAD DUP1 PUSH2 0x120 ADD PUSH1 0x40 MSTORE SWAP1 DUP2 PUSH0 DUP3 ADD PUSH0 SWAP1 SLOAD SWAP1 PUSH2 0x100 EXP SWAP1 DIV PUSH20 0xFFFFFFFFFFFFFFFFFFFFFFFFFFFFFFFFFFFFFFFF AND PUSH20 0xFFFFFFFFFFFFFFFFFFFFFFFFFFFFFFFFFFFFFFFF AND PUSH20 0xFFFFFFFFFFFFFFFFFFFFFFFFFFFFFFFFFFFFFFFF AND DUP2 MSTORE PUSH1 0x20 ADD PUSH1 0x1 DUP3 ADD SLOAD DUP2 MSTORE PUSH1 0x20 ADD PUSH1 0x2 DUP3 ADD PUSH0 SWAP1 SLOAD SWAP1 PUSH2 0x100 EXP SWAP1 DIV PUSH1 0xFF AND ISZERO ISZERO ISZERO ISZERO DUP2 MSTORE PUSH1 0x20 ADD PUSH1 0x2 DUP3 ADD PUSH1 0x1 SWAP1 SLOAD SWAP1 PUSH2 0x100 EXP SWAP1 DIV PUSH1 0xFF AND PUSH1 0xFF AND PUSH1 0xFF AND DUP2 MSTORE PUSH1 0x20 ADD PUSH1 0x2 DUP3 ADD PUSH1 0x2 SWAP1 SLOAD SWAP1 PUSH2 0x100 EXP SWAP1 DIV PUSH1 0xFF AND ISZERO ISZERO ISZERO ISZERO DUP2 MSTORE PUSH1 0x20 ADD PUSH1 0x2 DUP3 ADD PUSH1 0x3 SWAP1 SLOAD SWAP1 PUSH2 0x100 EXP SWAP1 DIV PUSH1 0xFF AND ISZERO ISZERO ISZERO ISZERO DUP2 MSTORE PUSH1 0x20 ADD PUSH1 0x2 DUP3 ADD PUSH1 0x4 SWAP1 SLOAD SWAP1 PUSH2 0x100 EXP SWAP1 DIV PUSH1 0xFF AND ISZERO ISZERO ISZERO ISZERO DUP2 MSTORE PUSH1 0x20 ADD PUSH1 0x2 DUP3 ADD PUSH1 0x5 SWAP1 SLOAD SWAP1 PUSH2 0x100 EXP SWAP1 DIV PUSH1 0xFF AND ISZERO ISZERO ISZERO ISZERO DUP2 MSTORE PUSH1 0x20 ADD PUSH1 0x2 DUP3 ADD PUSH1 0x6 SWAP1 SLOAD SWAP1 PUSH2 0x100 EXP SWAP1 DIV PUSH1 0xFF AND ISZERO ISZERO ISZERO ISZERO DUP2 MSTORE POP POP SWAP1 POP PUSH0 PUSH1 0x25 DUP4 PUSH0 DUP2 MLOAD DUP2 LT PUSH2 0x1005 JUMPI PUSH2 0x1004 PUSH2 0x1E6A JUMP JUMPDEST JUMPDEST PUSH1 0x20 MUL PUSH1 0x20 ADD ADD MLOAD PUSH2 0x1017 SWAP2 SWAP1 PUSH2 0x1E97 JUMP JUMPDEST SWAP1 POP PUSH0 PUSH0 SWAP1 POP PUSH0 PUSH0 SWAP1 POP PUSH0 PUSH2 0x102E DUP6 PUSH0 ADD MLOAD PUSH2 0xB59 JUMP JUMPDEST SWAP4 POP POP POP POP DUP5 PUSH1 0x40 ADD MLOAD DUP1 ISZERO PUSH2 0x104D JUMPI POP DUP4 PUSH1 0xFF AND DUP6 PUSH1 0x60 ADD MLOAD PUSH1 0xFF AND EQ JUMPDEST ISZERO PUSH2 0x1081 JUMPI PUSH1 0x64 DUP2 PUSH1 0x24 PUSH2 0x1061 SWAP2 SWAP1 PUSH2 0x1554 JUMP JUMPDEST DUP7 PUSH1 0x20 ADD MLOAD PUSH2 0x1070 SWAP2 SWAP1 PUSH2 0x1C8F JUMP JUMPDEST PUSH2 0x107A SWAP2 SWAP1 PUSH2 0x1CFD JUMP JUMPDEST SWAP2 POP PUSH2 0x11A9 JUMP JUMPDEST DUP5 PUSH1 0x80 ADD MLOAD ISZERO PUSH2 0x10BA JUMPI PUSH1 0x64 DUP2 PUSH1 0x2 PUSH2 0x109A SWAP2 SWAP1 PUSH2 0x1554 JUMP JUMPDEST DUP7 PUSH1 0x20 ADD MLOAD PUSH2 0x10A9 SWAP2 SWAP1 PUSH2 0x1C8F JUMP JUMPDEST PUSH2 0x10B3 SWAP2 SWAP1 PUSH2 0x1CFD JUMP JUMPDEST SWAP2 POP PUSH2 0x11A8 JUMP JUMPDEST DUP5 PUSH1 0xC0 ADD MLOAD DUP1 ISZERO PUSH2 0x10CD JUMPI POP PUSH0 DUP5 PUSH1 0xFF AND EQ JUMPDEST ISZERO PUSH2 0x1101 JUMPI PUSH1 0x64 DUP2 PUSH1 0x12 PUSH2 0x10E1 SWAP2 SWAP1 PUSH2 0x1554 JUMP JUMPDEST DUP7 PUSH1 0x20 ADD MLOAD PUSH2 0x10F0 SWAP2 SWAP1 PUSH2 0x1C8F JUMP JUMPDEST PUSH2 0x10FA SWAP2 SWAP1 PUSH2 0x1CFD JUMP JUMPDEST SWAP2 POP PUSH2 0x11A7 JUMP JUMPDEST DUP5 PUSH1 0xE0 ADD MLOAD DUP1 ISZERO PUSH2 0x1120 JUMPI POP PUSH0 PUSH1 0x2 DUP6 PUSH2 0x111B SWAP2 SWAP1 PUSH2 0x1EC7 JUMP JUMPDEST PUSH1 0xFF AND EQ JUMPDEST ISZERO PUSH2 0x1154 JUMPI PUSH1 0x64 DUP2 PUSH1 0x2 PUSH2 0x1134 SWAP2 SWAP1 PUSH2 0x1554 JUMP JUMPDEST DUP7 PUSH1 0x20 ADD MLOAD PUSH2 0x1143 SWAP2 SWAP1 PUSH2 0x1C8F JUMP JUMPDEST PUSH2 0x114D SWAP2 SWAP1 PUSH2 0x1CFD JUMP JUMPDEST SWAP2 POP PUSH2 0x11A6 JUMP JUMPDEST DUP5 PUSH2 0x100 ADD MLOAD DUP1 ISZERO PUSH2 0x1175 JUMPI POP PUSH0 PUSH1 0x2 DUP6 PUSH2 0x116F SWAP2 SWAP1 PUSH2 0x1EC7 JUMP JUMPDEST PUSH1 0xFF AND EQ ISZERO JUMPDEST ISZERO PUSH2 0x11A5 JUMPI PUSH1 0x64 DUP2 PUSH1 0x2 PUSH2 0x1189 SWAP2 SWAP1 PUSH2 0x1554 JUMP JUMPDEST DUP7 PUSH1 0x20 ADD MLOAD PUSH2 0x1198 SWAP2 SWAP1 PUSH2 0x1C8F JUMP JUMPDEST PUSH2 0x11A2 SWAP2 SWAP1 PUSH2 0x1CFD JUMP JUMPDEST SWAP2 POP JUMPDEST JUMPDEST JUMPDEST JUMPDEST JUMPDEST PUSH1 0x3 SLOAD DUP3 GT ISZERO PUSH2 0x11E5 JUMPI PUSH1 0x40 MLOAD PUSH32 0xCD9C37C100000000000000000000000000000000000000000000000000000000 DUP2 MSTORE PUSH1 0x4 ADD PUSH1 0x40 MLOAD DUP1 SWAP2 SUB SWAP1 REVERT JUMPDEST PUSH0 DUP6 PUSH0 ADD MLOAD PUSH20 0xFFFFFFFFFFFFFFFFFFFFFFFFFFFFFFFFFFFFFFFF AND DUP4 PUSH1 0x40 MLOAD PUSH2 0x120D SWAP1 PUSH2 0x1D8D JUMP JUMPDEST PUSH0 PUSH1 0x40 MLOAD DUP1 DUP4 SUB DUP2 DUP6 DUP8 GAS CALL SWAP3 POP POP POP RETURNDATASIZE DUP1 PUSH0 DUP2 EQ PUSH2 0x1247 JUMPI PUSH1 0x40 MLOAD SWAP2 POP PUSH1 0x1F NOT PUSH1 0x3F RETURNDATASIZE ADD AND DUP3 ADD PUSH1 0x40 MSTORE RETURNDATASIZE DUP3 MSTORE RETURNDATASIZE PUSH0 PUSH1 0x20 DUP5 ADD RETURNDATACOPY PUSH2 0x124C JUMP JUMPDEST PUSH1 0x60 SWAP2 POP JUMPDEST POP POP SWAP1 POP DUP1 PUSH2 0x1287 JUMPI PUSH1 0x40 MLOAD PUSH32 0x90B8EC1800000000000000000000000000000000000000000000000000000000 DUP2 MSTORE PUSH1 0x4 ADD PUSH1 0x40 MLOAD DUP1 SWAP2 SUB SWAP1 REVERT JUMPDEST DUP3 PUSH1 0x3 PUSH0 DUP3 DUP3 SLOAD PUSH2 0x1298 SWAP2 SWAP1 PUSH2 0x1D2D JUMP JUMPDEST SWAP3 POP POP DUP2 SWAP1 SSTORE POP DUP6 PUSH0 ADD MLOAD PUSH20 0xFFFFFFFFFFFFFFFFFFFFFFFFFFFFFFFFFFFFFFFF AND PUSH32 0x7204B31C5BBFA97E1AEE8EF0FB88D079DA912AD60E762363640DA9F84333C110 DUP10 DUP9 PUSH1 0x20 ADD MLOAD DUP9 DUP9 PUSH1 0x40 MLOAD PUSH2 0x12F2 SWAP5 SWAP4 SWAP3 SWAP2 SWAP1 PUSH2 0x1EF7 JUMP JUMPDEST PUSH1 0x40 MLOAD DUP1 SWAP2 SUB SWAP1 LOG2 PUSH1 0x5 PUSH0 DUP10 DUP2 MSTORE PUSH1 0x20 ADD SWAP1 DUP2 MSTORE PUSH1 0x20 ADD PUSH0 KECCAK256 PUSH0 PUSH0 DUP3 ADD PUSH0 PUSH2 0x100 EXP DUP2 SLOAD SWAP1 PUSH20 0xFFFFFFFFFFFFFFFFFFFFFFFFFFFFFFFFFFFFFFFF MUL NOT AND SWAP1 SSTORE PUSH1 0x1 DUP3 ADD PUSH0 SWAP1 SSTORE PUSH1 0x2 DUP3 ADD PUSH0 PUSH2 0x100 EXP DUP2 SLOAD SWAP1 PUSH1 0xFF MUL NOT AND SWAP1 SSTORE PUSH1 0x2 DUP3 ADD PUSH1 0x1 PUSH2 0x100 EXP DUP2 SLOAD SWAP1 PUSH1 0xFF MUL NOT AND SWAP1 SSTORE PUSH1 0x2 DUP3 ADD PUSH1 0x2 PUSH2 0x100 EXP DUP2 SLOAD SWAP1 PUSH1 0xFF MUL NOT AND SWAP1 SSTORE PUSH1 0x2 DUP3 ADD PUSH1 0x3 PUSH2 0x100 EXP DUP2 SLOAD SWAP1 PUSH1 0xFF MUL NOT AND SWAP1 SSTORE PUSH1 0x2 DUP3 ADD PUSH1 0x4 PUSH2 0x100 EXP DUP2 SLOAD SWAP1 PUSH1 0xFF MUL NOT AND SWAP1 SSTORE PUSH1 0x2 DUP3 ADD PUSH1 0x5 PUSH2 0x100 EXP DUP2 SLOAD SWAP1 PUSH1 0xFF MUL NOT AND SWAP1 SSTORE PUSH1 0x2 DUP3 ADD PUSH1 0x6 PUSH2 0x100 EXP DUP2 SLOAD SWAP1 PUSH1 0xFF MUL NOT AND SWAP1 SSTORE POP POP POP POP POP POP POP POP POP POP JUMP JUMPDEST PUSH2 0x13D7 PUSH2 0x1517 JUMP JUMPDEST PUSH20 0xFFFFFFFFFFFFFFFFFFFFFFFFFFFFFFFFFFFFFFFF AND PUSH2 0x13F5 PUSH2 0xB08 JUMP JUMPDEST PUSH20 0xFFFFFFFFFFFFFFFFFFFFFFFFFFFFFFFFFFFFFFFF AND EQ PUSH2 0x1454 JUMPI PUSH2 0x1418 PUSH2 0x1517 JUMP JUMPDEST PUSH1 0x40 MLOAD PUSH32 0x118CDAA700000000000000000000000000000000000000000000000000000000 DUP2 MSTORE PUSH1 0x4 ADD PUSH2 0x144B SWAP2 SWAP1 PUSH2 0x19ED JUMP JUMPDEST PUSH1 0x40 MLOAD DUP1 SWAP2 SUB SWAP1 REVERT JUMPDEST JUMP JUMPDEST PUSH0 PUSH0 PUSH0 SWAP1 SLOAD SWAP1 PUSH2 0x100 EXP SWAP1 DIV PUSH20 0xFFFFFFFFFFFFFFFFFFFFFFFFFFFFFFFFFFFFFFFF AND SWAP1 POP DUP2 PUSH0 PUSH0 PUSH2 0x100 EXP DUP2 SLOAD DUP2 PUSH20 0xFFFFFFFFFFFFFFFFFFFFFFFFFFFFFFFFFFFFFFFF MUL NOT AND SWAP1 DUP4 PUSH20 0xFFFFFFFFFFFFFFFFFFFFFFFFFFFFFFFFFFFFFFFF AND MUL OR SWAP1 SSTORE POP DUP2 PUSH20 0xFFFFFFFFFFFFFFFFFFFFFFFFFFFFFFFFFFFFFFFF AND DUP2 PUSH20 0xFFFFFFFFFFFFFFFFFFFFFFFFFFFFFFFFFFFFFFFF AND PUSH32 0x8BE0079C531659141344CD1FD0A4F28419497F9722A3DAAFE3B4186F6B6457E0 PUSH1 0x40 MLOAD PUSH1 0x40 MLOAD DUP1 SWAP2 SUB SWAP1 LOG3 POP POP JUMP JUMPDEST PUSH0 CALLER SWAP1 POP SWAP1 JUMP JUMPDEST PUSH0 DUP2 SWAP1 POP SWAP2 SWAP1 POP JUMP JUMPDEST PUSH32 0x4E487B7100000000000000000000000000000000000000000000000000000000 PUSH0 MSTORE PUSH1 0x11 PUSH1 0x4 MSTORE PUSH1 0x24 PUSH0 REVERT JUMPDEST PUSH0 PUSH2 0x155E DUP3 PUSH2 0x151E JUMP JUMPDEST SWAP2 POP PUSH2 0x1569 DUP4 PUSH2 0x151E JUMP JUMPDEST SWAP3 POP DUP3 DUP3 ADD SWAP1 POP DUP1 DUP3 GT ISZERO PUSH2 0x1581 JUMPI PUSH2 0x1580 PUSH2 0x1527 JUMP JUMPDEST JUMPDEST SWAP3 SWAP2 POP POP JUMP JUMPDEST PUSH2 0x1590 DUP2 PUSH2 0x151E JUMP JUMPDEST DUP3 MSTORE POP POP JUMP JUMPDEST PUSH0 PUSH1 0x20 DUP3 ADD SWAP1 POP PUSH2 0x15A9 PUSH0 DUP4 ADD DUP5 PUSH2 0x1587 JUMP JUMPDEST SWAP3 SWAP2 POP POP JUMP JUMPDEST PUSH0 PUSH1 0x40 MLOAD SWAP1 POP SWAP1 JUMP JUMPDEST PUSH0 PUSH0 REVERT JUMPDEST PUSH0 PUSH0 REVERT JUMPDEST PUSH0 DUP2 ISZERO ISZERO SWAP1 POP SWAP2 SWAP1 POP JUMP JUMPDEST PUSH2 0x15D4 DUP2 PUSH2 0x15C0 JUMP JUMPDEST DUP2 EQ PUSH2 0x15DE JUMPI PUSH0 PUSH0 REVERT JUMPDEST POP JUMP JUMPDEST PUSH0 DUP2 CALLDATALOAD SWAP1 POP PUSH2 0x15EF DUP2 PUSH2 0x15CB JUMP JUMPDEST SWAP3 SWAP2 POP POP JUMP JUMPDEST PUSH0 PUSH1 0xFF DUP3 AND SWAP1 POP SWAP2 SWAP1 POP JUMP JUMPDEST PUSH2 0x160A DUP2 PUSH2 0x15F5 JUMP JUMPDEST DUP2 EQ PUSH2 0x1614 JUMPI PUSH0 PUSH0 REVERT JUMPDEST POP JUMP JUMPDEST PUSH0 DUP2 CALLDATALOAD SWAP1 POP PUSH2 0x1625 DUP2 PUSH2 0x1601 JUMP JUMPDEST SWAP3 SWAP2 POP POP JUMP JUMPDEST PUSH0 PUSH0 PUSH0 PUSH0 PUSH0 PUSH0 PUSH0 PUSH1 0xE0 DUP9 DUP11 SUB SLT ISZERO PUSH2 0x1646 JUMPI PUSH2 0x1645 PUSH2 0x15B8 JUMP JUMPDEST JUMPDEST PUSH0 PUSH2 0x1653 DUP11 DUP3 DUP12 ADD PUSH2 0x15E1 JUMP JUMPDEST SWAP8 POP POP PUSH1 0x20 PUSH2 0x1664 DUP11 DUP3 DUP12 ADD PUSH2 0x1617 JUMP JUMPDEST SWAP7 POP POP PUSH1 0x40 PUSH2 0x1675 DUP11 DUP3 DUP12 ADD PUSH2 0x15E1 JUMP JUMPDEST SWAP6 POP POP PUSH1 0x60 PUSH2 0x1686 DUP11 DUP3 DUP12 ADD PUSH2 0x15E1 JUMP JUMPDEST SWAP5 POP POP PUSH1 0x80 PUSH2 0x1697 DUP11 DUP3 DUP12 ADD PUSH2 0x15E1 JUMP JUMPDEST SWAP4 POP POP PUSH1 0xA0 PUSH2 0x16A8 DUP11 DUP3 DUP12 ADD PUSH2 0x15E1 JUMP JUMPDEST SWAP3 POP POP PUSH1 0xC0 PUSH2 0x16B9 DUP11 DUP3 DUP12 ADD PUSH2 0x15E1 JUMP JUMPDEST SWAP2 POP POP SWAP3 SWAP6 SWAP9 SWAP2 SWAP5 SWAP8 POP SWAP3 SWAP6 POP JUMP JUMPDEST PUSH2 0x16D1 DUP2 PUSH2 0x151E JUMP JUMPDEST DUP2 EQ PUSH2 0x16DB JUMPI PUSH0 PUSH0 REVERT JUMPDEST POP JUMP JUMPDEST PUSH0 DUP2 CALLDATALOAD SWAP1 POP PUSH2 0x16EC DUP2 PUSH2 0x16C8 JUMP JUMPDEST SWAP3 SWAP2 POP POP JUMP JUMPDEST PUSH0 PUSH0 REVERT JUMPDEST PUSH0 PUSH1 0x1F NOT PUSH1 0x1F DUP4 ADD AND SWAP1 POP SWAP2 SWAP1 POP JUMP JUMPDEST PUSH32 0x4E487B7100000000000000000000000000000000000000000000000000000000 PUSH0 MSTORE PUSH1 0x41 PUSH1 0x4 MSTORE PUSH1 0x24 PUSH0 REVERT JUMPDEST PUSH2 0x173C DUP3 PUSH2 0x16F6 JUMP JUMPDEST DUP2 ADD DUP2 DUP2 LT PUSH8 0xFFFFFFFFFFFFFFFF DUP3 GT OR ISZERO PUSH2 0x175B JUMPI PUSH2 0x175A PUSH2 0x1706 JUMP JUMPDEST JUMPDEST DUP1 PUSH1 0x40 MSTORE POP POP POP JUMP JUMPDEST PUSH0 PUSH2 0x176D PUSH2 0x15AF JUMP JUMPDEST SWAP1 POP PUSH2 0x1779 DUP3 DUP3 PUSH2 0x1733 JUMP JUMPDEST SWAP2 SWAP1 POP JUMP JUMPDEST PUSH0 PUSH8 0xFFFFFFFFFFFFFFFF DUP3 GT ISZERO PUSH2 0x1798 JUMPI PUSH2 0x1797 PUSH2 0x1706 JUMP JUMPDEST JUMPDEST PUSH1 0x20 DUP3 MUL SWAP1 POP PUSH1 0x20 DUP2 ADD SWAP1 POP SWAP2 SWAP1 POP JUMP JUMPDEST PUSH0 PUSH0 REVERT JUMPDEST PUSH0 PUSH2 0x17BF PUSH2 0x17BA DUP5 PUSH2 0x177E JUMP JUMPDEST PUSH2 0x1764 JUMP JUMPDEST SWAP1 POP DUP1 DUP4 DUP3 MSTORE PUSH1 0x20 DUP3 ADD SWAP1 POP PUSH1 0x20 DUP5 MUL DUP4 ADD DUP6 DUP2 GT ISZERO PUSH2 0x17E2 JUMPI PUSH2 0x17E1 PUSH2 0x17A9 JUMP JUMPDEST JUMPDEST DUP4 JUMPDEST DUP2 DUP2 LT ISZERO PUSH2 0x180B JUMPI DUP1 PUSH2 0x17F7 DUP9 DUP3 PUSH2 0x16DE JUMP JUMPDEST DUP5 MSTORE PUSH1 0x20 DUP5 ADD SWAP4 POP POP PUSH1 0x20 DUP2 ADD SWAP1 POP PUSH2 0x17E4 JUMP JUMPDEST POP POP POP SWAP4 SWAP3 POP POP POP JUMP JUMPDEST PUSH0 DUP3 PUSH1 0x1F DUP4 ADD SLT PUSH2 0x1829 JUMPI PUSH2 0x1828 PUSH2 0x16F2 JUMP JUMPDEST JUMPDEST DUP2 CALLDATALOAD PUSH2 0x1839 DUP5 DUP3 PUSH1 0x20 DUP7 ADD PUSH2 0x17AD JUMP JUMPDEST SWAP2 POP POP SWAP3 SWAP2 POP POP JUMP JUMPDEST PUSH0 PUSH0 PUSH1 0x40 DUP4 DUP6 SUB SLT ISZERO PUSH2 0x1858 JUMPI PUSH2 0x1857 PUSH2 0x15B8 JUMP JUMPDEST JUMPDEST PUSH0 PUSH2 0x1865 DUP6 DUP3 DUP7 ADD PUSH2 0x16DE JUMP JUMPDEST SWAP3 POP POP PUSH1 0x20 DUP4 ADD CALLDATALOAD PUSH8 0xFFFFFFFFFFFFFFFF DUP2 GT ISZERO PUSH2 0x1886 JUMPI PUSH2 0x1885 PUSH2 0x15BC JUMP JUMPDEST JUMPDEST PUSH2 0x1892 DUP6 DUP3 DUP7 ADD PUSH2 0x1815 JUMP JUMPDEST SWAP2 POP POP SWAP3 POP SWAP3 SWAP1 POP JUMP JUMPDEST PUSH0 PUSH1 0x20 DUP3 DUP5 SUB SLT ISZERO PUSH2 0x18B1 JUMPI PUSH2 0x18B0 PUSH2 0x15B8 JUMP JUMPDEST JUMPDEST PUSH0 PUSH2 0x18BE DUP5 DUP3 DUP6 ADD PUSH2 0x16DE JUMP JUMPDEST SWAP2 POP POP SWAP3 SWAP2 POP POP JUMP JUMPDEST PUSH0 PUSH20 0xFFFFFFFFFFFFFFFFFFFFFFFFFFFFFFFFFFFFFFFF DUP3 AND SWAP1 POP SWAP2 SWAP1 POP JUMP JUMPDEST PUSH0 PUSH2 0x18F0 DUP3 PUSH2 0x18C7 JUMP JUMPDEST SWAP1 POP SWAP2 SWAP1 POP JUMP JUMPDEST PUSH2 0x1900 DUP2 PUSH2 0x18E6 JUMP JUMPDEST DUP3 MSTORE POP POP JUMP JUMPDEST PUSH2 0x190F DUP2 PUSH2 0x15C0 JUMP JUMPDEST DUP3 MSTORE POP POP JUMP JUMPDEST PUSH2 0x191E DUP2 PUSH2 0x15F5 JUMP JUMPDEST DUP3 MSTORE POP POP JUMP JUMPDEST PUSH0 PUSH2 0x120 DUP3 ADD SWAP1 POP PUSH2 0x1938 PUSH0 DUP4 ADD DUP13 PUSH2 0x18F7 JUMP JUMPDEST PUSH2 0x1945 PUSH1 0x20 DUP4 ADD DUP12 PUSH2 0x1587 JUMP JUMPDEST PUSH2 0x1952 PUSH1 0x40 DUP4 ADD DUP11 PUSH2 0x1906 JUMP JUMPDEST PUSH2 0x195F PUSH1 0x60 DUP4 ADD DUP10 PUSH2 0x1915 JUMP JUMPDEST PUSH2 0x196C PUSH1 0x80 DUP4 ADD DUP9 PUSH2 0x1906 JUMP JUMPDEST PUSH2 0x1979 PUSH1 0xA0 DUP4 ADD DUP8 PUSH2 0x1906 JUMP JUMPDEST PUSH2 0x1986 PUSH1 0xC0 DUP4 ADD DUP7 PUSH2 0x1906 JUMP JUMPDEST PUSH2 0x1993 PUSH1 0xE0 DUP4 ADD DUP6 PUSH2 0x1906 JUMP JUMPDEST PUSH2 0x19A1 PUSH2 0x100 DUP4 ADD DUP5 PUSH2 0x1906 JUMP JUMPDEST SWAP11 SWAP10 POP POP POP POP POP POP POP POP POP POP JUMP JUMPDEST PUSH0 PUSH0 PUSH1 0x40 DUP4 DUP6 SUB SLT ISZERO PUSH2 0x19C5 JUMPI PUSH2 0x19C4 PUSH2 0x15B8 JUMP JUMPDEST JUMPDEST PUSH0 PUSH2 0x19D2 DUP6 DUP3 DUP7 ADD PUSH2 0x16DE JUMP JUMPDEST SWAP3 POP POP PUSH1 0x20 PUSH2 0x19E3 DUP6 DUP3 DUP7 ADD PUSH2 0x16DE JUMP JUMPDEST SWAP2 POP POP SWAP3 POP SWAP3 SWAP1 POP JUMP JUMPDEST PUSH0 PUSH1 0x20 DUP3 ADD SWAP1 POP PUSH2 0x1A00 PUSH0 DUP4 ADD DUP5 PUSH2 0x18F7 JUMP JUMPDEST SWAP3 SWAP2 POP POP JUMP JUMPDEST PUSH0 DUP2 SWAP1 POP SWAP2 SWAP1 POP JUMP JUMPDEST PUSH0 PUSH2 0x1A29 PUSH2 0x1A24 PUSH2 0x1A1F DUP5 PUSH2 0x18C7 JUMP JUMPDEST PUSH2 0x1A06 JUMP JUMPDEST PUSH2 0x18C7 JUMP JUMPDEST SWAP1 POP SWAP2 SWAP1 POP JUMP JUMPDEST PUSH0 PUSH2 0x1A3A DUP3 PUSH2 0x1A0F JUMP JUMPDEST SWAP1 POP SWAP2 SWAP1 POP JUMP JUMPDEST PUSH0 PUSH2 0x1A4B DUP3 PUSH2 0x1A30 JUMP JUMPDEST SWAP1 POP SWAP2 SWAP1 POP JUMP JUMPDEST PUSH2 0x1A5B DUP2 PUSH2 0x1A41 JUMP JUMPDEST DUP3 MSTORE POP POP JUMP JUMPDEST PUSH0 PUSH1 0x20 DUP3 ADD SWAP1 POP PUSH2 0x1A74 PUSH0 DUP4 ADD DUP5 PUSH2 0x1A52 JUMP JUMPDEST SWAP3 SWAP2 POP POP JUMP JUMPDEST PUSH2 0x1A83 DUP2 PUSH2 0x18E6 JUMP JUMPDEST DUP2 EQ PUSH2 0x1A8D JUMPI PUSH0 PUSH0 REVERT JUMPDEST POP JUMP JUMPDEST PUSH0 DUP2 CALLDATALOAD SWAP1 POP PUSH2 0x1A9E DUP2 PUSH2 0x1A7A JUMP JUMPDEST SWAP3 SWAP2 POP POP JUMP JUMPDEST PUSH0 PUSH1 0x20 DUP3 DUP5 SUB SLT ISZERO PUSH2 0x1AB9 JUMPI PUSH2 0x1AB8 PUSH2 0x15B8 JUMP JUMPDEST JUMPDEST PUSH0 PUSH2 0x1AC6 DUP5 DUP3 DUP6 ADD PUSH2 0x1A90 JUMP JUMPDEST SWAP2 POP POP SWAP3 SWAP2 POP POP JUMP JUMPDEST PUSH0 PUSH1 0x80 DUP3 ADD SWAP1 POP PUSH2 0x1AE2 PUSH0 DUP4 ADD DUP8 PUSH2 0x1587 JUMP JUMPDEST PUSH2 0x1AEF PUSH1 0x20 DUP4 ADD DUP7 PUSH2 0x1587 JUMP JUMPDEST PUSH2 0x1AFC PUSH1 0x40 DUP4 ADD DUP6 PUSH2 0x1587 JUMP JUMPDEST PUSH2 0x1B09 PUSH1 0x60 DUP4 ADD DUP5 PUSH2 0x1587 JUMP JUMPDEST SWAP6 SWAP5 POP POP POP POP POP JUMP JUMPDEST PUSH0 PUSH2 0x1B1C DUP3 PUSH2 0x18C7 JUMP JUMPDEST SWAP1 POP SWAP2 SWAP1 POP JUMP JUMPDEST PUSH2 0x1B2C DUP2 PUSH2 0x1B12 JUMP JUMPDEST DUP2 EQ PUSH2 0x1B36 JUMPI PUSH0 PUSH0 REVERT JUMPDEST POP JUMP JUMPDEST PUSH0 DUP2 CALLDATALOAD SWAP1 POP PUSH2 0x1B47 DUP2 PUSH2 0x1B23 JUMP JUMPDEST SWAP3 SWAP2 POP POP JUMP JUMPDEST PUSH0 PUSH0 PUSH1 0x40 DUP4 DUP6 SUB SLT ISZERO PUSH2 0x1B63 JUMPI PUSH2 0x1B62 PUSH2 0x15B8 JUMP JUMPDEST JUMPDEST PUSH0 PUSH2 0x1B70 DUP6 DUP3 DUP7 ADD PUSH2 0x1B39 JUMP JUMPDEST SWAP3 POP POP PUSH1 0x20 PUSH2 0x1B81 DUP6 DUP3 DUP7 ADD PUSH2 0x16DE JUMP JUMPDEST SWAP2 POP POP SWAP3 POP SWAP3 SWAP1 POP JUMP JUMPDEST PUSH0 DUP2 SWAP1 POP SWAP2 SWAP1 POP JUMP JUMPDEST PUSH2 0x1B9D DUP2 PUSH2 0x1B8B JUMP JUMPDEST DUP3 MSTORE POP POP JUMP JUMPDEST PUSH0 PUSH8 0xFFFFFFFFFFFFFFFF DUP3 AND SWAP1 POP SWAP2 SWAP1 POP JUMP JUMPDEST PUSH2 0x1BBF DUP2 PUSH2 0x1BA3 JUMP JUMPDEST DUP3 MSTORE POP POP JUMP JUMPDEST PUSH0 PUSH2 0xFFFF DUP3 AND SWAP1 POP SWAP2 SWAP1 POP JUMP JUMPDEST PUSH2 0x1BDB DUP2 PUSH2 0x1BC5 JUMP JUMPDEST DUP3 MSTORE POP POP JUMP JUMPDEST PUSH0 PUSH4 0xFFFFFFFF DUP3 AND SWAP1 POP SWAP2 SWAP1 POP JUMP JUMPDEST PUSH2 0x1BF9 DUP2 PUSH2 0x1BE1 JUMP JUMPDEST DUP3 MSTORE POP POP JUMP JUMPDEST PUSH0 PUSH1 0xA0 DUP3 ADD SWAP1 POP PUSH2 0x1C12 PUSH0 DUP4 ADD DUP9 PUSH2 0x1B94 JUMP JUMPDEST PUSH2 0x1C1F PUSH1 0x20 DUP4 ADD DUP8 PUSH2 0x1BB6 JUMP JUMPDEST PUSH2 0x1C2C PUSH1 0x40 DUP4 ADD DUP7 PUSH2 0x1BD2 JUMP JUMPDEST PUSH2 0x1C39 PUSH1 0x60 DUP4 ADD DUP6 PUSH2 0x1BF0 JUMP JUMPDEST PUSH2 0x1C46 PUSH1 0x80 DUP4 ADD DUP5 PUSH2 0x1BF0 JUMP JUMPDEST SWAP7 SWAP6 POP POP POP POP POP POP JUMP JUMPDEST PUSH0 DUP2 MLOAD SWAP1 POP PUSH2 0x1C5E DUP2 PUSH2 0x16C8 JUMP JUMPDEST SWAP3 SWAP2 POP POP JUMP JUMPDEST PUSH0 PUSH1 0x20 DUP3 DUP5 SUB SLT ISZERO PUSH2 0x1C79 JUMPI PUSH2 0x1C78 PUSH2 0x15B8 JUMP JUMPDEST JUMPDEST PUSH0 PUSH2 0x1C86 DUP5 DUP3 DUP6 ADD PUSH2 0x1C50 JUMP JUMPDEST SWAP2 POP POP SWAP3 SWAP2 POP POP JUMP JUMPDEST PUSH0 PUSH2 0x1C99 DUP3 PUSH2 0x151E JUMP JUMPDEST SWAP2 POP PUSH2 0x1CA4 DUP4 PUSH2 0x151E JUMP JUMPDEST SWAP3 POP DUP3 DUP3 MUL PUSH2 0x1CB2 DUP2 PUSH2 0x151E JUMP JUMPDEST SWAP2 POP DUP3 DUP3 DIV DUP5 EQ DUP4 ISZERO OR PUSH2 0x1CC9 JUMPI PUSH2 0x1CC8 PUSH2 0x1527 JUMP JUMPDEST JUMPDEST POP SWAP3 SWAP2 POP POP JUMP JUMPDEST PUSH32 0x4E487B7100000000000000000000000000000000000000000000000000000000 PUSH0 MSTORE PUSH1 0x12 PUSH1 0x4 MSTORE PUSH1 0x24 PUSH0 REVERT JUMPDEST PUSH0 PUSH2 0x1D07 DUP3 PUSH2 0x151E JUMP JUMPDEST SWAP2 POP PUSH2 0x1D12 DUP4 PUSH2 0x151E JUMP JUMPDEST SWAP3 POP DUP3 PUSH2 0x1D22 JUMPI PUSH2 0x1D21 PUSH2 0x1CD0 JUMP JUMPDEST JUMPDEST DUP3 DUP3 DIV SWAP1 POP SWAP3 SWAP2 POP POP JUMP JUMPDEST PUSH0 PUSH2 0x1D37 DUP3 PUSH2 0x151E JUMP JUMPDEST SWAP2 POP PUSH2 0x1D42 DUP4 PUSH2 0x151E JUMP JUMPDEST SWAP3 POP DUP3 DUP3 SUB SWAP1 POP DUP2 DUP2 GT ISZERO PUSH2 0x1D5A JUMPI PUSH2 0x1D59 PUSH2 0x1527 JUMP JUMPDEST JUMPDEST SWAP3 SWAP2 POP POP JUMP JUMPDEST PUSH0 DUP2 SWAP1 POP SWAP3 SWAP2 POP POP JUMP JUMPDEST POP JUMP JUMPDEST PUSH0 PUSH2 0x1D78 PUSH0 DUP4 PUSH2 0x1D60 JUMP JUMPDEST SWAP2 POP PUSH2 0x1D83 DUP3 PUSH2 0x1D6A JUMP JUMPDEST PUSH0 DUP3 ADD SWAP1 POP SWAP2 SWAP1 POP JUMP JUMPDEST PUSH0 PUSH2 0x1D97 DUP3 PUSH2 0x1D6D JUMP JUMPDEST SWAP2 POP DUP2 SWAP1 POP SWAP2 SWAP1 POP JUMP JUMPDEST PUSH0 PUSH1 0x40 DUP3 ADD SWAP1 POP PUSH2 0x1DB4 PUSH0 DUP4 ADD DUP6 PUSH2 0x1587 JUMP JUMPDEST PUSH2 0x1DC1 PUSH1 0x20 DUP4 ADD DUP5 PUSH2 0x1587 JUMP JUMPDEST SWAP4 SWAP3 POP POP POP JUMP JUMPDEST PUSH0 PUSH1 0x40 DUP3 ADD SWAP1 POP PUSH2 0x1DDB PUSH0 DUP4 ADD DUP6 PUSH2 0x18F7 JUMP JUMPDEST PUSH2 0x1DE8 PUSH1 0x20 DUP4 ADD DUP5 PUSH2 0x18F7 JUMP JUMPDEST SWAP4 SWAP3 POP POP POP JUMP JUMPDEST PUSH1 0x4 DUP2 LT PUSH2 0x1DFB JUMPI PUSH0 PUSH0 REVERT JUMPDEST POP JUMP JUMPDEST PUSH0 DUP2 MLOAD SWAP1 POP PUSH2 0x1E0C DUP2 PUSH2 0x1DEF JUMP JUMPDEST SWAP3 SWAP2 POP POP JUMP JUMPDEST PUSH0 PUSH1 0x20 DUP3 DUP5 SUB SLT ISZERO PUSH2 0x1E27 JUMPI PUSH2 0x1E26 PUSH2 0x15B8 JUMP JUMPDEST JUMPDEST PUSH0 PUSH2 0x1E34 DUP5 DUP3 DUP6 ADD PUSH2 0x1DFE JUMP JUMPDEST SWAP2 POP POP SWAP3 SWAP2 POP POP JUMP JUMPDEST PUSH32 0x4E487B7100000000000000000000000000000000000000000000000000000000 PUSH0 MSTORE PUSH1 0x21 PUSH1 0x4 MSTORE PUSH1 0x24 PUSH0 REVERT JUMPDEST PUSH32 0x4E487B7100000000000000000000000000000000000000000000000000000000 PUSH0 MSTORE PUSH1 0x32 PUSH1 0x4 MSTORE PUSH1 0x24 PUSH0 REVERT JUMPDEST PUSH0 PUSH2 0x1EA1 DUP3 PUSH2 0x151E JUMP JUMPDEST SWAP2 POP PUSH2 0x1EAC DUP4 PUSH2 0x151E JUMP JUMPDEST SWAP3 POP DUP3 PUSH2 0x1EBC JUMPI PUSH2 0x1EBB PUSH2 0x1CD0 JUMP JUMPDEST JUMPDEST DUP3 DUP3 MOD SWAP1 POP SWAP3 SWAP2 POP POP JUMP JUMPDEST PUSH0 PUSH2 0x1ED1 DUP3 PUSH2 0x15F5 JUMP JUMPDEST SWAP2 POP PUSH2 0x1EDC DUP4 PUSH2 0x15F5 JUMP JUMPDEST SWAP3 POP DUP3 PUSH2 0x1EEC JUMPI PUSH2 0x1EEB PUSH2 0x1CD0 JUMP JUMPDEST JUMPDEST DUP3 DUP3 MOD SWAP1 POP SWAP3 SWAP2 POP POP JUMP JUMPDEST PUSH0 PUSH1 0x80 DUP3 ADD SWAP1 POP PUSH2 0x1F0A PUSH0 DUP4 ADD DUP8 PUSH2 0x1587 JUMP JUMPDEST PUSH2 0x1F17 PUSH1 0x20 DUP4 ADD DUP7 PUSH2 0x1587 JUMP JUMPDEST PUSH2 0x1F24 PUSH1 0x40 DUP4 ADD DUP6 PUSH2 0x1915 JUMP JUMPDEST PUSH2 0x1F31 PUSH1 0x60 DUP4 ADD DUP5 PUSH2 0x1906 JUMP JUMPDEST SWAP6 SWAP5 POP POP POP POP POP JUMP INVALID LOG2 PUSH5 0x6970667358 0x22 SLT KECCAK256 SGT PUSH26 0x91C535B34F5E490ED07F9C4BC19DD3580CAA467EF7DDD3513930 CREATE2 DATALOADN 0x1621 PUSH5 0x736F6C6343 STOP ADDMOD SAR STOP CALLER "
		},
		"gasEstimates": {
			"creation": {
				"codeDepositCost": "1609600",
				"executionCost": "infinite",
				"totalCost": "infinite"
			},
			"external": {
				"SetLimits(uint256,uint256)": "infinite",
				"bets(uint256)": "infinite",
				"getVipBenefits(address)": "infinite",
				"houseBank()": "2448",
				"houseFee()": "2471",
				"maxBet()": "2470",
				"minBet()": "2492",
				"owner()": "2559",
				"placeMultiBet(bool,uint8,bool,bool,bool,bool,bool)": "infinite",
				"rawFulfillRandomWords(uint256,uint256[])": "infinite",
				"renounceOwnership()": "infinite",
				"transferOwnership(address)": "infinite",
				"vipNft()": "infinite",
				"withdraw(address,uint256)": "infinite"
			},
			"internal": {
				"fulfillRandomWords(uint256,uint256[] memory)": "infinite"
			}
		},
		"methodIdentifiers": {
			"SetLimits(uint256,uint256)": "6edefa10",
			"bets(uint256)": "22af00fa",
			"getVipBenefits(address)": "dd8039c9",
			"houseBank()": "82df1639",
			"houseFee()": "0ed469b8",
			"maxBet()": "2e5b2168",
			"minBet()": "9619367d",
			"owner()": "8da5cb5b",
			"placeMultiBet(bool,uint8,bool,bool,bool,bool,bool)": "0c30f0f9",
			"rawFulfillRandomWords(uint256,uint256[])": "1fe543e3",
			"renounceOwnership()": "715018a6",
			"transferOwnership(address)": "f2fde38b",
			"vipNft()": "9a6f5ac3",
			"withdraw(address,uint256)": "f3fef3a3"
		}
	},
	"abi": [
		{
			"inputs": [
				{
					"internalType": "uint64",
					"name": "_subscriptionId",
					"type": "uint64"
				},
				{
					"internalType": "address",
					"name": "_vipNFT",
					"type": "address"
				}
			],
			"stateMutability": "nonpayable",
			"type": "constructor"
		},
		{
			"inputs": [],
			"name": "BetExceedsMaximum",
			"type": "error"
		},
		{
			"inputs": [],
			"name": "BetIsBelowMinimum",
			"type": "error"
		},
		{
			"inputs": [],
			"name": "CannotBetOnBothEVENAndODD",
			"type": "error"
		},
		{
			"inputs": [],
			"name": "CannotBetOnColorAndGreenSimultaneously",
			"type": "error"
		},
		{
			"inputs": [],
			"name": "CashBackTransferFailed",
			"type": "error"
		},
		{
			"inputs": [],
			"name": "InsufficientBank",
			"type": "error"
		},
		{
			"inputs": [],
			"name": "InvalidBetLimits",
			"type": "error"
		},
		{
			"inputs": [],
			"name": "InvalidNum",
			"type": "error"
		},
		{
			"inputs": [],
			"name": "MinimumBetMustBeLessThanMaximumBet",
			"type": "error"
		},
		{
			"inputs": [],
			"name": "NotEnoughFundsInHouseBank",
			"type": "error"
		},
		{
			"inputs": [
				{
					"internalType": "address",
					"name": "have",
					"type": "address"
				},
				{
					"internalType": "address",
					"name": "want",
					"type": "address"
				}
			],
			"name": "OnlyCoordinatorCanFulfill",
			"type": "error"
		},
		{
			"inputs": [
				{
					"internalType": "address",
					"name": "owner",
					"type": "address"
				}
			],
			"name": "OwnableInvalidOwner",
			"type": "error"
		},
		{
			"inputs": [
				{
					"internalType": "address",
					"name": "account",
					"type": "address"
				}
			],
			"name": "OwnableUnauthorizedAccount",
			"type": "error"
		},
		{
			"inputs": [],
			"name": "TransferFailed",
			"type": "error"
		},
		{
			"inputs": [],
			"name": "WithdrawFailed",
			"type": "error"
		},
		{
			"anonymous": false,
			"inputs": [
				{
					"indexed": false,
					"internalType": "uint256",
					"name": "requestId",
					"type": "uint256"
				},
				{
					"indexed": true,
					"internalType": "address",
					"name": "player",
					"type": "address"
				},
				{
					"indexed": false,
					"internalType": "uint256",
					"name": "amount",
					"type": "uint256"
				}
			],
			"name": "BetPlaced",
			"type": "event"
		},
		{
			"anonymous": false,
			"inputs": [
				{
					"indexed": false,
					"internalType": "uint256",
					"name": "requestId",
					"type": "uint256"
				},
				{
					"indexed": true,
					"internalType": "address",
					"name": "player",
					"type": "address"
				},
				{
					"indexed": false,
					"internalType": "uint256",
					"name": "amount",
					"type": "uint256"
				},
				{
					"indexed": false,
					"internalType": "uint8",
					"name": "winningNumber",
					"type": "uint8"
				},
				{
					"indexed": false,
					"internalType": "bool",
					"name": "win",
					"type": "bool"
				}
			],
			"name": "GameResult",
			"type": "event"
		},
		{
			"anonymous": false,
			"inputs": [
				{
					"indexed": false,
					"internalType": "uint256",
					"name": "newBalance",
					"type": "uint256"
				}
			],
			"name": "HouseBankUpdated",
			"type": "event"
		},
		{
			"anonymous": false,
			"inputs": [
				{
					"indexed": true,
					"internalType": "address",
					"name": "previousOwner",
					"type": "address"
				},
				{
					"indexed": true,
					"internalType": "address",
					"name": "newOwner",
					"type": "address"
				}
			],
			"name": "OwnershipTransferred",
			"type": "event"
		},
		{
			"inputs": [
				{
					"internalType": "uint256",
					"name": "_min",
					"type": "uint256"
				},
				{
					"internalType": "uint256",
					"name": "_max",
					"type": "uint256"
				}
			],
			"name": "SetLimits",
			"outputs": [],
			"stateMutability": "nonpayable",
			"type": "function"
		},
		{
			"inputs": [
				{
					"internalType": "uint256",
					"name": "",
					"type": "uint256"
				}
			],
			"name": "bets",
			"outputs": [
				{
					"internalType": "address",
					"name": "player",
					"type": "address"
				},
				{
					"internalType": "uint256",
					"name": "amount",
					"type": "uint256"
				},
				{
					"internalType": "bool",
					"name": "betOnNumber",
					"type": "bool"
				},
				{
					"internalType": "uint8",
					"name": "number",
					"type": "uint8"
				},
				{
					"internalType": "bool",
					"name": "betOnColor",
					"type": "bool"
				},
				{
					"internalType": "bool",
					"name": "color",
					"type": "bool"
				},
				{
					"internalType": "bool",
					"name": "betOnGreen",
					"type": "bool"
				},
				{
					"internalType": "bool",
					"name": "betOnEven",
					"type": "bool"
				},
				{
					"internalType": "bool",
					"name": "betOnOdd",
					"type": "bool"
				}
			],
			"stateMutability": "view",
			"type": "function"
		},
		{
			"inputs": [
				{
					"internalType": "address",
					"name": "player",
					"type": "address"
				}
			],
			"name": "getVipBenefits",
			"outputs": [
				{
					"internalType": "uint256",
					"name": "",
					"type": "uint256"
				},
				{
					"internalType": "uint256",
					"name": "",
					"type": "uint256"
				},
				{
					"internalType": "uint256",
					"name": "",
					"type": "uint256"
				},
				{
					"internalType": "uint256",
					"name": "",
					"type": "uint256"
				}
			],
			"stateMutability": "view",
			"type": "function"
		},
		{
			"inputs": [],
			"name": "houseBank",
			"outputs": [
				{
					"internalType": "uint256",
					"name": "",
					"type": "uint256"
				}
			],
			"stateMutability": "view",
			"type": "function"
		},
		{
			"inputs": [],
			"name": "houseFee",
			"outputs": [
				{
					"internalType": "uint256",
					"name": "",
					"type": "uint256"
				}
			],
			"stateMutability": "view",
			"type": "function"
		},
		{
			"inputs": [],
			"name": "maxBet",
			"outputs": [
				{
					"internalType": "uint256",
					"name": "",
					"type": "uint256"
				}
			],
			"stateMutability": "view",
			"type": "function"
		},
		{
			"inputs": [],
			"name": "minBet",
			"outputs": [
				{
					"internalType": "uint256",
					"name": "",
					"type": "uint256"
				}
			],
			"stateMutability": "view",
			"type": "function"
		},
		{
			"inputs": [],
			"name": "owner",
			"outputs": [
				{
					"internalType": "address",
					"name": "",
					"type": "address"
				}
			],
			"stateMutability": "view",
			"type": "function"
		},
		{
			"inputs": [
				{
					"internalType": "bool",
					"name": "betOnNumber",
					"type": "bool"
				},
				{
					"internalType": "uint8",
					"name": "number",
					"type": "uint8"
				},
				{
					"internalType": "bool",
					"name": "betOnColor",
					"type": "bool"
				},
				{
					"internalType": "bool",
					"name": "color",
					"type": "bool"
				},
				{
					"internalType": "bool",
					"name": "betOnGreen",
					"type": "bool"
				},
				{
					"internalType": "bool",
					"name": "betOnEven",
					"type": "bool"
				},
				{
					"internalType": "bool",
					"name": "betOnOdd",
					"type": "bool"
				}
			],
			"name": "placeMultiBet",
			"outputs": [],
			"stateMutability": "payable",
			"type": "function"
		},
		{
			"inputs": [
				{
					"internalType": "uint256",
					"name": "requestId",
					"type": "uint256"
				},
				{
					"internalType": "uint256[]",
					"name": "randomWords",
					"type": "uint256[]"
				}
			],
			"name": "rawFulfillRandomWords",
			"outputs": [],
			"stateMutability": "nonpayable",
			"type": "function"
		},
		{
			"inputs": [],
			"name": "renounceOwnership",
			"outputs": [],
			"stateMutability": "nonpayable",
			"type": "function"
		},
		{
			"inputs": [
				{
					"internalType": "address",
					"name": "newOwner",
					"type": "address"
				}
			],
			"name": "transferOwnership",
			"outputs": [],
			"stateMutability": "nonpayable",
			"type": "function"
		},
		{
			"inputs": [],
			"name": "vipNft",
			"outputs": [
				{
					"internalType": "contract VipNFT",
					"name": "",
					"type": "address"
				}
			],
			"stateMutability": "view",
			"type": "function"
		},
		{
			"inputs": [
				{
					"internalType": "address payable",
					"name": "_to",
					"type": "address"
				},
				{
					"internalType": "uint256",
					"name": "amount",
					"type": "uint256"
				}
			],
			"name": "withdraw",
			"outputs": [],
			"stateMutability": "nonpayable",
			"type": "function"
		},
		{
			"stateMutability": "payable",
			"type": "receive"
		}
	]
}