{
	"contracts/Token.sol": {
		"Roulette": {
			"abi": [
				{
					"inputs": [
						{
							"internalType": "uint64",
							"name": "_subscriptionId",
							"type": "uint64"
						}
					],
					"stateMutability": "nonpayable",
					"type": "constructor"
				},
				{
					"inputs": [
						{
							"internalType": "address",
							"name": "have",
							"type": "address"
						},
						{
							"internalType": "address",
							"name": "want",
							"type": "address"
						}
					],
					"name": "OnlyCoordinatorCanFulfill",
					"type": "error"
				},
				{
					"anonymous": false,
					"inputs": [
						{
							"indexed": false,
							"internalType": "uint256",
							"name": "requestId",
							"type": "uint256"
						},
						{
							"indexed": false,
							"internalType": "address",
							"name": "player",
							"type": "address"
						},
						{
							"indexed": false,
							"internalType": "uint256",
							"name": "amount",
							"type": "uint256"
						},
						{
							"indexed": false,
							"internalType": "enum Roulette.BetType",
							"name": "betType",
							"type": "uint8"
						},
						{
							"indexed": false,
							"internalType": "uint8",
							"name": "number",
							"type": "uint8"
						},
						{
							"indexed": false,
							"internalType": "bool",
							"name": "color",
							"type": "bool"
						}
					],
					"name": "BetPlaced",
					"type": "event"
				},
				{
					"anonymous": false,
					"inputs": [
						{
							"indexed": false,
							"internalType": "uint256",
							"name": "requestId",
							"type": "uint256"
						},
						{
							"indexed": false,
							"internalType": "address",
							"name": "player",
							"type": "address"
						},
						{
							"indexed": false,
							"internalType": "uint256",
							"name": "amount",
							"type": "uint256"
						},
						{
							"indexed": false,
							"internalType": "uint8",
							"name": "winningNumber",
							"type": "uint8"
						},
						{
							"indexed": false,
							"internalType": "bool",
							"name": "win",
							"type": "bool"
						}
					],
					"name": "GameResult",
					"type": "event"
				},
				{
					"inputs": [
						{
							"internalType": "uint256",
							"name": "",
							"type": "uint256"
						}
					],
					"name": "bets",
					"outputs": [
						{
							"internalType": "address",
							"name": "player",
							"type": "address"
						},
						{
							"internalType": "uint256",
							"name": "amount",
							"type": "uint256"
						},
						{
							"internalType": "enum Roulette.BetType",
							"name": "betType",
							"type": "uint8"
						},
						{
							"internalType": "uint8",
							"name": "number",
							"type": "uint8"
						},
						{
							"internalType": "bool",
							"name": "color",
							"type": "bool"
						}
					],
					"stateMutability": "view",
					"type": "function"
				},
				{
					"inputs": [
						{
							"internalType": "bool",
							"name": "color",
							"type": "bool"
						}
					],
					"name": "placeBetColor",
					"outputs": [],
					"stateMutability": "payable",
					"type": "function"
				},
				{
					"inputs": [],
					"name": "placeBetEVEN",
					"outputs": [],
					"stateMutability": "payable",
					"type": "function"
				},
				{
					"inputs": [],
					"name": "placeBetGreen",
					"outputs": [],
					"stateMutability": "payable",
					"type": "function"
				},
				{
					"inputs": [
						{
							"internalType": "uint8",
							"name": "number",
							"type": "uint8"
						}
					],
					"name": "placeBetNumber",
					"outputs": [],
					"stateMutability": "payable",
					"type": "function"
				},
				{
					"inputs": [],
					"name": "placeBetODD",
					"outputs": [],
					"stateMutability": "payable",
					"type": "function"
				},
				{
					"inputs": [
						{
							"internalType": "uint256",
							"name": "requestId",
							"type": "uint256"
						},
						{
							"internalType": "uint256[]",
							"name": "randomWords",
							"type": "uint256[]"
						}
					],
					"name": "rawFulfillRandomWords",
					"outputs": [],
					"stateMutability": "nonpayable",
					"type": "function"
				},
				{
					"stateMutability": "payable",
					"type": "receive"
				}
			],
			"devdoc": {
				"kind": "dev",
				"methods": {},
				"version": 1
			},
			"evm": {
				"assembly": "    /* \"contracts/Token.sol\":216:5209  contract Roulette is VRFConsumerBaseV2 {... */\n  mstore(0x40, 0xa0)\n    /* \"contracts/Token.sol\":361:403  0x8103B0A8A00be2DDC778e6e7eaa21791Cd364625 */\n  0x8103b0a8a00be2ddc778e6e7eaa21791cd364625\n    /* \"contracts/Token.sol\":336:403  address vrfCoordinator = 0x8103B0A8A00be2DDC778e6e7eaa21791Cd364625 */\n  0x01\n  exp(0x0100, 0x00)\n  dup2\n  sload\n  dup2\n  0xffffffffffffffffffffffffffffffffffffffff\n  mul\n  not\n  and\n  swap1\n  dup4\n  0xffffffffffffffffffffffffffffffffffffffff\n  and\n  mul\n  or\n  swap1\n  sstore\n  pop\n    /* \"contracts/Token.sol\":429:495  0x474e34a077df58807dbe9c96d3c009b23b3c6d0cce433e59bbf5b34f823bc56c */\n  0x474e34a077df58807dbe9c96d3c009b23b3c6d0cce433e59bbf5b34f823bc56c\n    /* \"contracts/Token.sol\":411:495  bytes32 keyHash = 0x474e34a077df58807dbe9c96d3c009b23b3c6d0cce433e59bbf5b34f823bc56c */\n  0x00\n  shl\n  0x02\n  sstore\n    /* \"contracts/Token.sol\":528:534  200000 */\n  0x030d40\n    /* \"contracts/Token.sol\":502:534  uint32 callbackGasLimit = 200000 */\n  0x03\n  exp(0x0100, 0x00)\n  dup2\n  sload\n  dup2\n  0xffffffff\n  mul\n  not\n  and\n  swap1\n  dup4\n  0xffffffff\n  and\n  mul\n  or\n  swap1\n  sstore\n  pop\n    /* \"contracts/Token.sol\":571:572  3 */\n  0x03\n    /* \"contracts/Token.sol\":541:572  uint16 requestConfirmations = 3 */\n  dup1\n  exp(0x0100, 0x04)\n  dup2\n  sload\n  dup2\n  0xffff\n  mul\n  not\n  and\n  swap1\n  dup4\n  0xffff\n  and\n  mul\n  or\n  swap1\n  sstore\n  pop\n    /* \"contracts/Token.sol\":598:599  1 */\n  0x01\n    /* \"contracts/Token.sol\":579:599  uint32 numWords =  1 */\n  0x03\n  exp(0x0100, 0x06)\n  dup2\n  sload\n  dup2\n  0xffffffff\n  mul\n  not\n  and\n  swap1\n  dup4\n  0xffffffff\n  and\n  mul\n  or\n  swap1\n  sstore\n  pop\n    /* \"contracts/Token.sol\":1076:1263  constructor(uint64 _subscriptionId) VRFConsumerBaseV2(vrfCoordinator) {... */\n  callvalue\n  dup1\n  iszero\n  tag_1\n  jumpi\n  revert(0x00, 0x00)\ntag_1:\n  pop\n  mload(0x40)\n  sub(codesize, bytecodeSize)\n  dup1\n  bytecodeSize\n  dup4\n  codecopy\n  dup2\n  dup2\n  add\n  0x40\n  mstore\n  dup2\n  add\n  swap1\n  tag_2\n  swap2\n  swap1\n  tag_3\n  jump\t// in\ntag_2:\n    /* \"contracts/Token.sol\":1130:1144  vrfCoordinator */\n  0x01\n  0x00\n  swap1\n  sload\n  swap1\n  0x0100\n  exp\n  swap1\n  div\n  0xffffffffffffffffffffffffffffffffffffffff\n  and\n    /* \"@chainlink/contracts/src/v0.8/vrf/VRFConsumerBaseV2.sol\":5700:5715  _vrfCoordinator */\n  dup1\n    /* \"@chainlink/contracts/src/v0.8/vrf/VRFConsumerBaseV2.sol\":5683:5715  vrfCoordinator = _vrfCoordinator */\n  0xffffffffffffffffffffffffffffffffffffffff\n  and\n  0x80\n  dup2\n  0xffffffffffffffffffffffffffffffffffffffff\n  and\n  dup2\n  mstore\n  pop\n  pop\n    /* \"@chainlink/contracts/src/v0.8/vrf/VRFConsumerBaseV2.sol\":5640:5720  constructor(address _vrfCoordinator) {... */\n  pop\n    /* \"contracts/Token.sol\":1197:1211  vrfCoordinator */\n  0x01\n  0x00\n  swap1\n  sload\n  swap1\n  0x0100\n  exp\n  swap1\n  div\n  0xffffffffffffffffffffffffffffffffffffffff\n  and\n    /* \"contracts/Token.sol\":1157:1168  COORDINATOR */\n  0x00\n  0x00\n    /* \"contracts/Token.sol\":1157:1212  COORDINATOR = VRFCoordinatorV2Interface(vrfCoordinator) */\n  0x0100\n  exp\n  dup2\n  sload\n  dup2\n  0xffffffffffffffffffffffffffffffffffffffff\n  mul\n  not\n  and\n  swap1\n  dup4\n  0xffffffffffffffffffffffffffffffffffffffff\n  and\n  mul\n  or\n  swap1\n  sstore\n  pop\n    /* \"contracts/Token.sol\":1240:1255  _subscriptionId */\n  dup1\n    /* \"contracts/Token.sol\":1223:1237  subscriptionId */\n  0x00\n  0x14\n    /* \"contracts/Token.sol\":1223:1255  subscriptionId = _subscriptionId */\n  0x0100\n  exp\n  dup2\n  sload\n  dup2\n  0xffffffffffffffff\n  mul\n  not\n  and\n  swap1\n  dup4\n  0xffffffffffffffff\n  and\n  mul\n  or\n  swap1\n  sstore\n  pop\n    /* \"contracts/Token.sol\":1076:1263  constructor(uint64 _subscriptionId) VRFConsumerBaseV2(vrfCoordinator) {... */\n  pop\n    /* \"contracts/Token.sol\":216:5209  contract Roulette is VRFConsumerBaseV2 {... */\n  jump(tag_8)\n    /* \"#utility.yul\":88:205   */\ntag_10:\n    /* \"#utility.yul\":197:198   */\n  0x00\n    /* \"#utility.yul\":194:195   */\n  0x00\n    /* \"#utility.yul\":187:199   */\n  revert\n    /* \"#utility.yul\":334:435   */\ntag_12:\n    /* \"#utility.yul\":370:377   */\n  0x00\n    /* \"#utility.yul\":410:428   */\n  0xffffffffffffffff\n    /* \"#utility.yul\":403:408   */\n  dup3\n    /* \"#utility.yul\":399:429   */\n  and\n    /* \"#utility.yul\":388:429   */\n  swap1\n  pop\n    /* \"#utility.yul\":334:435   */\n  swap2\n  swap1\n  pop\n  jump\t// out\n    /* \"#utility.yul\":441:561   */\ntag_13:\n    /* \"#utility.yul\":513:536   */\n  tag_21\n    /* \"#utility.yul\":530:535   */\n  dup2\n    /* \"#utility.yul\":513:536   */\n  tag_12\n  jump\t// in\ntag_21:\n    /* \"#utility.yul\":506:511   */\n  dup2\n    /* \"#utility.yul\":503:537   */\n  eq\n    /* \"#utility.yul\":493:555   */\n  tag_22\n  jumpi\n    /* \"#utility.yul\":551:552   */\n  0x00\n    /* \"#utility.yul\":548:549   */\n  0x00\n    /* \"#utility.yul\":541:553   */\n  revert\n    /* \"#utility.yul\":493:555   */\ntag_22:\n    /* \"#utility.yul\":441:561   */\n  pop\n  jump\t// out\n    /* \"#utility.yul\":567:708   */\ntag_14:\n    /* \"#utility.yul\":623:628   */\n  0x00\n    /* \"#utility.yul\":654:660   */\n  dup2\n    /* \"#utility.yul\":648:661   */\n  mload\n    /* \"#utility.yul\":639:661   */\n  swap1\n  pop\n    /* \"#utility.yul\":670:702   */\n  tag_24\n    /* \"#utility.yul\":696:701   */\n  dup2\n    /* \"#utility.yul\":670:702   */\n  tag_13\n  jump\t// in\ntag_24:\n    /* \"#utility.yul\":567:708   */\n  swap3\n  swap2\n  pop\n  pop\n  jump\t// out\n    /* \"#utility.yul\":714:1063   */\ntag_3:\n    /* \"#utility.yul\":783:789   */\n  0x00\n    /* \"#utility.yul\":832:834   */\n  0x20\n    /* \"#utility.yul\":820:829   */\n  dup3\n    /* \"#utility.yul\":811:818   */\n  dup5\n    /* \"#utility.yul\":807:830   */\n  sub\n    /* \"#utility.yul\":803:835   */\n  slt\n    /* \"#utility.yul\":800:919   */\n  iszero\n  tag_26\n  jumpi\n    /* \"#utility.yul\":838:917   */\n  tag_27\n  tag_10\n  jump\t// in\ntag_27:\n    /* \"#utility.yul\":800:919   */\ntag_26:\n    /* \"#utility.yul\":958:959   */\n  0x00\n    /* \"#utility.yul\":983:1046   */\n  tag_28\n    /* \"#utility.yul\":1038:1045   */\n  dup5\n    /* \"#utility.yul\":1029:1035   */\n  dup3\n    /* \"#utility.yul\":1018:1027   */\n  dup6\n    /* \"#utility.yul\":1014:1036   */\n  add\n    /* \"#utility.yul\":983:1046   */\n  tag_14\n  jump\t// in\ntag_28:\n    /* \"#utility.yul\":973:1046   */\n  swap2\n  pop\n    /* \"#utility.yul\":929:1056   */\n  pop\n    /* \"#utility.yul\":714:1063   */\n  swap3\n  swap2\n  pop\n  pop\n  jump\t// out\n    /* \"contracts/Token.sol\":216:5209  contract Roulette is VRFConsumerBaseV2 {... */\ntag_8:\n  mload(0x80)\n  codecopy(0x00, dataOffset(sub_0), dataSize(sub_0))\n  0x00\n  assignImmutable(\"0x1a192fabce13988b84994d4296e6cdc418d55e2f1d7f942188d4040b94fc57ac\")\n  return(0x00, dataSize(sub_0))\nstop\n\nsub_0: assembly {\n        /* \"contracts/Token.sol\":216:5209  contract Roulette is VRFConsumerBaseV2 {... */\n      mstore(0x40, 0x80)\n      jumpi(tag_1, lt(calldatasize, 0x04))\n      shr(0xe0, calldataload(0x00))\n      dup1\n      0x5c70b561\n      gt\n      tag_10\n      jumpi\n      dup1\n      0x5c70b561\n      eq\n      tag_6\n      jumpi\n      dup1\n      0x7f1bbfd3\n      eq\n      tag_7\n      jumpi\n      dup1\n      0xa9b67bf1\n      eq\n      tag_8\n      jumpi\n      dup1\n      0xb996b99c\n      eq\n      tag_9\n      jumpi\n      jump(tag_2)\n    tag_10:\n      dup1\n      0x1f5390fe\n      eq\n      tag_3\n      jumpi\n      dup1\n      0x1fe543e3\n      eq\n      tag_4\n      jumpi\n      dup1\n      0x22af00fa\n      eq\n      tag_5\n      jumpi\n      jump(tag_2)\n    tag_1:\n      jumpi(tag_2, calldatasize)\n      stop\n    tag_2:\n      revert(0x00, 0x00)\n        /* \"contracts/Token.sol\":2358:2851  function placeBetGreen() external payable {... */\n    tag_3:\n      tag_13\n      tag_14\n      jump\t// in\n    tag_13:\n      stop\n        /* \"@chainlink/contracts/src/v0.8/vrf/VRFConsumerBaseV2.sol\":6794:7050  function rawFulfillRandomWords(uint256 requestId, uint256[] memory randomWords) external {... */\n    tag_4:\n      callvalue\n      dup1\n      iszero\n      tag_15\n      jumpi\n      revert(0x00, 0x00)\n    tag_15:\n      pop\n      tag_16\n      0x04\n      dup1\n      calldatasize\n      sub\n      dup2\n      add\n      swap1\n      tag_17\n      swap2\n      swap1\n      tag_18\n      jump\t// in\n    tag_17:\n      tag_19\n      jump\t// in\n    tag_16:\n      stop\n        /* \"contracts/Token.sol\":809:844  mapping(uint256 => Bet) public bets */\n    tag_5:\n      callvalue\n      dup1\n      iszero\n      tag_20\n      jumpi\n      revert(0x00, 0x00)\n    tag_20:\n      pop\n      tag_21\n      0x04\n      dup1\n      calldatasize\n      sub\n      dup2\n      add\n      swap1\n      tag_22\n      swap2\n      swap1\n      tag_23\n      jump\t// in\n    tag_22:\n      tag_24\n      jump\t// in\n    tag_21:\n      mload(0x40)\n      tag_25\n      swap6\n      swap5\n      swap4\n      swap3\n      swap2\n      swap1\n      tag_26\n      jump\t// in\n    tag_25:\n      mload(0x40)\n      dup1\n      swap2\n      sub\n      swap1\n      return\n        /* \"contracts/Token.sol\":1271:1839  function placeBetNumber(uint8 number) external payable {... */\n    tag_6:\n      tag_27\n      0x04\n      dup1\n      calldatasize\n      sub\n      dup2\n      add\n      swap1\n      tag_28\n      swap2\n      swap1\n      tag_29\n      jump\t// in\n    tag_28:\n      tag_30\n      jump\t// in\n    tag_27:\n      stop\n        /* \"contracts/Token.sol\":3357:3844  function placeBetODD() external payable {... */\n    tag_7:\n      tag_31\n      tag_32\n      jump\t// in\n    tag_31:\n      stop\n        /* \"contracts/Token.sol\":2859:3349  function placeBetEVEN() external payable {... */\n    tag_8:\n      tag_33\n      tag_34\n      jump\t// in\n    tag_33:\n      stop\n        /* \"contracts/Token.sol\":1847:2350  function placeBetColor(bool color) external payable {... */\n    tag_9:\n      tag_35\n      0x04\n      dup1\n      calldatasize\n      sub\n      dup2\n      add\n      swap1\n      tag_36\n      swap2\n      swap1\n      tag_37\n      jump\t// in\n    tag_36:\n      tag_38\n      jump\t// in\n    tag_35:\n      stop\n        /* \"contracts/Token.sol\":2358:2851  function placeBetGreen() external payable {... */\n    tag_14:\n        /* \"contracts/Token.sol\":2431:2432  0 */\n      0x00\n        /* \"contracts/Token.sol\":2419:2428  msg.value */\n      callvalue\n        /* \"contracts/Token.sol\":2419:2432  msg.value > 0 */\n      gt\n        /* \"contracts/Token.sol\":2411:2463  require(msg.value > 0, \"Bet must be greater than 0\") */\n      tag_40\n      jumpi\n      mload(0x40)\n      0x08c379a000000000000000000000000000000000000000000000000000000000\n      dup2\n      mstore\n      0x04\n      add\n      tag_41\n      swap1\n      tag_42\n      jump\t// in\n    tag_41:\n      mload(0x40)\n      dup1\n      swap2\n      sub\n      swap1\n      revert\n    tag_40:\n        /* \"contracts/Token.sol\":2476:2493  uint256 requestId */\n      0x00\n        /* \"contracts/Token.sol\":2496:2507  COORDINATOR */\n      0x00\n      0x00\n      swap1\n      sload\n      swap1\n      0x0100\n      exp\n      swap1\n      div\n      0xffffffffffffffffffffffffffffffffffffffff\n      and\n        /* \"contracts/Token.sol\":2496:2526  COORDINATOR.requestRandomWords */\n      0xffffffffffffffffffffffffffffffffffffffff\n      and\n      0x5d3b1d30\n        /* \"contracts/Token.sol\":2541:2548  keyHash */\n      sload(0x02)\n        /* \"contracts/Token.sol\":2563:2577  subscriptionId */\n      0x00\n      0x14\n      swap1\n      sload\n      swap1\n      0x0100\n      exp\n      swap1\n      div\n      0xffffffffffffffff\n      and\n        /* \"contracts/Token.sol\":2592:2612  requestConfirmations */\n      0x03\n      0x04\n      swap1\n      sload\n      swap1\n      0x0100\n      exp\n      swap1\n      div\n      0xffff\n      and\n        /* \"contracts/Token.sol\":2627:2643  callbackGasLimit */\n      0x03\n      0x00\n      swap1\n      sload\n      swap1\n      0x0100\n      exp\n      swap1\n      div\n      0xffffffff\n      and\n        /* \"contracts/Token.sol\":2658:2666  numWords */\n      0x03\n      0x06\n      swap1\n      sload\n      swap1\n      0x0100\n      exp\n      swap1\n      div\n      0xffffffff\n      and\n        /* \"contracts/Token.sol\":2496:2677  COORDINATOR.requestRandomWords(... */\n      mload(0x40)\n      dup7\n      0xffffffff\n      and\n      0xe0\n      shl\n      dup2\n      mstore\n      0x04\n      add\n      tag_43\n      swap6\n      swap5\n      swap4\n      swap3\n      swap2\n      swap1\n      tag_44\n      jump\t// in\n    tag_43:\n      0x20\n      mload(0x40)\n      dup1\n      dup4\n      sub\n      dup2\n      0x00\n      dup8\n      gas\n      call\n      iszero\n      dup1\n      iszero\n      tag_46\n      jumpi\n      returndatacopy(0x00, 0x00, returndatasize)\n      revert(0x00, returndatasize)\n    tag_46:\n      pop\n      pop\n      pop\n      pop\n      mload(0x40)\n      returndatasize\n      not(0x1f)\n      0x1f\n      dup3\n      add\n      and\n      dup3\n      add\n      dup1\n      0x40\n      mstore\n      pop\n      dup2\n      add\n      swap1\n      tag_47\n      swap2\n      swap1\n      tag_48\n      jump\t// in\n    tag_47:\n        /* \"contracts/Token.sol\":2476:2677  uint256 requestId = COORDINATOR.requestRandomWords(... */\n      swap1\n      pop\n        /* \"contracts/Token.sol\":2708:2759  Bet(msg.sender, msg.value, BetType.GREEN, 0, false) */\n      mload(0x40)\n      dup1\n      0xa0\n      add\n      0x40\n      mstore\n      dup1\n        /* \"contracts/Token.sol\":2712:2722  msg.sender */\n      caller\n        /* \"contracts/Token.sol\":2708:2759  Bet(msg.sender, msg.value, BetType.GREEN, 0, false) */\n      0xffffffffffffffffffffffffffffffffffffffff\n      and\n      dup2\n      mstore\n      0x20\n      add\n        /* \"contracts/Token.sol\":2724:2733  msg.value */\n      callvalue\n        /* \"contracts/Token.sol\":2708:2759  Bet(msg.sender, msg.value, BetType.GREEN, 0, false) */\n      dup2\n      mstore\n      0x20\n      add\n        /* \"contracts/Token.sol\":2735:2748  BetType.GREEN */\n      0x02\n        /* \"contracts/Token.sol\":2708:2759  Bet(msg.sender, msg.value, BetType.GREEN, 0, false) */\n      0x04\n      dup2\n      gt\n      iszero\n      tag_49\n      jumpi\n      tag_50\n      tag_51\n      jump\t// in\n    tag_50:\n    tag_49:\n      dup2\n      mstore\n      0x20\n      add\n        /* \"contracts/Token.sol\":2750:2751  0 */\n      0x00\n        /* \"contracts/Token.sol\":2708:2759  Bet(msg.sender, msg.value, BetType.GREEN, 0, false) */\n      0xff\n      and\n      dup2\n      mstore\n      0x20\n      add\n        /* \"contracts/Token.sol\":2753:2758  false */\n      0x00\n        /* \"contracts/Token.sol\":2708:2759  Bet(msg.sender, msg.value, BetType.GREEN, 0, false) */\n      iszero\n      iszero\n      dup2\n      mstore\n      pop\n        /* \"contracts/Token.sol\":2690:2694  bets */\n      0x04\n        /* \"contracts/Token.sol\":2690:2705  bets[requestId] */\n      0x00\n        /* \"contracts/Token.sol\":2695:2704  requestId */\n      dup4\n        /* \"contracts/Token.sol\":2690:2705  bets[requestId] */\n      dup2\n      mstore\n      0x20\n      add\n      swap1\n      dup2\n      mstore\n      0x20\n      add\n      0x00\n      keccak256\n        /* \"contracts/Token.sol\":2690:2759  bets[requestId] = Bet(msg.sender, msg.value, BetType.GREEN, 0, false) */\n      0x00\n      dup3\n      add\n      mload\n      dup2\n      0x00\n      add\n      exp(0x0100, 0x00)\n      dup2\n      sload\n      dup2\n      0xffffffffffffffffffffffffffffffffffffffff\n      mul\n      not\n      and\n      swap1\n      dup4\n      0xffffffffffffffffffffffffffffffffffffffff\n      and\n      mul\n      or\n      swap1\n      sstore\n      pop\n      0x20\n      dup3\n      add\n      mload\n      dup2\n      0x01\n      add\n      sstore\n      0x40\n      dup3\n      add\n      mload\n      dup2\n      0x02\n      add\n      exp(0x0100, 0x00)\n      dup2\n      sload\n      dup2\n      0xff\n      mul\n      not\n      and\n      swap1\n      dup4\n      0x04\n      dup2\n      gt\n      iszero\n      tag_52\n      jumpi\n      tag_53\n      tag_51\n      jump\t// in\n    tag_53:\n    tag_52:\n      mul\n      or\n      swap1\n      sstore\n      pop\n      0x60\n      dup3\n      add\n      mload\n      dup2\n      0x02\n      add\n      exp(0x0100, 0x01)\n      dup2\n      sload\n      dup2\n      0xff\n      mul\n      not\n      and\n      swap1\n      dup4\n      0xff\n      and\n      mul\n      or\n      swap1\n      sstore\n      pop\n      0x80\n      dup3\n      add\n      mload\n      dup2\n      0x02\n      add\n      exp(0x0100, 0x02)\n      dup2\n      sload\n      dup2\n      0xff\n      mul\n      not\n      and\n      swap1\n      dup4\n      iszero\n      iszero\n      mul\n      or\n      swap1\n      sstore\n      pop\n      swap1\n      pop\n      pop\n        /* \"contracts/Token.sol\":2775:2843  BetPlaced(requestId, msg.sender, msg.value, BetType.GREEN, 0, false) */\n      0x541cf68fcba3379a00d80d5cd28d5ba5a9eadd91f8f573f962eb3b7ef598bad2\n        /* \"contracts/Token.sol\":2785:2794  requestId */\n      dup2\n        /* \"contracts/Token.sol\":2796:2806  msg.sender */\n      caller\n        /* \"contracts/Token.sol\":2808:2817  msg.value */\n      callvalue\n        /* \"contracts/Token.sol\":2819:2832  BetType.GREEN */\n      0x02\n        /* \"contracts/Token.sol\":2834:2835  0 */\n      0x00\n        /* \"contracts/Token.sol\":2837:2842  false */\n      0x00\n        /* \"contracts/Token.sol\":2775:2843  BetPlaced(requestId, msg.sender, msg.value, BetType.GREEN, 0, false) */\n      mload(0x40)\n      tag_54\n      swap7\n      swap6\n      swap5\n      swap4\n      swap3\n      swap2\n      swap1\n      tag_55\n      jump\t// in\n    tag_54:\n      mload(0x40)\n      dup1\n      swap2\n      sub\n      swap1\n      log1\n        /* \"contracts/Token.sol\":2400:2851  {... */\n      pop\n        /* \"contracts/Token.sol\":2358:2851  function placeBetGreen() external payable {... */\n      jump\t// out\n        /* \"@chainlink/contracts/src/v0.8/vrf/VRFConsumerBaseV2.sol\":6794:7050  function rawFulfillRandomWords(uint256 requestId, uint256[] memory randomWords) external {... */\n    tag_19:\n        /* \"@chainlink/contracts/src/v0.8/vrf/VRFConsumerBaseV2.sol\":6907:6921  vrfCoordinator */\n      immutable(\"0x1a192fabce13988b84994d4296e6cdc418d55e2f1d7f942188d4040b94fc57ac\")\n        /* \"@chainlink/contracts/src/v0.8/vrf/VRFConsumerBaseV2.sol\":6893:6921  msg.sender != vrfCoordinator */\n      0xffffffffffffffffffffffffffffffffffffffff\n      and\n        /* \"@chainlink/contracts/src/v0.8/vrf/VRFConsumerBaseV2.sol\":6893:6903  msg.sender */\n      caller\n        /* \"@chainlink/contracts/src/v0.8/vrf/VRFConsumerBaseV2.sol\":6893:6921  msg.sender != vrfCoordinator */\n      0xffffffffffffffffffffffffffffffffffffffff\n      and\n      eq\n        /* \"@chainlink/contracts/src/v0.8/vrf/VRFConsumerBaseV2.sol\":6889:6998  if (msg.sender != vrfCoordinator) {... */\n      tag_57\n      jumpi\n        /* \"@chainlink/contracts/src/v0.8/vrf/VRFConsumerBaseV2.sol\":6964:6974  msg.sender */\n      caller\n        /* \"@chainlink/contracts/src/v0.8/vrf/VRFConsumerBaseV2.sol\":6976:6990  vrfCoordinator */\n      immutable(\"0x1a192fabce13988b84994d4296e6cdc418d55e2f1d7f942188d4040b94fc57ac\")\n        /* \"@chainlink/contracts/src/v0.8/vrf/VRFConsumerBaseV2.sol\":6938:6991  OnlyCoordinatorCanFulfill(msg.sender, vrfCoordinator) */\n      mload(0x40)\n      0x1cf993f400000000000000000000000000000000000000000000000000000000\n      dup2\n      mstore\n      0x04\n      add\n      tag_58\n      swap3\n      swap2\n      swap1\n      tag_59\n      jump\t// in\n    tag_58:\n      mload(0x40)\n      dup1\n      swap2\n      sub\n      swap1\n      revert\n        /* \"@chainlink/contracts/src/v0.8/vrf/VRFConsumerBaseV2.sol\":6889:6998  if (msg.sender != vrfCoordinator) {... */\n    tag_57:\n        /* \"@chainlink/contracts/src/v0.8/vrf/VRFConsumerBaseV2.sol\":7003:7045  fulfillRandomWords(requestId, randomWords) */\n      tag_60\n        /* \"@chainlink/contracts/src/v0.8/vrf/VRFConsumerBaseV2.sol\":7022:7031  requestId */\n      dup3\n        /* \"@chainlink/contracts/src/v0.8/vrf/VRFConsumerBaseV2.sol\":7033:7044  randomWords */\n      dup3\n        /* \"@chainlink/contracts/src/v0.8/vrf/VRFConsumerBaseV2.sol\":7003:7021  fulfillRandomWords */\n      tag_61\n        /* \"@chainlink/contracts/src/v0.8/vrf/VRFConsumerBaseV2.sol\":7003:7045  fulfillRandomWords(requestId, randomWords) */\n      jump\t// in\n    tag_60:\n        /* \"@chainlink/contracts/src/v0.8/vrf/VRFConsumerBaseV2.sol\":6794:7050  function rawFulfillRandomWords(uint256 requestId, uint256[] memory randomWords) external {... */\n      pop\n      pop\n      jump\t// out\n        /* \"contracts/Token.sol\":809:844  mapping(uint256 => Bet) public bets */\n    tag_24:\n      mstore(0x20, 0x04)\n      dup1\n      0x00\n      mstore\n      keccak256(0x00, 0x40)\n      0x00\n      swap2\n      pop\n      swap1\n      pop\n      dup1\n      0x00\n      add\n      0x00\n      swap1\n      sload\n      swap1\n      0x0100\n      exp\n      swap1\n      div\n      0xffffffffffffffffffffffffffffffffffffffff\n      and\n      swap1\n      dup1\n      0x01\n      add\n      sload\n      swap1\n      dup1\n      0x02\n      add\n      0x00\n      swap1\n      sload\n      swap1\n      0x0100\n      exp\n      swap1\n      div\n      0xff\n      and\n      swap1\n      dup1\n      0x02\n      add\n      0x01\n      swap1\n      sload\n      swap1\n      0x0100\n      exp\n      swap1\n      div\n      0xff\n      and\n      swap1\n      dup1\n      0x02\n      add\n      0x02\n      swap1\n      sload\n      swap1\n      0x0100\n      exp\n      swap1\n      div\n      0xff\n      and\n      swap1\n      pop\n      dup6\n      jump\t// out\n        /* \"contracts/Token.sol\":1271:1839  function placeBetNumber(uint8 number) external payable {... */\n    tag_30:\n        /* \"contracts/Token.sol\":1357:1358  0 */\n      0x00\n        /* \"contracts/Token.sol\":1345:1354  msg.value */\n      callvalue\n        /* \"contracts/Token.sol\":1345:1358  msg.value > 0 */\n      gt\n        /* \"contracts/Token.sol\":1337:1389  require(msg.value > 0, \"Bet must be greater than 0\") */\n      tag_63\n      jumpi\n      mload(0x40)\n      0x08c379a000000000000000000000000000000000000000000000000000000000\n      dup2\n      mstore\n      0x04\n      add\n      tag_64\n      swap1\n      tag_42\n      jump\t// in\n    tag_64:\n      mload(0x40)\n      dup1\n      swap2\n      sub\n      swap1\n      revert\n    tag_63:\n        /* \"contracts/Token.sol\":1418:1420  36 */\n      0x24\n        /* \"contracts/Token.sol\":1408:1414  number */\n      dup2\n        /* \"contracts/Token.sol\":1408:1420  number <= 36 */\n      0xff\n      and\n      gt\n      iszero\n        /* \"contracts/Token.sol\":1400:1439  require(number <= 36, \"Invalid number\") */\n      tag_65\n      jumpi\n      mload(0x40)\n      0x08c379a000000000000000000000000000000000000000000000000000000000\n      dup2\n      mstore\n      0x04\n      add\n      tag_66\n      swap1\n      tag_67\n      jump\t// in\n    tag_66:\n      mload(0x40)\n      dup1\n      swap2\n      sub\n      swap1\n      revert\n    tag_65:\n        /* \"contracts/Token.sol\":1452:1469  uint256 requestId */\n      0x00\n        /* \"contracts/Token.sol\":1472:1483  COORDINATOR */\n      0x00\n      0x00\n      swap1\n      sload\n      swap1\n      0x0100\n      exp\n      swap1\n      div\n      0xffffffffffffffffffffffffffffffffffffffff\n      and\n        /* \"contracts/Token.sol\":1472:1502  COORDINATOR.requestRandomWords */\n      0xffffffffffffffffffffffffffffffffffffffff\n      and\n      0x5d3b1d30\n        /* \"contracts/Token.sol\":1517:1524  keyHash */\n      sload(0x02)\n        /* \"contracts/Token.sol\":1539:1553  subscriptionId */\n      0x00\n      0x14\n      swap1\n      sload\n      swap1\n      0x0100\n      exp\n      swap1\n      div\n      0xffffffffffffffff\n      and\n        /* \"contracts/Token.sol\":1568:1588  requestConfirmations */\n      0x03\n      0x04\n      swap1\n      sload\n      swap1\n      0x0100\n      exp\n      swap1\n      div\n      0xffff\n      and\n        /* \"contracts/Token.sol\":1603:1619  callbackGasLimit */\n      0x03\n      0x00\n      swap1\n      sload\n      swap1\n      0x0100\n      exp\n      swap1\n      div\n      0xffffffff\n      and\n        /* \"contracts/Token.sol\":1634:1642  numWords */\n      0x03\n      0x06\n      swap1\n      sload\n      swap1\n      0x0100\n      exp\n      swap1\n      div\n      0xffffffff\n      and\n        /* \"contracts/Token.sol\":1472:1653  COORDINATOR.requestRandomWords(... */\n      mload(0x40)\n      dup7\n      0xffffffff\n      and\n      0xe0\n      shl\n      dup2\n      mstore\n      0x04\n      add\n      tag_68\n      swap6\n      swap5\n      swap4\n      swap3\n      swap2\n      swap1\n      tag_44\n      jump\t// in\n    tag_68:\n      0x20\n      mload(0x40)\n      dup1\n      dup4\n      sub\n      dup2\n      0x00\n      dup8\n      gas\n      call\n      iszero\n      dup1\n      iszero\n      tag_70\n      jumpi\n      returndatacopy(0x00, 0x00, returndatasize)\n      revert(0x00, returndatasize)\n    tag_70:\n      pop\n      pop\n      pop\n      pop\n      mload(0x40)\n      returndatasize\n      not(0x1f)\n      0x1f\n      dup3\n      add\n      and\n      dup3\n      add\n      dup1\n      0x40\n      mstore\n      pop\n      dup2\n      add\n      swap1\n      tag_71\n      swap2\n      swap1\n      tag_48\n      jump\t// in\n    tag_71:\n        /* \"contracts/Token.sol\":1452:1653  uint256 requestId = COORDINATOR.requestRandomWords(... */\n      swap1\n      pop\n        /* \"contracts/Token.sol\":1684:1741  Bet(msg.sender, msg.value, BetType.NUMBER, number, false) */\n      mload(0x40)\n      dup1\n      0xa0\n      add\n      0x40\n      mstore\n      dup1\n        /* \"contracts/Token.sol\":1688:1698  msg.sender */\n      caller\n        /* \"contracts/Token.sol\":1684:1741  Bet(msg.sender, msg.value, BetType.NUMBER, number, false) */\n      0xffffffffffffffffffffffffffffffffffffffff\n      and\n      dup2\n      mstore\n      0x20\n      add\n        /* \"contracts/Token.sol\":1700:1709  msg.value */\n      callvalue\n        /* \"contracts/Token.sol\":1684:1741  Bet(msg.sender, msg.value, BetType.NUMBER, number, false) */\n      dup2\n      mstore\n      0x20\n      add\n        /* \"contracts/Token.sol\":1711:1725  BetType.NUMBER */\n      0x00\n        /* \"contracts/Token.sol\":1684:1741  Bet(msg.sender, msg.value, BetType.NUMBER, number, false) */\n      0x04\n      dup2\n      gt\n      iszero\n      tag_72\n      jumpi\n      tag_73\n      tag_51\n      jump\t// in\n    tag_73:\n    tag_72:\n      dup2\n      mstore\n      0x20\n      add\n        /* \"contracts/Token.sol\":1727:1733  number */\n      dup4\n        /* \"contracts/Token.sol\":1684:1741  Bet(msg.sender, msg.value, BetType.NUMBER, number, false) */\n      0xff\n      and\n      dup2\n      mstore\n      0x20\n      add\n        /* \"contracts/Token.sol\":1735:1740  false */\n      0x00\n        /* \"contracts/Token.sol\":1684:1741  Bet(msg.sender, msg.value, BetType.NUMBER, number, false) */\n      iszero\n      iszero\n      dup2\n      mstore\n      pop\n        /* \"contracts/Token.sol\":1666:1670  bets */\n      0x04\n        /* \"contracts/Token.sol\":1666:1681  bets[requestId] */\n      0x00\n        /* \"contracts/Token.sol\":1671:1680  requestId */\n      dup4\n        /* \"contracts/Token.sol\":1666:1681  bets[requestId] */\n      dup2\n      mstore\n      0x20\n      add\n      swap1\n      dup2\n      mstore\n      0x20\n      add\n      0x00\n      keccak256\n        /* \"contracts/Token.sol\":1666:1741  bets[requestId] = Bet(msg.sender, msg.value, BetType.NUMBER, number, false) */\n      0x00\n      dup3\n      add\n      mload\n      dup2\n      0x00\n      add\n      exp(0x0100, 0x00)\n      dup2\n      sload\n      dup2\n      0xffffffffffffffffffffffffffffffffffffffff\n      mul\n      not\n      and\n      swap1\n      dup4\n      0xffffffffffffffffffffffffffffffffffffffff\n      and\n      mul\n      or\n      swap1\n      sstore\n      pop\n      0x20\n      dup3\n      add\n      mload\n      dup2\n      0x01\n      add\n      sstore\n      0x40\n      dup3\n      add\n      mload\n      dup2\n      0x02\n      add\n      exp(0x0100, 0x00)\n      dup2\n      sload\n      dup2\n      0xff\n      mul\n      not\n      and\n      swap1\n      dup4\n      0x04\n      dup2\n      gt\n      iszero\n      tag_74\n      jumpi\n      tag_75\n      tag_51\n      jump\t// in\n    tag_75:\n    tag_74:\n      mul\n      or\n      swap1\n      sstore\n      pop\n      0x60\n      dup3\n      add\n      mload\n      dup2\n      0x02\n      add\n      exp(0x0100, 0x01)\n      dup2\n      sload\n      dup2\n      0xff\n      mul\n      not\n      and\n      swap1\n      dup4\n      0xff\n      and\n      mul\n      or\n      swap1\n      sstore\n      pop\n      0x80\n      dup3\n      add\n      mload\n      dup2\n      0x02\n      add\n      exp(0x0100, 0x02)\n      dup2\n      sload\n      dup2\n      0xff\n      mul\n      not\n      and\n      swap1\n      dup4\n      iszero\n      iszero\n      mul\n      or\n      swap1\n      sstore\n      pop\n      swap1\n      pop\n      pop\n        /* \"contracts/Token.sol\":1757:1831  BetPlaced(requestId, msg.sender, msg.value, BetType.NUMBER, number, false) */\n      0x541cf68fcba3379a00d80d5cd28d5ba5a9eadd91f8f573f962eb3b7ef598bad2\n        /* \"contracts/Token.sol\":1767:1776  requestId */\n      dup2\n        /* \"contracts/Token.sol\":1778:1788  msg.sender */\n      caller\n        /* \"contracts/Token.sol\":1790:1799  msg.value */\n      callvalue\n        /* \"contracts/Token.sol\":1801:1815  BetType.NUMBER */\n      0x00\n        /* \"contracts/Token.sol\":1817:1823  number */\n      dup7\n        /* \"contracts/Token.sol\":1825:1830  false */\n      0x00\n        /* \"contracts/Token.sol\":1757:1831  BetPlaced(requestId, msg.sender, msg.value, BetType.NUMBER, number, false) */\n      mload(0x40)\n      tag_76\n      swap7\n      swap6\n      swap5\n      swap4\n      swap3\n      swap2\n      swap1\n      tag_77\n      jump\t// in\n    tag_76:\n      mload(0x40)\n      dup1\n      swap2\n      sub\n      swap1\n      log1\n        /* \"contracts/Token.sol\":1326:1839  {... */\n      pop\n        /* \"contracts/Token.sol\":1271:1839  function placeBetNumber(uint8 number) external payable {... */\n      pop\n      jump\t// out\n        /* \"contracts/Token.sol\":3357:3844  function placeBetODD() external payable {... */\n    tag_32:\n        /* \"contracts/Token.sol\":3428:3429  0 */\n      0x00\n        /* \"contracts/Token.sol\":3416:3425  msg.value */\n      callvalue\n        /* \"contracts/Token.sol\":3416:3429  msg.value > 0 */\n      gt\n        /* \"contracts/Token.sol\":3408:3460  require(msg.value > 0, \"Bet must be greater than 0\") */\n      tag_79\n      jumpi\n      mload(0x40)\n      0x08c379a000000000000000000000000000000000000000000000000000000000\n      dup2\n      mstore\n      0x04\n      add\n      tag_80\n      swap1\n      tag_42\n      jump\t// in\n    tag_80:\n      mload(0x40)\n      dup1\n      swap2\n      sub\n      swap1\n      revert\n    tag_79:\n        /* \"contracts/Token.sol\":3473:3490  uint256 requestId */\n      0x00\n        /* \"contracts/Token.sol\":3493:3504  COORDINATOR */\n      0x00\n      0x00\n      swap1\n      sload\n      swap1\n      0x0100\n      exp\n      swap1\n      div\n      0xffffffffffffffffffffffffffffffffffffffff\n      and\n        /* \"contracts/Token.sol\":3493:3523  COORDINATOR.requestRandomWords */\n      0xffffffffffffffffffffffffffffffffffffffff\n      and\n      0x5d3b1d30\n        /* \"contracts/Token.sol\":3538:3545  keyHash */\n      sload(0x02)\n        /* \"contracts/Token.sol\":3560:3574  subscriptionId */\n      0x00\n      0x14\n      swap1\n      sload\n      swap1\n      0x0100\n      exp\n      swap1\n      div\n      0xffffffffffffffff\n      and\n        /* \"contracts/Token.sol\":3589:3609  requestConfirmations */\n      0x03\n      0x04\n      swap1\n      sload\n      swap1\n      0x0100\n      exp\n      swap1\n      div\n      0xffff\n      and\n        /* \"contracts/Token.sol\":3624:3640  callbackGasLimit */\n      0x03\n      0x00\n      swap1\n      sload\n      swap1\n      0x0100\n      exp\n      swap1\n      div\n      0xffffffff\n      and\n        /* \"contracts/Token.sol\":3655:3663  numWords */\n      0x03\n      0x06\n      swap1\n      sload\n      swap1\n      0x0100\n      exp\n      swap1\n      div\n      0xffffffff\n      and\n        /* \"contracts/Token.sol\":3493:3674  COORDINATOR.requestRandomWords(... */\n      mload(0x40)\n      dup7\n      0xffffffff\n      and\n      0xe0\n      shl\n      dup2\n      mstore\n      0x04\n      add\n      tag_81\n      swap6\n      swap5\n      swap4\n      swap3\n      swap2\n      swap1\n      tag_44\n      jump\t// in\n    tag_81:\n      0x20\n      mload(0x40)\n      dup1\n      dup4\n      sub\n      dup2\n      0x00\n      dup8\n      gas\n      call\n      iszero\n      dup1\n      iszero\n      tag_83\n      jumpi\n      returndatacopy(0x00, 0x00, returndatasize)\n      revert(0x00, returndatasize)\n    tag_83:\n      pop\n      pop\n      pop\n      pop\n      mload(0x40)\n      returndatasize\n      not(0x1f)\n      0x1f\n      dup3\n      add\n      and\n      dup3\n      add\n      dup1\n      0x40\n      mstore\n      pop\n      dup2\n      add\n      swap1\n      tag_84\n      swap2\n      swap1\n      tag_48\n      jump\t// in\n    tag_84:\n        /* \"contracts/Token.sol\":3473:3674  uint256 requestId = COORDINATOR.requestRandomWords(... */\n      swap1\n      pop\n        /* \"contracts/Token.sol\":3705:3754  Bet(msg.sender, msg.value, BetType.ODD, 0, false) */\n      mload(0x40)\n      dup1\n      0xa0\n      add\n      0x40\n      mstore\n      dup1\n        /* \"contracts/Token.sol\":3709:3719  msg.sender */\n      caller\n        /* \"contracts/Token.sol\":3705:3754  Bet(msg.sender, msg.value, BetType.ODD, 0, false) */\n      0xffffffffffffffffffffffffffffffffffffffff\n      and\n      dup2\n      mstore\n      0x20\n      add\n        /* \"contracts/Token.sol\":3721:3730  msg.value */\n      callvalue\n        /* \"contracts/Token.sol\":3705:3754  Bet(msg.sender, msg.value, BetType.ODD, 0, false) */\n      dup2\n      mstore\n      0x20\n      add\n        /* \"contracts/Token.sol\":3732:3743  BetType.ODD */\n      0x03\n        /* \"contracts/Token.sol\":3705:3754  Bet(msg.sender, msg.value, BetType.ODD, 0, false) */\n      0x04\n      dup2\n      gt\n      iszero\n      tag_85\n      jumpi\n      tag_86\n      tag_51\n      jump\t// in\n    tag_86:\n    tag_85:\n      dup2\n      mstore\n      0x20\n      add\n        /* \"contracts/Token.sol\":3745:3746  0 */\n      0x00\n        /* \"contracts/Token.sol\":3705:3754  Bet(msg.sender, msg.value, BetType.ODD, 0, false) */\n      0xff\n      and\n      dup2\n      mstore\n      0x20\n      add\n        /* \"contracts/Token.sol\":3748:3753  false */\n      0x00\n        /* \"contracts/Token.sol\":3705:3754  Bet(msg.sender, msg.value, BetType.ODD, 0, false) */\n      iszero\n      iszero\n      dup2\n      mstore\n      pop\n        /* \"contracts/Token.sol\":3687:3691  bets */\n      0x04\n        /* \"contracts/Token.sol\":3687:3702  bets[requestId] */\n      0x00\n        /* \"contracts/Token.sol\":3692:3701  requestId */\n      dup4\n        /* \"contracts/Token.sol\":3687:3702  bets[requestId] */\n      dup2\n      mstore\n      0x20\n      add\n      swap1\n      dup2\n      mstore\n      0x20\n      add\n      0x00\n      keccak256\n        /* \"contracts/Token.sol\":3687:3754  bets[requestId] = Bet(msg.sender, msg.value, BetType.ODD, 0, false) */\n      0x00\n      dup3\n      add\n      mload\n      dup2\n      0x00\n      add\n      exp(0x0100, 0x00)\n      dup2\n      sload\n      dup2\n      0xffffffffffffffffffffffffffffffffffffffff\n      mul\n      not\n      and\n      swap1\n      dup4\n      0xffffffffffffffffffffffffffffffffffffffff\n      and\n      mul\n      or\n      swap1\n      sstore\n      pop\n      0x20\n      dup3\n      add\n      mload\n      dup2\n      0x01\n      add\n      sstore\n      0x40\n      dup3\n      add\n      mload\n      dup2\n      0x02\n      add\n      exp(0x0100, 0x00)\n      dup2\n      sload\n      dup2\n      0xff\n      mul\n      not\n      and\n      swap1\n      dup4\n      0x04\n      dup2\n      gt\n      iszero\n      tag_87\n      jumpi\n      tag_88\n      tag_51\n      jump\t// in\n    tag_88:\n    tag_87:\n      mul\n      or\n      swap1\n      sstore\n      pop\n      0x60\n      dup3\n      add\n      mload\n      dup2\n      0x02\n      add\n      exp(0x0100, 0x01)\n      dup2\n      sload\n      dup2\n      0xff\n      mul\n      not\n      and\n      swap1\n      dup4\n      0xff\n      and\n      mul\n      or\n      swap1\n      sstore\n      pop\n      0x80\n      dup3\n      add\n      mload\n      dup2\n      0x02\n      add\n      exp(0x0100, 0x02)\n      dup2\n      sload\n      dup2\n      0xff\n      mul\n      not\n      and\n      swap1\n      dup4\n      iszero\n      iszero\n      mul\n      or\n      swap1\n      sstore\n      pop\n      swap1\n      pop\n      pop\n        /* \"contracts/Token.sol\":3770:3836  BetPlaced(requestId, msg.sender, msg.value, BetType.ODD, 0, false) */\n      0x541cf68fcba3379a00d80d5cd28d5ba5a9eadd91f8f573f962eb3b7ef598bad2\n        /* \"contracts/Token.sol\":3780:3789  requestId */\n      dup2\n        /* \"contracts/Token.sol\":3791:3801  msg.sender */\n      caller\n        /* \"contracts/Token.sol\":3803:3812  msg.value */\n      callvalue\n        /* \"contracts/Token.sol\":3814:3825  BetType.ODD */\n      0x03\n        /* \"contracts/Token.sol\":3827:3828  0 */\n      0x00\n        /* \"contracts/Token.sol\":3830:3835  false */\n      0x00\n        /* \"contracts/Token.sol\":3770:3836  BetPlaced(requestId, msg.sender, msg.value, BetType.ODD, 0, false) */\n      mload(0x40)\n      tag_89\n      swap7\n      swap6\n      swap5\n      swap4\n      swap3\n      swap2\n      swap1\n      tag_55\n      jump\t// in\n    tag_89:\n      mload(0x40)\n      dup1\n      swap2\n      sub\n      swap1\n      log1\n        /* \"contracts/Token.sol\":3397:3844  {... */\n      pop\n        /* \"contracts/Token.sol\":3357:3844  function placeBetODD() external payable {... */\n      jump\t// out\n        /* \"contracts/Token.sol\":2859:3349  function placeBetEVEN() external payable {... */\n    tag_34:\n        /* \"contracts/Token.sol\":2931:2932  0 */\n      0x00\n        /* \"contracts/Token.sol\":2919:2928  msg.value */\n      callvalue\n        /* \"contracts/Token.sol\":2919:2932  msg.value > 0 */\n      gt\n        /* \"contracts/Token.sol\":2911:2963  require(msg.value > 0, \"Bet must be greater than 0\") */\n      tag_91\n      jumpi\n      mload(0x40)\n      0x08c379a000000000000000000000000000000000000000000000000000000000\n      dup2\n      mstore\n      0x04\n      add\n      tag_92\n      swap1\n      tag_42\n      jump\t// in\n    tag_92:\n      mload(0x40)\n      dup1\n      swap2\n      sub\n      swap1\n      revert\n    tag_91:\n        /* \"contracts/Token.sol\":2976:2993  uint256 requestId */\n      0x00\n        /* \"contracts/Token.sol\":2996:3007  COORDINATOR */\n      0x00\n      0x00\n      swap1\n      sload\n      swap1\n      0x0100\n      exp\n      swap1\n      div\n      0xffffffffffffffffffffffffffffffffffffffff\n      and\n        /* \"contracts/Token.sol\":2996:3026  COORDINATOR.requestRandomWords */\n      0xffffffffffffffffffffffffffffffffffffffff\n      and\n      0x5d3b1d30\n        /* \"contracts/Token.sol\":3041:3048  keyHash */\n      sload(0x02)\n        /* \"contracts/Token.sol\":3063:3077  subscriptionId */\n      0x00\n      0x14\n      swap1\n      sload\n      swap1\n      0x0100\n      exp\n      swap1\n      div\n      0xffffffffffffffff\n      and\n        /* \"contracts/Token.sol\":3092:3112  requestConfirmations */\n      0x03\n      0x04\n      swap1\n      sload\n      swap1\n      0x0100\n      exp\n      swap1\n      div\n      0xffff\n      and\n        /* \"contracts/Token.sol\":3127:3143  callbackGasLimit */\n      0x03\n      0x00\n      swap1\n      sload\n      swap1\n      0x0100\n      exp\n      swap1\n      div\n      0xffffffff\n      and\n        /* \"contracts/Token.sol\":3158:3166  numWords */\n      0x03\n      0x06\n      swap1\n      sload\n      swap1\n      0x0100\n      exp\n      swap1\n      div\n      0xffffffff\n      and\n        /* \"contracts/Token.sol\":2996:3177  COORDINATOR.requestRandomWords(... */\n      mload(0x40)\n      dup7\n      0xffffffff\n      and\n      0xe0\n      shl\n      dup2\n      mstore\n      0x04\n      add\n      tag_93\n      swap6\n      swap5\n      swap4\n      swap3\n      swap2\n      swap1\n      tag_44\n      jump\t// in\n    tag_93:\n      0x20\n      mload(0x40)\n      dup1\n      dup4\n      sub\n      dup2\n      0x00\n      dup8\n      gas\n      call\n      iszero\n      dup1\n      iszero\n      tag_95\n      jumpi\n      returndatacopy(0x00, 0x00, returndatasize)\n      revert(0x00, returndatasize)\n    tag_95:\n      pop\n      pop\n      pop\n      pop\n      mload(0x40)\n      returndatasize\n      not(0x1f)\n      0x1f\n      dup3\n      add\n      and\n      dup3\n      add\n      dup1\n      0x40\n      mstore\n      pop\n      dup2\n      add\n      swap1\n      tag_96\n      swap2\n      swap1\n      tag_48\n      jump\t// in\n    tag_96:\n        /* \"contracts/Token.sol\":2976:3177  uint256 requestId = COORDINATOR.requestRandomWords(... */\n      swap1\n      pop\n        /* \"contracts/Token.sol\":3208:3258  Bet(msg.sender, msg.value, BetType.EVEN, 0, false) */\n      mload(0x40)\n      dup1\n      0xa0\n      add\n      0x40\n      mstore\n      dup1\n        /* \"contracts/Token.sol\":3212:3222  msg.sender */\n      caller\n        /* \"contracts/Token.sol\":3208:3258  Bet(msg.sender, msg.value, BetType.EVEN, 0, false) */\n      0xffffffffffffffffffffffffffffffffffffffff\n      and\n      dup2\n      mstore\n      0x20\n      add\n        /* \"contracts/Token.sol\":3224:3233  msg.value */\n      callvalue\n        /* \"contracts/Token.sol\":3208:3258  Bet(msg.sender, msg.value, BetType.EVEN, 0, false) */\n      dup2\n      mstore\n      0x20\n      add\n        /* \"contracts/Token.sol\":3235:3247  BetType.EVEN */\n      0x04\n        /* \"contracts/Token.sol\":3208:3258  Bet(msg.sender, msg.value, BetType.EVEN, 0, false) */\n      dup1\n      dup2\n      gt\n      iszero\n      tag_97\n      jumpi\n      tag_98\n      tag_51\n      jump\t// in\n    tag_98:\n    tag_97:\n      dup2\n      mstore\n      0x20\n      add\n        /* \"contracts/Token.sol\":3249:3250  0 */\n      0x00\n        /* \"contracts/Token.sol\":3208:3258  Bet(msg.sender, msg.value, BetType.EVEN, 0, false) */\n      0xff\n      and\n      dup2\n      mstore\n      0x20\n      add\n        /* \"contracts/Token.sol\":3252:3257  false */\n      0x00\n        /* \"contracts/Token.sol\":3208:3258  Bet(msg.sender, msg.value, BetType.EVEN, 0, false) */\n      iszero\n      iszero\n      dup2\n      mstore\n      pop\n        /* \"contracts/Token.sol\":3190:3194  bets */\n      0x04\n        /* \"contracts/Token.sol\":3190:3205  bets[requestId] */\n      0x00\n        /* \"contracts/Token.sol\":3195:3204  requestId */\n      dup4\n        /* \"contracts/Token.sol\":3190:3205  bets[requestId] */\n      dup2\n      mstore\n      0x20\n      add\n      swap1\n      dup2\n      mstore\n      0x20\n      add\n      0x00\n      keccak256\n        /* \"contracts/Token.sol\":3190:3258  bets[requestId] = Bet(msg.sender, msg.value, BetType.EVEN, 0, false) */\n      0x00\n      dup3\n      add\n      mload\n      dup2\n      0x00\n      add\n      exp(0x0100, 0x00)\n      dup2\n      sload\n      dup2\n      0xffffffffffffffffffffffffffffffffffffffff\n      mul\n      not\n      and\n      swap1\n      dup4\n      0xffffffffffffffffffffffffffffffffffffffff\n      and\n      mul\n      or\n      swap1\n      sstore\n      pop\n      0x20\n      dup3\n      add\n      mload\n      dup2\n      0x01\n      add\n      sstore\n      0x40\n      dup3\n      add\n      mload\n      dup2\n      0x02\n      add\n      exp(0x0100, 0x00)\n      dup2\n      sload\n      dup2\n      0xff\n      mul\n      not\n      and\n      swap1\n      dup4\n      0x04\n      dup2\n      gt\n      iszero\n      tag_99\n      jumpi\n      tag_100\n      tag_51\n      jump\t// in\n    tag_100:\n    tag_99:\n      mul\n      or\n      swap1\n      sstore\n      pop\n      0x60\n      dup3\n      add\n      mload\n      dup2\n      0x02\n      add\n      exp(0x0100, 0x01)\n      dup2\n      sload\n      dup2\n      0xff\n      mul\n      not\n      and\n      swap1\n      dup4\n      0xff\n      and\n      mul\n      or\n      swap1\n      sstore\n      pop\n      0x80\n      dup3\n      add\n      mload\n      dup2\n      0x02\n      add\n      exp(0x0100, 0x02)\n      dup2\n      sload\n      dup2\n      0xff\n      mul\n      not\n      and\n      swap1\n      dup4\n      iszero\n      iszero\n      mul\n      or\n      swap1\n      sstore\n      pop\n      swap1\n      pop\n      pop\n        /* \"contracts/Token.sol\":3274:3341  BetPlaced(requestId, msg.sender, msg.value, BetType.EVEN, 0, false) */\n      0x541cf68fcba3379a00d80d5cd28d5ba5a9eadd91f8f573f962eb3b7ef598bad2\n        /* \"contracts/Token.sol\":3284:3293  requestId */\n      dup2\n        /* \"contracts/Token.sol\":3295:3305  msg.sender */\n      caller\n        /* \"contracts/Token.sol\":3307:3316  msg.value */\n      callvalue\n        /* \"contracts/Token.sol\":3318:3330  BetType.EVEN */\n      0x04\n        /* \"contracts/Token.sol\":3332:3333  0 */\n      0x00\n        /* \"contracts/Token.sol\":3335:3340  false */\n      0x00\n        /* \"contracts/Token.sol\":3274:3341  BetPlaced(requestId, msg.sender, msg.value, BetType.EVEN, 0, false) */\n      mload(0x40)\n      tag_101\n      swap7\n      swap6\n      swap5\n      swap4\n      swap3\n      swap2\n      swap1\n      tag_55\n      jump\t// in\n    tag_101:\n      mload(0x40)\n      dup1\n      swap2\n      sub\n      swap1\n      log1\n        /* \"contracts/Token.sol\":2900:3349  {... */\n      pop\n        /* \"contracts/Token.sol\":2859:3349  function placeBetEVEN() external payable {... */\n      jump\t// out\n        /* \"contracts/Token.sol\":1847:2350  function placeBetColor(bool color) external payable {... */\n    tag_38:\n        /* \"contracts/Token.sol\":1930:1931  0 */\n      0x00\n        /* \"contracts/Token.sol\":1918:1927  msg.value */\n      callvalue\n        /* \"contracts/Token.sol\":1918:1931  msg.value > 0 */\n      gt\n        /* \"contracts/Token.sol\":1910:1962  require(msg.value > 0, \"Bet must be greater than 0\") */\n      tag_103\n      jumpi\n      mload(0x40)\n      0x08c379a000000000000000000000000000000000000000000000000000000000\n      dup2\n      mstore\n      0x04\n      add\n      tag_104\n      swap1\n      tag_42\n      jump\t// in\n    tag_104:\n      mload(0x40)\n      dup1\n      swap2\n      sub\n      swap1\n      revert\n    tag_103:\n        /* \"contracts/Token.sol\":1975:1992  uint256 requestId */\n      0x00\n        /* \"contracts/Token.sol\":1995:2006  COORDINATOR */\n      0x00\n      0x00\n      swap1\n      sload\n      swap1\n      0x0100\n      exp\n      swap1\n      div\n      0xffffffffffffffffffffffffffffffffffffffff\n      and\n        /* \"contracts/Token.sol\":1995:2025  COORDINATOR.requestRandomWords */\n      0xffffffffffffffffffffffffffffffffffffffff\n      and\n      0x5d3b1d30\n        /* \"contracts/Token.sol\":2040:2047  keyHash */\n      sload(0x02)\n        /* \"contracts/Token.sol\":2062:2076  subscriptionId */\n      0x00\n      0x14\n      swap1\n      sload\n      swap1\n      0x0100\n      exp\n      swap1\n      div\n      0xffffffffffffffff\n      and\n        /* \"contracts/Token.sol\":2091:2111  requestConfirmations */\n      0x03\n      0x04\n      swap1\n      sload\n      swap1\n      0x0100\n      exp\n      swap1\n      div\n      0xffff\n      and\n        /* \"contracts/Token.sol\":2126:2142  callbackGasLimit */\n      0x03\n      0x00\n      swap1\n      sload\n      swap1\n      0x0100\n      exp\n      swap1\n      div\n      0xffffffff\n      and\n        /* \"contracts/Token.sol\":2157:2165  numWords */\n      0x03\n      0x06\n      swap1\n      sload\n      swap1\n      0x0100\n      exp\n      swap1\n      div\n      0xffffffff\n      and\n        /* \"contracts/Token.sol\":1995:2176  COORDINATOR.requestRandomWords(... */\n      mload(0x40)\n      dup7\n      0xffffffff\n      and\n      0xe0\n      shl\n      dup2\n      mstore\n      0x04\n      add\n      tag_105\n      swap6\n      swap5\n      swap4\n      swap3\n      swap2\n      swap1\n      tag_44\n      jump\t// in\n    tag_105:\n      0x20\n      mload(0x40)\n      dup1\n      dup4\n      sub\n      dup2\n      0x00\n      dup8\n      gas\n      call\n      iszero\n      dup1\n      iszero\n      tag_107\n      jumpi\n      returndatacopy(0x00, 0x00, returndatasize)\n      revert(0x00, returndatasize)\n    tag_107:\n      pop\n      pop\n      pop\n      pop\n      mload(0x40)\n      returndatasize\n      not(0x1f)\n      0x1f\n      dup3\n      add\n      and\n      dup3\n      add\n      dup1\n      0x40\n      mstore\n      pop\n      dup2\n      add\n      swap1\n      tag_108\n      swap2\n      swap1\n      tag_48\n      jump\t// in\n    tag_108:\n        /* \"contracts/Token.sol\":1975:2176  uint256 requestId = COORDINATOR.requestRandomWords(... */\n      swap1\n      pop\n        /* \"contracts/Token.sol\":2207:2258  Bet(msg.sender, msg.value, BetType.COLOR, 0, color) */\n      mload(0x40)\n      dup1\n      0xa0\n      add\n      0x40\n      mstore\n      dup1\n        /* \"contracts/Token.sol\":2211:2221  msg.sender */\n      caller\n        /* \"contracts/Token.sol\":2207:2258  Bet(msg.sender, msg.value, BetType.COLOR, 0, color) */\n      0xffffffffffffffffffffffffffffffffffffffff\n      and\n      dup2\n      mstore\n      0x20\n      add\n        /* \"contracts/Token.sol\":2223:2232  msg.value */\n      callvalue\n        /* \"contracts/Token.sol\":2207:2258  Bet(msg.sender, msg.value, BetType.COLOR, 0, color) */\n      dup2\n      mstore\n      0x20\n      add\n        /* \"contracts/Token.sol\":2234:2247  BetType.COLOR */\n      0x01\n        /* \"contracts/Token.sol\":2207:2258  Bet(msg.sender, msg.value, BetType.COLOR, 0, color) */\n      0x04\n      dup2\n      gt\n      iszero\n      tag_109\n      jumpi\n      tag_110\n      tag_51\n      jump\t// in\n    tag_110:\n    tag_109:\n      dup2\n      mstore\n      0x20\n      add\n        /* \"contracts/Token.sol\":2249:2250  0 */\n      0x00\n        /* \"contracts/Token.sol\":2207:2258  Bet(msg.sender, msg.value, BetType.COLOR, 0, color) */\n      0xff\n      and\n      dup2\n      mstore\n      0x20\n      add\n        /* \"contracts/Token.sol\":2252:2257  color */\n      dup4\n        /* \"contracts/Token.sol\":2207:2258  Bet(msg.sender, msg.value, BetType.COLOR, 0, color) */\n      iszero\n      iszero\n      dup2\n      mstore\n      pop\n        /* \"contracts/Token.sol\":2189:2193  bets */\n      0x04\n        /* \"contracts/Token.sol\":2189:2204  bets[requestId] */\n      0x00\n        /* \"contracts/Token.sol\":2194:2203  requestId */\n      dup4\n        /* \"contracts/Token.sol\":2189:2204  bets[requestId] */\n      dup2\n      mstore\n      0x20\n      add\n      swap1\n      dup2\n      mstore\n      0x20\n      add\n      0x00\n      keccak256\n        /* \"contracts/Token.sol\":2189:2258  bets[requestId] = Bet(msg.sender, msg.value, BetType.COLOR, 0, color) */\n      0x00\n      dup3\n      add\n      mload\n      dup2\n      0x00\n      add\n      exp(0x0100, 0x00)\n      dup2\n      sload\n      dup2\n      0xffffffffffffffffffffffffffffffffffffffff\n      mul\n      not\n      and\n      swap1\n      dup4\n      0xffffffffffffffffffffffffffffffffffffffff\n      and\n      mul\n      or\n      swap1\n      sstore\n      pop\n      0x20\n      dup3\n      add\n      mload\n      dup2\n      0x01\n      add\n      sstore\n      0x40\n      dup3\n      add\n      mload\n      dup2\n      0x02\n      add\n      exp(0x0100, 0x00)\n      dup2\n      sload\n      dup2\n      0xff\n      mul\n      not\n      and\n      swap1\n      dup4\n      0x04\n      dup2\n      gt\n      iszero\n      tag_111\n      jumpi\n      tag_112\n      tag_51\n      jump\t// in\n    tag_112:\n    tag_111:\n      mul\n      or\n      swap1\n      sstore\n      pop\n      0x60\n      dup3\n      add\n      mload\n      dup2\n      0x02\n      add\n      exp(0x0100, 0x01)\n      dup2\n      sload\n      dup2\n      0xff\n      mul\n      not\n      and\n      swap1\n      dup4\n      0xff\n      and\n      mul\n      or\n      swap1\n      sstore\n      pop\n      0x80\n      dup3\n      add\n      mload\n      dup2\n      0x02\n      add\n      exp(0x0100, 0x02)\n      dup2\n      sload\n      dup2\n      0xff\n      mul\n      not\n      and\n      swap1\n      dup4\n      iszero\n      iszero\n      mul\n      or\n      swap1\n      sstore\n      pop\n      swap1\n      pop\n      pop\n        /* \"contracts/Token.sol\":2274:2342  BetPlaced(requestId, msg.sender, msg.value, BetType.COLOR, 0, color) */\n      0x541cf68fcba3379a00d80d5cd28d5ba5a9eadd91f8f573f962eb3b7ef598bad2\n        /* \"contracts/Token.sol\":2284:2293  requestId */\n      dup2\n        /* \"contracts/Token.sol\":2295:2305  msg.sender */\n      caller\n        /* \"contracts/Token.sol\":2307:2316  msg.value */\n      callvalue\n        /* \"contracts/Token.sol\":2318:2331  BetType.COLOR */\n      0x01\n        /* \"contracts/Token.sol\":2333:2334  0 */\n      0x00\n        /* \"contracts/Token.sol\":2336:2341  color */\n      dup8\n        /* \"contracts/Token.sol\":2274:2342  BetPlaced(requestId, msg.sender, msg.value, BetType.COLOR, 0, color) */\n      mload(0x40)\n      tag_113\n      swap7\n      swap6\n      swap5\n      swap4\n      swap3\n      swap2\n      swap1\n      tag_55\n      jump\t// in\n    tag_113:\n      mload(0x40)\n      dup1\n      swap2\n      sub\n      swap1\n      log1\n        /* \"contracts/Token.sol\":1899:2350  {... */\n      pop\n        /* \"contracts/Token.sol\":1847:2350  function placeBetColor(bool color) external payable {... */\n      pop\n      jump\t// out\n        /* \"contracts/Token.sol\":3852:5168  function fulfillRandomWords(uint256 requestId, uint256[] memory randomWords) internal override {... */\n    tag_61:\n        /* \"contracts/Token.sol\":3958:3972  Bet memory bet */\n      0x00\n        /* \"contracts/Token.sol\":3975:3979  bets */\n      0x04\n        /* \"contracts/Token.sol\":3975:3990  bets[requestId] */\n      0x00\n        /* \"contracts/Token.sol\":3980:3989  requestId */\n      dup5\n        /* \"contracts/Token.sol\":3975:3990  bets[requestId] */\n      dup2\n      mstore\n      0x20\n      add\n      swap1\n      dup2\n      mstore\n      0x20\n      add\n      0x00\n      keccak256\n        /* \"contracts/Token.sol\":3958:3990  Bet memory bet = bets[requestId] */\n      mload(0x40)\n      dup1\n      0xa0\n      add\n      0x40\n      mstore\n      swap1\n      dup2\n      0x00\n      dup3\n      add\n      0x00\n      swap1\n      sload\n      swap1\n      0x0100\n      exp\n      swap1\n      div\n      0xffffffffffffffffffffffffffffffffffffffff\n      and\n      0xffffffffffffffffffffffffffffffffffffffff\n      and\n      0xffffffffffffffffffffffffffffffffffffffff\n      and\n      dup2\n      mstore\n      0x20\n      add\n      0x01\n      dup3\n      add\n      sload\n      dup2\n      mstore\n      0x20\n      add\n      0x02\n      dup3\n      add\n      0x00\n      swap1\n      sload\n      swap1\n      0x0100\n      exp\n      swap1\n      div\n      0xff\n      and\n      0x04\n      dup2\n      gt\n      iszero\n      tag_115\n      jumpi\n      tag_116\n      tag_51\n      jump\t// in\n    tag_116:\n    tag_115:\n      0x04\n      dup2\n      gt\n      iszero\n      tag_117\n      jumpi\n      tag_118\n      tag_51\n      jump\t// in\n    tag_118:\n    tag_117:\n      dup2\n      mstore\n      0x20\n      add\n      0x02\n      dup3\n      add\n      0x01\n      swap1\n      sload\n      swap1\n      0x0100\n      exp\n      swap1\n      div\n      0xff\n      and\n      0xff\n      and\n      0xff\n      and\n      dup2\n      mstore\n      0x20\n      add\n      0x02\n      dup3\n      add\n      0x02\n      swap1\n      sload\n      swap1\n      0x0100\n      exp\n      swap1\n      div\n      0xff\n      and\n      iszero\n      iszero\n      iszero\n      iszero\n      dup2\n      mstore\n      pop\n      pop\n      swap1\n      pop\n        /* \"contracts/Token.sol\":4001:4020  uint8 winningNumber */\n      0x00\n        /* \"contracts/Token.sol\":4046:4048  37 */\n      0x25\n        /* \"contracts/Token.sol\":4029:4040  randomWords */\n      dup4\n        /* \"contracts/Token.sol\":4041:4042  0 */\n      0x00\n        /* \"contracts/Token.sol\":4029:4043  randomWords[0] */\n      dup2\n      mload\n      dup2\n      lt\n      tag_119\n      jumpi\n      tag_120\n      tag_121\n      jump\t// in\n    tag_120:\n    tag_119:\n      0x20\n      mul\n      0x20\n      add\n      add\n      mload\n        /* \"contracts/Token.sol\":4029:4048  randomWords[0] % 37 */\n      tag_122\n      swap2\n      swap1\n      tag_123\n      jump\t// in\n    tag_122:\n        /* \"contracts/Token.sol\":4001:4049  uint8 winningNumber = uint8(randomWords[0] % 37) */\n      swap1\n      pop\n        /* \"contracts/Token.sol\":4060:4077  bool winningColor */\n      0x00\n        /* \"contracts/Token.sol\":4102:4103  0 */\n      0x00\n        /* \"contracts/Token.sol\":4097:4098  2 */\n      0x02\n        /* \"contracts/Token.sol\":4081:4094  winningNumber */\n      dup4\n        /* \"contracts/Token.sol\":4081:4098  winningNumber % 2 */\n      tag_124\n      swap2\n      swap1\n      tag_125\n      jump\t// in\n    tag_124:\n        /* \"contracts/Token.sol\":4081:4103  winningNumber % 2 == 0 */\n      0xff\n      and\n      eq\n        /* \"contracts/Token.sol\":4060:4104  bool winningColor = (winningNumber % 2 == 0) */\n      swap1\n      pop\n        /* \"contracts/Token.sol\":4115:4126  bool isEVEN */\n      0x00\n        /* \"contracts/Token.sol\":4151:4152  0 */\n      0x00\n        /* \"contracts/Token.sol\":4146:4147  2 */\n      0x02\n        /* \"contracts/Token.sol\":4130:4143  winningNumber */\n      dup5\n        /* \"contracts/Token.sol\":4130:4147  winningNumber % 2 */\n      tag_126\n      swap2\n      swap1\n      tag_125\n      jump\t// in\n    tag_126:\n        /* \"contracts/Token.sol\":4130:4152  winningNumber % 2 == 0 */\n      0xff\n      and\n      eq\n        /* \"contracts/Token.sol\":4130:4174  winningNumber % 2 == 0 && winningNumber != 0 */\n      dup1\n      iszero\n      tag_127\n      jumpi\n      pop\n        /* \"contracts/Token.sol\":4173:4174  0 */\n      0x00\n        /* \"contracts/Token.sol\":4156:4169  winningNumber */\n      dup4\n        /* \"contracts/Token.sol\":4156:4174  winningNumber != 0 */\n      0xff\n      and\n      eq\n      iszero\n        /* \"contracts/Token.sol\":4130:4174  winningNumber % 2 == 0 && winningNumber != 0 */\n    tag_127:\n        /* \"contracts/Token.sol\":4115:4175  bool isEVEN = (winningNumber % 2 == 0 && winningNumber != 0) */\n      swap1\n      pop\n        /* \"contracts/Token.sol\":4186:4196  bool isODD */\n      0x00\n        /* \"contracts/Token.sol\":4222:4223  0 */\n      0x00\n        /* \"contracts/Token.sol\":4217:4218  2 */\n      0x02\n        /* \"contracts/Token.sol\":4201:4214  winningNumber */\n      dup6\n        /* \"contracts/Token.sol\":4201:4218  winningNumber % 2 */\n      tag_128\n      swap2\n      swap1\n      tag_125\n      jump\t// in\n    tag_128:\n        /* \"contracts/Token.sol\":4201:4223  winningNumber % 2 != 0 */\n      0xff\n      and\n      eq\n      iszero\n        /* \"contracts/Token.sol\":4186:4224  bool isODD =  (winningNumber % 2 != 0) */\n      swap1\n      pop\n        /* \"contracts/Token.sol\":4237:4245  bool win */\n      0x00\n        /* \"contracts/Token.sol\":4248:4253  false */\n      0x00\n        /* \"contracts/Token.sol\":4237:4253  bool win = false */\n      swap1\n      pop\n        /* \"contracts/Token.sol\":4264:4278  uint256 payout */\n      0x00\n        /* \"contracts/Token.sol\":4281:4282  0 */\n      0x00\n        /* \"contracts/Token.sol\":4264:4282  uint256 payout = 0 */\n      swap1\n      pop\n        /* \"contracts/Token.sol\":4314:4328  BetType.NUMBER */\n      0x00\n        /* \"contracts/Token.sol\":4299:4328  bet.betType == BetType.NUMBER */\n      0x04\n      dup2\n      gt\n      iszero\n      tag_129\n      jumpi\n      tag_130\n      tag_51\n      jump\t// in\n    tag_130:\n    tag_129:\n        /* \"contracts/Token.sol\":4299:4302  bet */\n      dup8\n        /* \"contracts/Token.sol\":4299:4310  bet.betType */\n      0x40\n      add\n      mload\n        /* \"contracts/Token.sol\":4299:4328  bet.betType == BetType.NUMBER */\n      0x04\n      dup2\n      gt\n      iszero\n      tag_131\n      jumpi\n      tag_132\n      tag_51\n      jump\t// in\n    tag_132:\n    tag_131:\n      eq\n        /* \"contracts/Token.sol\":4299:4359  bet.betType == BetType.NUMBER && bet.number == winningNumber */\n      dup1\n      iszero\n      tag_133\n      jumpi\n      pop\n        /* \"contracts/Token.sol\":4346:4359  winningNumber */\n      dup6\n        /* \"contracts/Token.sol\":4332:4359  bet.number == winningNumber */\n      0xff\n      and\n        /* \"contracts/Token.sol\":4332:4335  bet */\n      dup8\n        /* \"contracts/Token.sol\":4332:4342  bet.number */\n      0x60\n      add\n      mload\n        /* \"contracts/Token.sol\":4332:4359  bet.number == winningNumber */\n      0xff\n      and\n      eq\n        /* \"contracts/Token.sol\":4299:4359  bet.betType == BetType.NUMBER && bet.number == winningNumber */\n    tag_133:\n        /* \"contracts/Token.sol\":4295:4961  if (bet.betType == BetType.NUMBER && bet.number == winningNumber) {... */\n      iszero\n      tag_134\n      jumpi\n        /* \"contracts/Token.sol\":4382:4386  true */\n      0x01\n        /* \"contracts/Token.sol\":4376:4386  win = true */\n      swap2\n      pop\n        /* \"contracts/Token.sol\":4423:4425  36 */\n      0x24\n        /* \"contracts/Token.sol\":4410:4413  bet */\n      dup8\n        /* \"contracts/Token.sol\":4410:4420  bet.amount */\n      0x20\n      add\n      mload\n        /* \"contracts/Token.sol\":4410:4425  bet.amount * 36 */\n      tag_135\n      swap2\n      swap1\n      tag_136\n      jump\t// in\n    tag_135:\n        /* \"contracts/Token.sol\":4401:4425  payout = bet.amount * 36 */\n      swap1\n      pop\n        /* \"contracts/Token.sol\":4295:4961  if (bet.betType == BetType.NUMBER && bet.number == winningNumber) {... */\n      jump(tag_137)\n    tag_134:\n        /* \"contracts/Token.sol\":4462:4475  BetType.COLOR */\n      0x01\n        /* \"contracts/Token.sol\":4447:4475  bet.betType == BetType.COLOR */\n      0x04\n      dup2\n      gt\n      iszero\n      tag_138\n      jumpi\n      tag_139\n      tag_51\n      jump\t// in\n    tag_139:\n    tag_138:\n        /* \"contracts/Token.sol\":4447:4450  bet */\n      dup8\n        /* \"contracts/Token.sol\":4447:4458  bet.betType */\n      0x40\n      add\n      mload\n        /* \"contracts/Token.sol\":4447:4475  bet.betType == BetType.COLOR */\n      0x04\n      dup2\n      gt\n      iszero\n      tag_140\n      jumpi\n      tag_141\n      tag_51\n      jump\t// in\n    tag_141:\n    tag_140:\n      eq\n        /* \"contracts/Token.sol\":4447:4504  bet.betType == BetType.COLOR && bet.color == winningColor */\n      dup1\n      iszero\n      tag_142\n      jumpi\n      pop\n        /* \"contracts/Token.sol\":4492:4504  winningColor */\n      dup5\n        /* \"contracts/Token.sol\":4479:4504  bet.color == winningColor */\n      iszero\n      iszero\n        /* \"contracts/Token.sol\":4479:4482  bet */\n      dup8\n        /* \"contracts/Token.sol\":4479:4488  bet.color */\n      0x80\n      add\n      mload\n        /* \"contracts/Token.sol\":4479:4504  bet.color == winningColor */\n      iszero\n      iszero\n      eq\n        /* \"contracts/Token.sol\":4447:4504  bet.betType == BetType.COLOR && bet.color == winningColor */\n    tag_142:\n        /* \"contracts/Token.sol\":4443:4961  if (bet.betType == BetType.COLOR && bet.color == winningColor) {... */\n      iszero\n      tag_143\n      jumpi\n        /* \"contracts/Token.sol\":4527:4531  true */\n      0x01\n        /* \"contracts/Token.sol\":4521:4531  win = true */\n      swap2\n      pop\n        /* \"contracts/Token.sol\":4568:4569  2 */\n      0x02\n        /* \"contracts/Token.sol\":4555:4558  bet */\n      dup8\n        /* \"contracts/Token.sol\":4555:4565  bet.amount */\n      0x20\n      add\n      mload\n        /* \"contracts/Token.sol\":4555:4569  bet.amount * 2 */\n      tag_144\n      swap2\n      swap1\n      tag_136\n      jump\t// in\n    tag_144:\n        /* \"contracts/Token.sol\":4546:4569  payout = bet.amount * 2 */\n      swap1\n      pop\n        /* \"contracts/Token.sol\":4443:4961  if (bet.betType == BetType.COLOR && bet.color == winningColor) {... */\n      jump(tag_145)\n    tag_143:\n        /* \"contracts/Token.sol\":4605:4618  BetType.GREEN */\n      0x02\n        /* \"contracts/Token.sol\":4590:4618  bet.betType == BetType.GREEN */\n      0x04\n      dup2\n      gt\n      iszero\n      tag_146\n      jumpi\n      tag_147\n      tag_51\n      jump\t// in\n    tag_147:\n    tag_146:\n        /* \"contracts/Token.sol\":4590:4593  bet */\n      dup8\n        /* \"contracts/Token.sol\":4590:4601  bet.betType */\n      0x40\n      add\n      mload\n        /* \"contracts/Token.sol\":4590:4618  bet.betType == BetType.GREEN */\n      0x04\n      dup2\n      gt\n      iszero\n      tag_148\n      jumpi\n      tag_149\n      tag_51\n      jump\t// in\n    tag_149:\n    tag_148:\n      eq\n        /* \"contracts/Token.sol\":4590:4640  bet.betType == BetType.GREEN && winningNumber == 0 */\n      dup1\n      iszero\n      tag_150\n      jumpi\n      pop\n        /* \"contracts/Token.sol\":4639:4640  0 */\n      0x00\n        /* \"contracts/Token.sol\":4622:4635  winningNumber */\n      dup7\n        /* \"contracts/Token.sol\":4622:4640  winningNumber == 0 */\n      0xff\n      and\n      eq\n        /* \"contracts/Token.sol\":4590:4640  bet.betType == BetType.GREEN && winningNumber == 0 */\n    tag_150:\n        /* \"contracts/Token.sol\":4586:4961  if (bet.betType == BetType.GREEN && winningNumber == 0){... */\n      iszero\n      tag_151\n      jumpi\n        /* \"contracts/Token.sol\":4662:4666  true */\n      0x01\n        /* \"contracts/Token.sol\":4656:4666  win = true */\n      swap2\n      pop\n        /* \"contracts/Token.sol\":4703:4705  36 */\n      0x24\n        /* \"contracts/Token.sol\":4690:4693  bet */\n      dup8\n        /* \"contracts/Token.sol\":4690:4700  bet.amount */\n      0x20\n      add\n      mload\n        /* \"contracts/Token.sol\":4690:4705  bet.amount * 36 */\n      tag_152\n      swap2\n      swap1\n      tag_136\n      jump\t// in\n    tag_152:\n        /* \"contracts/Token.sol\":4681:4705  payout = bet.amount * 36 */\n      swap1\n      pop\n        /* \"contracts/Token.sol\":4586:4961  if (bet.betType == BetType.GREEN && winningNumber == 0){... */\n      jump(tag_153)\n    tag_151:\n        /* \"contracts/Token.sol\":4741:4752  BetType.ODD */\n      0x03\n        /* \"contracts/Token.sol\":4726:4752  bet.betType == BetType.ODD */\n      0x04\n      dup2\n      gt\n      iszero\n      tag_154\n      jumpi\n      tag_155\n      tag_51\n      jump\t// in\n    tag_155:\n    tag_154:\n        /* \"contracts/Token.sol\":4726:4729  bet */\n      dup8\n        /* \"contracts/Token.sol\":4726:4737  bet.betType */\n      0x40\n      add\n      mload\n        /* \"contracts/Token.sol\":4726:4752  bet.betType == BetType.ODD */\n      0x04\n      dup2\n      gt\n      iszero\n      tag_156\n      jumpi\n      tag_157\n      tag_51\n      jump\t// in\n    tag_157:\n    tag_156:\n      eq\n        /* \"contracts/Token.sol\":4726:4761  bet.betType == BetType.ODD && isODD */\n      dup1\n      iszero\n      tag_158\n      jumpi\n      pop\n        /* \"contracts/Token.sol\":4756:4761  isODD */\n      dup3\n        /* \"contracts/Token.sol\":4726:4761  bet.betType == BetType.ODD && isODD */\n    tag_158:\n        /* \"contracts/Token.sol\":4722:4961  if (bet.betType == BetType.ODD && isODD) {... */\n      iszero\n      tag_159\n      jumpi\n        /* \"contracts/Token.sol\":4784:4788  true */\n      0x01\n        /* \"contracts/Token.sol\":4778:4788  win = true */\n      swap2\n      pop\n        /* \"contracts/Token.sol\":4825:4826  2 */\n      0x02\n        /* \"contracts/Token.sol\":4812:4815  bet */\n      dup8\n        /* \"contracts/Token.sol\":4812:4822  bet.amount */\n      0x20\n      add\n      mload\n        /* \"contracts/Token.sol\":4812:4826  bet.amount * 2 */\n      tag_160\n      swap2\n      swap1\n      tag_136\n      jump\t// in\n    tag_160:\n        /* \"contracts/Token.sol\":4803:4826  payout = bet.amount * 2 */\n      swap1\n      pop\n        /* \"contracts/Token.sol\":4722:4961  if (bet.betType == BetType.ODD && isODD) {... */\n      jump(tag_161)\n    tag_159:\n        /* \"contracts/Token.sol\":4862:4874  BetType.EVEN */\n      0x04\n        /* \"contracts/Token.sol\":4847:4874  bet.betType == BetType.EVEN */\n      dup1\n      dup2\n      gt\n      iszero\n      tag_162\n      jumpi\n      tag_163\n      tag_51\n      jump\t// in\n    tag_163:\n    tag_162:\n        /* \"contracts/Token.sol\":4847:4850  bet */\n      dup8\n        /* \"contracts/Token.sol\":4847:4858  bet.betType */\n      0x40\n      add\n      mload\n        /* \"contracts/Token.sol\":4847:4874  bet.betType == BetType.EVEN */\n      0x04\n      dup2\n      gt\n      iszero\n      tag_164\n      jumpi\n      tag_165\n      tag_51\n      jump\t// in\n    tag_165:\n    tag_164:\n      eq\n        /* \"contracts/Token.sol\":4847:4884  bet.betType == BetType.EVEN && isEVEN */\n      dup1\n      iszero\n      tag_166\n      jumpi\n      pop\n        /* \"contracts/Token.sol\":4878:4884  isEVEN */\n      dup4\n        /* \"contracts/Token.sol\":4847:4884  bet.betType == BetType.EVEN && isEVEN */\n    tag_166:\n        /* \"contracts/Token.sol\":4843:4961  if (bet.betType == BetType.EVEN && isEVEN) {... */\n      iszero\n      tag_167\n      jumpi\n        /* \"contracts/Token.sol\":4907:4911  true */\n      0x01\n        /* \"contracts/Token.sol\":4901:4911  win = true */\n      swap2\n      pop\n        /* \"contracts/Token.sol\":4948:4949  2 */\n      0x02\n        /* \"contracts/Token.sol\":4935:4938  bet */\n      dup8\n        /* \"contracts/Token.sol\":4935:4945  bet.amount */\n      0x20\n      add\n      mload\n        /* \"contracts/Token.sol\":4935:4949  bet.amount * 2 */\n      tag_168\n      swap2\n      swap1\n      tag_136\n      jump\t// in\n    tag_168:\n        /* \"contracts/Token.sol\":4926:4949  payout = bet.amount * 2 */\n      swap1\n      pop\n        /* \"contracts/Token.sol\":4843:4961  if (bet.betType == BetType.EVEN && isEVEN) {... */\n    tag_167:\n        /* \"contracts/Token.sol\":4722:4961  if (bet.betType == BetType.ODD && isODD) {... */\n    tag_161:\n        /* \"contracts/Token.sol\":4586:4961  if (bet.betType == BetType.GREEN && winningNumber == 0){... */\n    tag_153:\n        /* \"contracts/Token.sol\":4443:4961  if (bet.betType == BetType.COLOR && bet.color == winningColor) {... */\n    tag_145:\n        /* \"contracts/Token.sol\":4295:4961  if (bet.betType == BetType.NUMBER && bet.number == winningNumber) {... */\n    tag_137:\n        /* \"contracts/Token.sol\":4977:4980  win */\n      dup2\n        /* \"contracts/Token.sol\":4973:5045  if (win) {... */\n      iszero\n      tag_169\n      jumpi\n        /* \"contracts/Token.sol\":5005:5008  bet */\n      dup7\n        /* \"contracts/Token.sol\":5005:5015  bet.player */\n      0x00\n      add\n      mload\n        /* \"contracts/Token.sol\":4997:5025  payable(bet.player).transfer */\n      0xffffffffffffffffffffffffffffffffffffffff\n      and\n        /* \"contracts/Token.sol\":4997:5033  payable(bet.player).transfer(payout) */\n      0x08fc\n        /* \"contracts/Token.sol\":5026:5032  payout */\n      dup3\n        /* \"contracts/Token.sol\":4997:5033  payable(bet.player).transfer(payout) */\n      swap1\n      dup2\n      iszero\n      mul\n      swap1\n      mload(0x40)\n      0x00\n      mload(0x40)\n      dup1\n      dup4\n      sub\n      dup2\n      dup6\n      dup9\n      dup9\n      call\n      swap4\n      pop\n      pop\n      pop\n      pop\n      iszero\n      dup1\n      iszero\n      tag_171\n      jumpi\n      returndatacopy(0x00, 0x00, returndatasize)\n      revert(0x00, returndatasize)\n    tag_171:\n      pop\n        /* \"contracts/Token.sol\":4973:5045  if (win) {... */\n    tag_169:\n        /* \"contracts/Token.sol\":5062:5127  GameResult(requestId, bet.player, bet.amount, winningNumber, win) */\n      0x7204b31c5bbfa97e1aee8ef0fb88d079da912ad60e762363640da9f84333c110\n        /* \"contracts/Token.sol\":5073:5082  requestId */\n      dup10\n        /* \"contracts/Token.sol\":5084:5087  bet */\n      dup9\n        /* \"contracts/Token.sol\":5084:5094  bet.player */\n      0x00\n      add\n      mload\n        /* \"contracts/Token.sol\":5096:5099  bet */\n      dup10\n        /* \"contracts/Token.sol\":5096:5106  bet.amount */\n      0x20\n      add\n      mload\n        /* \"contracts/Token.sol\":5108:5121  winningNumber */\n      dup10\n        /* \"contracts/Token.sol\":5123:5126  win */\n      dup7\n        /* \"contracts/Token.sol\":5062:5127  GameResult(requestId, bet.player, bet.amount, winningNumber, win) */\n      mload(0x40)\n      tag_172\n      swap6\n      swap5\n      swap4\n      swap3\n      swap2\n      swap1\n      tag_173\n      jump\t// in\n    tag_172:\n      mload(0x40)\n      dup1\n      swap2\n      sub\n      swap1\n      log1\n        /* \"contracts/Token.sol\":5145:5149  bets */\n      0x04\n        /* \"contracts/Token.sol\":5145:5160  bets[requestId] */\n      0x00\n        /* \"contracts/Token.sol\":5150:5159  requestId */\n      dup11\n        /* \"contracts/Token.sol\":5145:5160  bets[requestId] */\n      dup2\n      mstore\n      0x20\n      add\n      swap1\n      dup2\n      mstore\n      0x20\n      add\n      0x00\n      keccak256\n      0x00\n        /* \"contracts/Token.sol\":5138:5160  delete bets[requestId] */\n      0x00\n      dup3\n      add\n      exp(0x0100, 0x00)\n      dup2\n      sload\n      swap1\n      0xffffffffffffffffffffffffffffffffffffffff\n      mul\n      not\n      and\n      swap1\n      sstore\n      0x01\n      dup3\n      add\n      0x00\n      swap1\n      sstore\n      0x02\n      dup3\n      add\n      exp(0x0100, 0x00)\n      dup2\n      sload\n      swap1\n      0xff\n      mul\n      not\n      and\n      swap1\n      sstore\n      0x02\n      dup3\n      add\n      exp(0x0100, 0x01)\n      dup2\n      sload\n      swap1\n      0xff\n      mul\n      not\n      and\n      swap1\n      sstore\n      0x02\n      dup3\n      add\n      exp(0x0100, 0x02)\n      dup2\n      sload\n      swap1\n      0xff\n      mul\n      not\n      and\n      swap1\n      sstore\n      pop\n      pop\n        /* \"contracts/Token.sol\":3947:5168  {... */\n      pop\n      pop\n      pop\n      pop\n      pop\n      pop\n      pop\n        /* \"contracts/Token.sol\":3852:5168  function fulfillRandomWords(uint256 requestId, uint256[] memory randomWords) internal override {... */\n      pop\n      pop\n      jump\t// out\n        /* \"#utility.yul\":7:82   */\n    tag_174:\n        /* \"#utility.yul\":40:46   */\n      0x00\n        /* \"#utility.yul\":73:75   */\n      0x40\n        /* \"#utility.yul\":67:76   */\n      mload\n        /* \"#utility.yul\":57:76   */\n      swap1\n      pop\n        /* \"#utility.yul\":7:82   */\n      swap1\n      jump\t// out\n        /* \"#utility.yul\":88:205   */\n    tag_175:\n        /* \"#utility.yul\":197:198   */\n      0x00\n        /* \"#utility.yul\":194:195   */\n      0x00\n        /* \"#utility.yul\":187:199   */\n      revert\n        /* \"#utility.yul\":211:328   */\n    tag_176:\n        /* \"#utility.yul\":320:321   */\n      0x00\n        /* \"#utility.yul\":317:318   */\n      0x00\n        /* \"#utility.yul\":310:322   */\n      revert\n        /* \"#utility.yul\":334:411   */\n    tag_177:\n        /* \"#utility.yul\":371:378   */\n      0x00\n        /* \"#utility.yul\":400:405   */\n      dup2\n        /* \"#utility.yul\":389:405   */\n      swap1\n      pop\n        /* \"#utility.yul\":334:411   */\n      swap2\n      swap1\n      pop\n      jump\t// out\n        /* \"#utility.yul\":417:539   */\n    tag_178:\n        /* \"#utility.yul\":490:514   */\n      tag_231\n        /* \"#utility.yul\":508:513   */\n      dup2\n        /* \"#utility.yul\":490:514   */\n      tag_177\n      jump\t// in\n    tag_231:\n        /* \"#utility.yul\":483:488   */\n      dup2\n        /* \"#utility.yul\":480:515   */\n      eq\n        /* \"#utility.yul\":470:533   */\n      tag_232\n      jumpi\n        /* \"#utility.yul\":529:530   */\n      0x00\n        /* \"#utility.yul\":526:527   */\n      0x00\n        /* \"#utility.yul\":519:531   */\n      revert\n        /* \"#utility.yul\":470:533   */\n    tag_232:\n        /* \"#utility.yul\":417:539   */\n      pop\n      jump\t// out\n        /* \"#utility.yul\":545:684   */\n    tag_179:\n        /* \"#utility.yul\":591:596   */\n      0x00\n        /* \"#utility.yul\":629:635   */\n      dup2\n        /* \"#utility.yul\":616:636   */\n      calldataload\n        /* \"#utility.yul\":607:636   */\n      swap1\n      pop\n        /* \"#utility.yul\":645:678   */\n      tag_234\n        /* \"#utility.yul\":672:677   */\n      dup2\n        /* \"#utility.yul\":645:678   */\n      tag_178\n      jump\t// in\n    tag_234:\n        /* \"#utility.yul\":545:684   */\n      swap3\n      swap2\n      pop\n      pop\n      jump\t// out\n        /* \"#utility.yul\":690:807   */\n    tag_180:\n        /* \"#utility.yul\":799:800   */\n      0x00\n        /* \"#utility.yul\":796:797   */\n      0x00\n        /* \"#utility.yul\":789:801   */\n      revert\n        /* \"#utility.yul\":813:915   */\n    tag_181:\n        /* \"#utility.yul\":854:860   */\n      0x00\n        /* \"#utility.yul\":905:907   */\n      0x1f\n        /* \"#utility.yul\":901:908   */\n      not\n        /* \"#utility.yul\":896:898   */\n      0x1f\n        /* \"#utility.yul\":889:894   */\n      dup4\n        /* \"#utility.yul\":885:899   */\n      add\n        /* \"#utility.yul\":881:909   */\n      and\n        /* \"#utility.yul\":871:909   */\n      swap1\n      pop\n        /* \"#utility.yul\":813:915   */\n      swap2\n      swap1\n      pop\n      jump\t// out\n        /* \"#utility.yul\":921:1101   */\n    tag_182:\n        /* \"#utility.yul\":969:1046   */\n      0x4e487b7100000000000000000000000000000000000000000000000000000000\n        /* \"#utility.yul\":966:967   */\n      0x00\n        /* \"#utility.yul\":959:1047   */\n      mstore\n        /* \"#utility.yul\":1066:1070   */\n      0x41\n        /* \"#utility.yul\":1063:1064   */\n      0x04\n        /* \"#utility.yul\":1056:1071   */\n      mstore\n        /* \"#utility.yul\":1090:1094   */\n      0x24\n        /* \"#utility.yul\":1087:1088   */\n      0x00\n        /* \"#utility.yul\":1080:1095   */\n      revert\n        /* \"#utility.yul\":1107:1388   */\n    tag_183:\n        /* \"#utility.yul\":1190:1217   */\n      tag_239\n        /* \"#utility.yul\":1212:1216   */\n      dup3\n        /* \"#utility.yul\":1190:1217   */\n      tag_181\n      jump\t// in\n    tag_239:\n        /* \"#utility.yul\":1182:1188   */\n      dup2\n        /* \"#utility.yul\":1178:1218   */\n      add\n        /* \"#utility.yul\":1320:1326   */\n      dup2\n        /* \"#utility.yul\":1308:1318   */\n      dup2\n        /* \"#utility.yul\":1305:1327   */\n      lt\n        /* \"#utility.yul\":1284:1302   */\n      0xffffffffffffffff\n        /* \"#utility.yul\":1272:1282   */\n      dup3\n        /* \"#utility.yul\":1269:1303   */\n      gt\n        /* \"#utility.yul\":1266:1328   */\n      or\n        /* \"#utility.yul\":1263:1351   */\n      iszero\n      tag_240\n      jumpi\n        /* \"#utility.yul\":1331:1349   */\n      tag_241\n      tag_182\n      jump\t// in\n    tag_241:\n        /* \"#utility.yul\":1263:1351   */\n    tag_240:\n        /* \"#utility.yul\":1371:1381   */\n      dup1\n        /* \"#utility.yul\":1367:1369   */\n      0x40\n        /* \"#utility.yul\":1360:1382   */\n      mstore\n        /* \"#utility.yul\":1150:1388   */\n      pop\n        /* \"#utility.yul\":1107:1388   */\n      pop\n      pop\n      jump\t// out\n        /* \"#utility.yul\":1394:1523   */\n    tag_184:\n        /* \"#utility.yul\":1428:1434   */\n      0x00\n        /* \"#utility.yul\":1455:1475   */\n      tag_243\n      tag_174\n      jump\t// in\n    tag_243:\n        /* \"#utility.yul\":1445:1475   */\n      swap1\n      pop\n        /* \"#utility.yul\":1484:1517   */\n      tag_244\n        /* \"#utility.yul\":1512:1516   */\n      dup3\n        /* \"#utility.yul\":1504:1510   */\n      dup3\n        /* \"#utility.yul\":1484:1517   */\n      tag_183\n      jump\t// in\n    tag_244:\n        /* \"#utility.yul\":1394:1523   */\n      swap2\n      swap1\n      pop\n      jump\t// out\n        /* \"#utility.yul\":1529:1840   */\n    tag_185:\n        /* \"#utility.yul\":1606:1610   */\n      0x00\n        /* \"#utility.yul\":1696:1714   */\n      0xffffffffffffffff\n        /* \"#utility.yul\":1688:1694   */\n      dup3\n        /* \"#utility.yul\":1685:1715   */\n      gt\n        /* \"#utility.yul\":1682:1738   */\n      iszero\n      tag_246\n      jumpi\n        /* \"#utility.yul\":1718:1736   */\n      tag_247\n      tag_182\n      jump\t// in\n    tag_247:\n        /* \"#utility.yul\":1682:1738   */\n    tag_246:\n        /* \"#utility.yul\":1768:1772   */\n      0x20\n        /* \"#utility.yul\":1760:1766   */\n      dup3\n        /* \"#utility.yul\":1756:1773   */\n      mul\n        /* \"#utility.yul\":1748:1773   */\n      swap1\n      pop\n        /* \"#utility.yul\":1828:1832   */\n      0x20\n        /* \"#utility.yul\":1822:1826   */\n      dup2\n        /* \"#utility.yul\":1818:1833   */\n      add\n        /* \"#utility.yul\":1810:1833   */\n      swap1\n      pop\n        /* \"#utility.yul\":1529:1840   */\n      swap2\n      swap1\n      pop\n      jump\t// out\n        /* \"#utility.yul\":1846:1963   */\n    tag_186:\n        /* \"#utility.yul\":1955:1956   */\n      0x00\n        /* \"#utility.yul\":1952:1953   */\n      0x00\n        /* \"#utility.yul\":1945:1957   */\n      revert\n        /* \"#utility.yul\":1986:2696   */\n    tag_187:\n        /* \"#utility.yul\":2082:2087   */\n      0x00\n        /* \"#utility.yul\":2107:2188   */\n      tag_250\n        /* \"#utility.yul\":2123:2187   */\n      tag_251\n        /* \"#utility.yul\":2180:2186   */\n      dup5\n        /* \"#utility.yul\":2123:2187   */\n      tag_185\n      jump\t// in\n    tag_251:\n        /* \"#utility.yul\":2107:2188   */\n      tag_184\n      jump\t// in\n    tag_250:\n        /* \"#utility.yul\":2098:2188   */\n      swap1\n      pop\n        /* \"#utility.yul\":2208:2213   */\n      dup1\n        /* \"#utility.yul\":2237:2243   */\n      dup4\n        /* \"#utility.yul\":2230:2235   */\n      dup3\n        /* \"#utility.yul\":2223:2244   */\n      mstore\n        /* \"#utility.yul\":2271:2275   */\n      0x20\n        /* \"#utility.yul\":2264:2269   */\n      dup3\n        /* \"#utility.yul\":2260:2276   */\n      add\n        /* \"#utility.yul\":2253:2276   */\n      swap1\n      pop\n        /* \"#utility.yul\":2324:2328   */\n      0x20\n        /* \"#utility.yul\":2316:2322   */\n      dup5\n        /* \"#utility.yul\":2312:2329   */\n      mul\n        /* \"#utility.yul\":2304:2310   */\n      dup4\n        /* \"#utility.yul\":2300:2330   */\n      add\n        /* \"#utility.yul\":2353:2356   */\n      dup6\n        /* \"#utility.yul\":2345:2351   */\n      dup2\n        /* \"#utility.yul\":2342:2357   */\n      gt\n        /* \"#utility.yul\":2339:2461   */\n      iszero\n      tag_252\n      jumpi\n        /* \"#utility.yul\":2372:2451   */\n      tag_253\n      tag_186\n      jump\t// in\n    tag_253:\n        /* \"#utility.yul\":2339:2461   */\n    tag_252:\n        /* \"#utility.yul\":2487:2493   */\n      dup4\n        /* \"#utility.yul\":2470:2690   */\n    tag_254:\n        /* \"#utility.yul\":2504:2510   */\n      dup2\n        /* \"#utility.yul\":2499:2502   */\n      dup2\n        /* \"#utility.yul\":2496:2511   */\n      lt\n        /* \"#utility.yul\":2470:2690   */\n      iszero\n      tag_256\n      jumpi\n        /* \"#utility.yul\":2579:2582   */\n      dup1\n        /* \"#utility.yul\":2608:2645   */\n      tag_257\n        /* \"#utility.yul\":2641:2644   */\n      dup9\n        /* \"#utility.yul\":2629:2639   */\n      dup3\n        /* \"#utility.yul\":2608:2645   */\n      tag_179\n      jump\t// in\n    tag_257:\n        /* \"#utility.yul\":2603:2606   */\n      dup5\n        /* \"#utility.yul\":2596:2646   */\n      mstore\n        /* \"#utility.yul\":2675:2679   */\n      0x20\n        /* \"#utility.yul\":2670:2673   */\n      dup5\n        /* \"#utility.yul\":2666:2680   */\n      add\n        /* \"#utility.yul\":2659:2680   */\n      swap4\n      pop\n        /* \"#utility.yul\":2546:2690   */\n      pop\n        /* \"#utility.yul\":2530:2534   */\n      0x20\n        /* \"#utility.yul\":2525:2528   */\n      dup2\n        /* \"#utility.yul\":2521:2535   */\n      add\n        /* \"#utility.yul\":2514:2535   */\n      swap1\n      pop\n        /* \"#utility.yul\":2470:2690   */\n      jump(tag_254)\n    tag_256:\n        /* \"#utility.yul\":2474:2495   */\n      pop\n        /* \"#utility.yul\":2088:2696   */\n      pop\n      pop\n        /* \"#utility.yul\":1986:2696   */\n      swap4\n      swap3\n      pop\n      pop\n      pop\n      jump\t// out\n        /* \"#utility.yul\":2719:3089   */\n    tag_188:\n        /* \"#utility.yul\":2790:2795   */\n      0x00\n        /* \"#utility.yul\":2839:2842   */\n      dup3\n        /* \"#utility.yul\":2832:2836   */\n      0x1f\n        /* \"#utility.yul\":2824:2830   */\n      dup4\n        /* \"#utility.yul\":2820:2837   */\n      add\n        /* \"#utility.yul\":2816:2843   */\n      slt\n        /* \"#utility.yul\":2806:2928   */\n      tag_259\n      jumpi\n        /* \"#utility.yul\":2847:2926   */\n      tag_260\n      tag_180\n      jump\t// in\n    tag_260:\n        /* \"#utility.yul\":2806:2928   */\n    tag_259:\n        /* \"#utility.yul\":2964:2970   */\n      dup2\n        /* \"#utility.yul\":2951:2971   */\n      calldataload\n        /* \"#utility.yul\":2989:3083   */\n      tag_261\n        /* \"#utility.yul\":3079:3082   */\n      dup5\n        /* \"#utility.yul\":3071:3077   */\n      dup3\n        /* \"#utility.yul\":3064:3068   */\n      0x20\n        /* \"#utility.yul\":3056:3062   */\n      dup7\n        /* \"#utility.yul\":3052:3069   */\n      add\n        /* \"#utility.yul\":2989:3083   */\n      tag_187\n      jump\t// in\n    tag_261:\n        /* \"#utility.yul\":2980:3083   */\n      swap2\n      pop\n        /* \"#utility.yul\":2796:3089   */\n      pop\n        /* \"#utility.yul\":2719:3089   */\n      swap3\n      swap2\n      pop\n      pop\n      jump\t// out\n        /* \"#utility.yul\":3095:3779   */\n    tag_18:\n        /* \"#utility.yul\":3188:3194   */\n      0x00\n        /* \"#utility.yul\":3196:3202   */\n      0x00\n        /* \"#utility.yul\":3245:3247   */\n      0x40\n        /* \"#utility.yul\":3233:3242   */\n      dup4\n        /* \"#utility.yul\":3224:3231   */\n      dup6\n        /* \"#utility.yul\":3220:3243   */\n      sub\n        /* \"#utility.yul\":3216:3248   */\n      slt\n        /* \"#utility.yul\":3213:3332   */\n      iszero\n      tag_263\n      jumpi\n        /* \"#utility.yul\":3251:3330   */\n      tag_264\n      tag_175\n      jump\t// in\n    tag_264:\n        /* \"#utility.yul\":3213:3332   */\n    tag_263:\n        /* \"#utility.yul\":3371:3372   */\n      0x00\n        /* \"#utility.yul\":3396:3449   */\n      tag_265\n        /* \"#utility.yul\":3441:3448   */\n      dup6\n        /* \"#utility.yul\":3432:3438   */\n      dup3\n        /* \"#utility.yul\":3421:3430   */\n      dup7\n        /* \"#utility.yul\":3417:3439   */\n      add\n        /* \"#utility.yul\":3396:3449   */\n      tag_179\n      jump\t// in\n    tag_265:\n        /* \"#utility.yul\":3386:3449   */\n      swap3\n      pop\n        /* \"#utility.yul\":3342:3459   */\n      pop\n        /* \"#utility.yul\":3526:3528   */\n      0x20\n        /* \"#utility.yul\":3515:3524   */\n      dup4\n        /* \"#utility.yul\":3511:3529   */\n      add\n        /* \"#utility.yul\":3498:3530   */\n      calldataload\n        /* \"#utility.yul\":3557:3575   */\n      0xffffffffffffffff\n        /* \"#utility.yul\":3549:3555   */\n      dup2\n        /* \"#utility.yul\":3546:3576   */\n      gt\n        /* \"#utility.yul\":3543:3660   */\n      iszero\n      tag_266\n      jumpi\n        /* \"#utility.yul\":3579:3658   */\n      tag_267\n      tag_176\n      jump\t// in\n    tag_267:\n        /* \"#utility.yul\":3543:3660   */\n    tag_266:\n        /* \"#utility.yul\":3684:3762   */\n      tag_268\n        /* \"#utility.yul\":3754:3761   */\n      dup6\n        /* \"#utility.yul\":3745:3751   */\n      dup3\n        /* \"#utility.yul\":3734:3743   */\n      dup7\n        /* \"#utility.yul\":3730:3752   */\n      add\n        /* \"#utility.yul\":3684:3762   */\n      tag_188\n      jump\t// in\n    tag_268:\n        /* \"#utility.yul\":3674:3762   */\n      swap2\n      pop\n        /* \"#utility.yul\":3469:3772   */\n      pop\n        /* \"#utility.yul\":3095:3779   */\n      swap3\n      pop\n      swap3\n      swap1\n      pop\n      jump\t// out\n        /* \"#utility.yul\":3785:4114   */\n    tag_23:\n        /* \"#utility.yul\":3844:3850   */\n      0x00\n        /* \"#utility.yul\":3893:3895   */\n      0x20\n        /* \"#utility.yul\":3881:3890   */\n      dup3\n        /* \"#utility.yul\":3872:3879   */\n      dup5\n        /* \"#utility.yul\":3868:3891   */\n      sub\n        /* \"#utility.yul\":3864:3896   */\n      slt\n        /* \"#utility.yul\":3861:3980   */\n      iszero\n      tag_270\n      jumpi\n        /* \"#utility.yul\":3899:3978   */\n      tag_271\n      tag_175\n      jump\t// in\n    tag_271:\n        /* \"#utility.yul\":3861:3980   */\n    tag_270:\n        /* \"#utility.yul\":4019:4020   */\n      0x00\n        /* \"#utility.yul\":4044:4097   */\n      tag_272\n        /* \"#utility.yul\":4089:4096   */\n      dup5\n        /* \"#utility.yul\":4080:4086   */\n      dup3\n        /* \"#utility.yul\":4069:4078   */\n      dup6\n        /* \"#utility.yul\":4065:4087   */\n      add\n        /* \"#utility.yul\":4044:4097   */\n      tag_179\n      jump\t// in\n    tag_272:\n        /* \"#utility.yul\":4034:4097   */\n      swap2\n      pop\n        /* \"#utility.yul\":3990:4107   */\n      pop\n        /* \"#utility.yul\":3785:4114   */\n      swap3\n      swap2\n      pop\n      pop\n      jump\t// out\n        /* \"#utility.yul\":4120:4246   */\n    tag_189:\n        /* \"#utility.yul\":4157:4164   */\n      0x00\n        /* \"#utility.yul\":4197:4239   */\n      0xffffffffffffffffffffffffffffffffffffffff\n        /* \"#utility.yul\":4190:4195   */\n      dup3\n        /* \"#utility.yul\":4186:4240   */\n      and\n        /* \"#utility.yul\":4175:4240   */\n      swap1\n      pop\n        /* \"#utility.yul\":4120:4246   */\n      swap2\n      swap1\n      pop\n      jump\t// out\n        /* \"#utility.yul\":4252:4348   */\n    tag_190:\n        /* \"#utility.yul\":4289:4296   */\n      0x00\n        /* \"#utility.yul\":4318:4342   */\n      tag_275\n        /* \"#utility.yul\":4336:4341   */\n      dup3\n        /* \"#utility.yul\":4318:4342   */\n      tag_189\n      jump\t// in\n    tag_275:\n        /* \"#utility.yul\":4307:4342   */\n      swap1\n      pop\n        /* \"#utility.yul\":4252:4348   */\n      swap2\n      swap1\n      pop\n      jump\t// out\n        /* \"#utility.yul\":4354:4472   */\n    tag_191:\n        /* \"#utility.yul\":4441:4465   */\n      tag_277\n        /* \"#utility.yul\":4459:4464   */\n      dup2\n        /* \"#utility.yul\":4441:4465   */\n      tag_190\n      jump\t// in\n    tag_277:\n        /* \"#utility.yul\":4436:4439   */\n      dup3\n        /* \"#utility.yul\":4429:4466   */\n      mstore\n        /* \"#utility.yul\":4354:4472   */\n      pop\n      pop\n      jump\t// out\n        /* \"#utility.yul\":4478:4596   */\n    tag_192:\n        /* \"#utility.yul\":4565:4589   */\n      tag_279\n        /* \"#utility.yul\":4583:4588   */\n      dup2\n        /* \"#utility.yul\":4565:4589   */\n      tag_177\n      jump\t// in\n    tag_279:\n        /* \"#utility.yul\":4560:4563   */\n      dup3\n        /* \"#utility.yul\":4553:4590   */\n      mstore\n        /* \"#utility.yul\":4478:4596   */\n      pop\n      pop\n      jump\t// out\n        /* \"#utility.yul\":4602:4782   */\n    tag_51:\n        /* \"#utility.yul\":4650:4727   */\n      0x4e487b7100000000000000000000000000000000000000000000000000000000\n        /* \"#utility.yul\":4647:4648   */\n      0x00\n        /* \"#utility.yul\":4640:4728   */\n      mstore\n        /* \"#utility.yul\":4747:4751   */\n      0x21\n        /* \"#utility.yul\":4744:4745   */\n      0x04\n        /* \"#utility.yul\":4737:4752   */\n      mstore\n        /* \"#utility.yul\":4771:4775   */\n      0x24\n        /* \"#utility.yul\":4768:4769   */\n      0x00\n        /* \"#utility.yul\":4761:4776   */\n      revert\n        /* \"#utility.yul\":4788:4904   */\n    tag_193:\n        /* \"#utility.yul\":4872:4873   */\n      0x05\n        /* \"#utility.yul\":4865:4870   */\n      dup2\n        /* \"#utility.yul\":4862:4874   */\n      lt\n        /* \"#utility.yul\":4852:4898   */\n      tag_282\n      jumpi\n        /* \"#utility.yul\":4878:4896   */\n      tag_283\n      tag_51\n      jump\t// in\n    tag_283:\n        /* \"#utility.yul\":4852:4898   */\n    tag_282:\n        /* \"#utility.yul\":4788:4904   */\n      pop\n      jump\t// out\n        /* \"#utility.yul\":4910:5043   */\n    tag_194:\n        /* \"#utility.yul\":4958:4965   */\n      0x00\n        /* \"#utility.yul\":4987:4992   */\n      dup2\n        /* \"#utility.yul\":4976:4992   */\n      swap1\n      pop\n        /* \"#utility.yul\":4993:5037   */\n      tag_285\n        /* \"#utility.yul\":5031:5036   */\n      dup3\n        /* \"#utility.yul\":4993:5037   */\n      tag_193\n      jump\t// in\n    tag_285:\n        /* \"#utility.yul\":4910:5043   */\n      swap2\n      swap1\n      pop\n      jump\t// out\n        /* \"#utility.yul\":5049:5182   */\n    tag_195:\n        /* \"#utility.yul\":5108:5117   */\n      0x00\n        /* \"#utility.yul\":5141:5176   */\n      tag_287\n        /* \"#utility.yul\":5170:5175   */\n      dup3\n        /* \"#utility.yul\":5141:5176   */\n      tag_194\n      jump\t// in\n    tag_287:\n        /* \"#utility.yul\":5128:5176   */\n      swap1\n      pop\n        /* \"#utility.yul\":5049:5182   */\n      swap2\n      swap1\n      pop\n      jump\t// out\n        /* \"#utility.yul\":5188:5337   */\n    tag_196:\n        /* \"#utility.yul\":5284:5330   */\n      tag_289\n        /* \"#utility.yul\":5324:5329   */\n      dup2\n        /* \"#utility.yul\":5284:5330   */\n      tag_195\n      jump\t// in\n    tag_289:\n        /* \"#utility.yul\":5279:5282   */\n      dup3\n        /* \"#utility.yul\":5272:5331   */\n      mstore\n        /* \"#utility.yul\":5188:5337   */\n      pop\n      pop\n      jump\t// out\n        /* \"#utility.yul\":5343:5429   */\n    tag_197:\n        /* \"#utility.yul\":5378:5385   */\n      0x00\n        /* \"#utility.yul\":5418:5422   */\n      0xff\n        /* \"#utility.yul\":5411:5416   */\n      dup3\n        /* \"#utility.yul\":5407:5423   */\n      and\n        /* \"#utility.yul\":5396:5423   */\n      swap1\n      pop\n        /* \"#utility.yul\":5343:5429   */\n      swap2\n      swap1\n      pop\n      jump\t// out\n        /* \"#utility.yul\":5435:5547   */\n    tag_198:\n        /* \"#utility.yul\":5518:5540   */\n      tag_292\n        /* \"#utility.yul\":5534:5539   */\n      dup2\n        /* \"#utility.yul\":5518:5540   */\n      tag_197\n      jump\t// in\n    tag_292:\n        /* \"#utility.yul\":5513:5516   */\n      dup3\n        /* \"#utility.yul\":5506:5541   */\n      mstore\n        /* \"#utility.yul\":5435:5547   */\n      pop\n      pop\n      jump\t// out\n        /* \"#utility.yul\":5553:5643   */\n    tag_199:\n        /* \"#utility.yul\":5587:5594   */\n      0x00\n        /* \"#utility.yul\":5630:5635   */\n      dup2\n        /* \"#utility.yul\":5623:5636   */\n      iszero\n        /* \"#utility.yul\":5616:5637   */\n      iszero\n        /* \"#utility.yul\":5605:5637   */\n      swap1\n      pop\n        /* \"#utility.yul\":5553:5643   */\n      swap2\n      swap1\n      pop\n      jump\t// out\n        /* \"#utility.yul\":5649:5758   */\n    tag_200:\n        /* \"#utility.yul\":5730:5751   */\n      tag_295\n        /* \"#utility.yul\":5745:5750   */\n      dup2\n        /* \"#utility.yul\":5730:5751   */\n      tag_199\n      jump\t// in\n    tag_295:\n        /* \"#utility.yul\":5725:5728   */\n      dup3\n        /* \"#utility.yul\":5718:5752   */\n      mstore\n        /* \"#utility.yul\":5649:5758   */\n      pop\n      pop\n      jump\t// out\n        /* \"#utility.yul\":5764:6426   */\n    tag_26:\n        /* \"#utility.yul\":5968:5972   */\n      0x00\n        /* \"#utility.yul\":6006:6009   */\n      0xa0\n        /* \"#utility.yul\":5995:6004   */\n      dup3\n        /* \"#utility.yul\":5991:6010   */\n      add\n        /* \"#utility.yul\":5983:6010   */\n      swap1\n      pop\n        /* \"#utility.yul\":6020:6091   */\n      tag_297\n        /* \"#utility.yul\":6088:6089   */\n      0x00\n        /* \"#utility.yul\":6077:6086   */\n      dup4\n        /* \"#utility.yul\":6073:6090   */\n      add\n        /* \"#utility.yul\":6064:6070   */\n      dup9\n        /* \"#utility.yul\":6020:6091   */\n      tag_191\n      jump\t// in\n    tag_297:\n        /* \"#utility.yul\":6101:6173   */\n      tag_298\n        /* \"#utility.yul\":6169:6171   */\n      0x20\n        /* \"#utility.yul\":6158:6167   */\n      dup4\n        /* \"#utility.yul\":6154:6172   */\n      add\n        /* \"#utility.yul\":6145:6151   */\n      dup8\n        /* \"#utility.yul\":6101:6173   */\n      tag_192\n      jump\t// in\n    tag_298:\n        /* \"#utility.yul\":6183:6264   */\n      tag_299\n        /* \"#utility.yul\":6260:6262   */\n      0x40\n        /* \"#utility.yul\":6249:6258   */\n      dup4\n        /* \"#utility.yul\":6245:6263   */\n      add\n        /* \"#utility.yul\":6236:6242   */\n      dup7\n        /* \"#utility.yul\":6183:6264   */\n      tag_196\n      jump\t// in\n    tag_299:\n        /* \"#utility.yul\":6274:6342   */\n      tag_300\n        /* \"#utility.yul\":6338:6340   */\n      0x60\n        /* \"#utility.yul\":6327:6336   */\n      dup4\n        /* \"#utility.yul\":6323:6341   */\n      add\n        /* \"#utility.yul\":6314:6320   */\n      dup6\n        /* \"#utility.yul\":6274:6342   */\n      tag_198\n      jump\t// in\n    tag_300:\n        /* \"#utility.yul\":6352:6419   */\n      tag_301\n        /* \"#utility.yul\":6414:6417   */\n      0x80\n        /* \"#utility.yul\":6403:6412   */\n      dup4\n        /* \"#utility.yul\":6399:6418   */\n      add\n        /* \"#utility.yul\":6390:6396   */\n      dup5\n        /* \"#utility.yul\":6352:6419   */\n      tag_200\n      jump\t// in\n    tag_301:\n        /* \"#utility.yul\":5764:6426   */\n      swap7\n      swap6\n      pop\n      pop\n      pop\n      pop\n      pop\n      pop\n      jump\t// out\n        /* \"#utility.yul\":6432:6550   */\n    tag_201:\n        /* \"#utility.yul\":6503:6525   */\n      tag_303\n        /* \"#utility.yul\":6519:6524   */\n      dup2\n        /* \"#utility.yul\":6503:6525   */\n      tag_197\n      jump\t// in\n    tag_303:\n        /* \"#utility.yul\":6496:6501   */\n      dup2\n        /* \"#utility.yul\":6493:6526   */\n      eq\n        /* \"#utility.yul\":6483:6544   */\n      tag_304\n      jumpi\n        /* \"#utility.yul\":6540:6541   */\n      0x00\n        /* \"#utility.yul\":6537:6538   */\n      0x00\n        /* \"#utility.yul\":6530:6542   */\n      revert\n        /* \"#utility.yul\":6483:6544   */\n    tag_304:\n        /* \"#utility.yul\":6432:6550   */\n      pop\n      jump\t// out\n        /* \"#utility.yul\":6556:6691   */\n    tag_202:\n        /* \"#utility.yul\":6600:6605   */\n      0x00\n        /* \"#utility.yul\":6638:6644   */\n      dup2\n        /* \"#utility.yul\":6625:6645   */\n      calldataload\n        /* \"#utility.yul\":6616:6645   */\n      swap1\n      pop\n        /* \"#utility.yul\":6654:6685   */\n      tag_306\n        /* \"#utility.yul\":6679:6684   */\n      dup2\n        /* \"#utility.yul\":6654:6685   */\n      tag_201\n      jump\t// in\n    tag_306:\n        /* \"#utility.yul\":6556:6691   */\n      swap3\n      swap2\n      pop\n      pop\n      jump\t// out\n        /* \"#utility.yul\":6697:7022   */\n    tag_29:\n        /* \"#utility.yul\":6754:6760   */\n      0x00\n        /* \"#utility.yul\":6803:6805   */\n      0x20\n        /* \"#utility.yul\":6791:6800   */\n      dup3\n        /* \"#utility.yul\":6782:6789   */\n      dup5\n        /* \"#utility.yul\":6778:6801   */\n      sub\n        /* \"#utility.yul\":6774:6806   */\n      slt\n        /* \"#utility.yul\":6771:6890   */\n      iszero\n      tag_308\n      jumpi\n        /* \"#utility.yul\":6809:6888   */\n      tag_309\n      tag_175\n      jump\t// in\n    tag_309:\n        /* \"#utility.yul\":6771:6890   */\n    tag_308:\n        /* \"#utility.yul\":6929:6930   */\n      0x00\n        /* \"#utility.yul\":6954:7005   */\n      tag_310\n        /* \"#utility.yul\":6997:7004   */\n      dup5\n        /* \"#utility.yul\":6988:6994   */\n      dup3\n        /* \"#utility.yul\":6977:6986   */\n      dup6\n        /* \"#utility.yul\":6973:6995   */\n      add\n        /* \"#utility.yul\":6954:7005   */\n      tag_202\n      jump\t// in\n    tag_310:\n        /* \"#utility.yul\":6944:7005   */\n      swap2\n      pop\n        /* \"#utility.yul\":6900:7015   */\n      pop\n        /* \"#utility.yul\":6697:7022   */\n      swap3\n      swap2\n      pop\n      pop\n      jump\t// out\n        /* \"#utility.yul\":7028:7144   */\n    tag_203:\n        /* \"#utility.yul\":7098:7119   */\n      tag_312\n        /* \"#utility.yul\":7113:7118   */\n      dup2\n        /* \"#utility.yul\":7098:7119   */\n      tag_199\n      jump\t// in\n    tag_312:\n        /* \"#utility.yul\":7091:7096   */\n      dup2\n        /* \"#utility.yul\":7088:7120   */\n      eq\n        /* \"#utility.yul\":7078:7138   */\n      tag_313\n      jumpi\n        /* \"#utility.yul\":7134:7135   */\n      0x00\n        /* \"#utility.yul\":7131:7132   */\n      0x00\n        /* \"#utility.yul\":7124:7136   */\n      revert\n        /* \"#utility.yul\":7078:7138   */\n    tag_313:\n        /* \"#utility.yul\":7028:7144   */\n      pop\n      jump\t// out\n        /* \"#utility.yul\":7150:7283   */\n    tag_204:\n        /* \"#utility.yul\":7193:7198   */\n      0x00\n        /* \"#utility.yul\":7231:7237   */\n      dup2\n        /* \"#utility.yul\":7218:7238   */\n      calldataload\n        /* \"#utility.yul\":7209:7238   */\n      swap1\n      pop\n        /* \"#utility.yul\":7247:7277   */\n      tag_315\n        /* \"#utility.yul\":7271:7276   */\n      dup2\n        /* \"#utility.yul\":7247:7277   */\n      tag_203\n      jump\t// in\n    tag_315:\n        /* \"#utility.yul\":7150:7283   */\n      swap3\n      swap2\n      pop\n      pop\n      jump\t// out\n        /* \"#utility.yul\":7289:7612   */\n    tag_37:\n        /* \"#utility.yul\":7345:7351   */\n      0x00\n        /* \"#utility.yul\":7394:7396   */\n      0x20\n        /* \"#utility.yul\":7382:7391   */\n      dup3\n        /* \"#utility.yul\":7373:7380   */\n      dup5\n        /* \"#utility.yul\":7369:7392   */\n      sub\n        /* \"#utility.yul\":7365:7397   */\n      slt\n        /* \"#utility.yul\":7362:7481   */\n      iszero\n      tag_317\n      jumpi\n        /* \"#utility.yul\":7400:7479   */\n      tag_318\n      tag_175\n      jump\t// in\n    tag_318:\n        /* \"#utility.yul\":7362:7481   */\n    tag_317:\n        /* \"#utility.yul\":7520:7521   */\n      0x00\n        /* \"#utility.yul\":7545:7595   */\n      tag_319\n        /* \"#utility.yul\":7587:7594   */\n      dup5\n        /* \"#utility.yul\":7578:7584   */\n      dup3\n        /* \"#utility.yul\":7567:7576   */\n      dup6\n        /* \"#utility.yul\":7563:7585   */\n      add\n        /* \"#utility.yul\":7545:7595   */\n      tag_204\n      jump\t// in\n    tag_319:\n        /* \"#utility.yul\":7535:7595   */\n      swap2\n      pop\n        /* \"#utility.yul\":7491:7605   */\n      pop\n        /* \"#utility.yul\":7289:7612   */\n      swap3\n      swap2\n      pop\n      pop\n      jump\t// out\n        /* \"#utility.yul\":7618:7787   */\n    tag_205:\n        /* \"#utility.yul\":7702:7713   */\n      0x00\n        /* \"#utility.yul\":7736:7742   */\n      dup3\n        /* \"#utility.yul\":7731:7734   */\n      dup3\n        /* \"#utility.yul\":7724:7743   */\n      mstore\n        /* \"#utility.yul\":7776:7780   */\n      0x20\n        /* \"#utility.yul\":7771:7774   */\n      dup3\n        /* \"#utility.yul\":7767:7781   */\n      add\n        /* \"#utility.yul\":7752:7781   */\n      swap1\n      pop\n        /* \"#utility.yul\":7618:7787   */\n      swap3\n      swap2\n      pop\n      pop\n      jump\t// out\n        /* \"#utility.yul\":7793:7969   */\n    tag_206:\n        /* \"#utility.yul\":7933:7961   */\n      0x426574206d7573742062652067726561746572207468616e2030000000000000\n        /* \"#utility.yul\":7929:7930   */\n      0x00\n        /* \"#utility.yul\":7921:7927   */\n      dup3\n        /* \"#utility.yul\":7917:7931   */\n      add\n        /* \"#utility.yul\":7910:7962   */\n      mstore\n        /* \"#utility.yul\":7793:7969   */\n      pop\n      jump\t// out\n        /* \"#utility.yul\":7975:8341   */\n    tag_207:\n        /* \"#utility.yul\":8117:8120   */\n      0x00\n        /* \"#utility.yul\":8138:8205   */\n      tag_323\n        /* \"#utility.yul\":8202:8204   */\n      0x1a\n        /* \"#utility.yul\":8197:8200   */\n      dup4\n        /* \"#utility.yul\":8138:8205   */\n      tag_205\n      jump\t// in\n    tag_323:\n        /* \"#utility.yul\":8131:8205   */\n      swap2\n      pop\n        /* \"#utility.yul\":8214:8307   */\n      tag_324\n        /* \"#utility.yul\":8303:8306   */\n      dup3\n        /* \"#utility.yul\":8214:8307   */\n      tag_206\n      jump\t// in\n    tag_324:\n        /* \"#utility.yul\":8332:8334   */\n      0x20\n        /* \"#utility.yul\":8327:8330   */\n      dup3\n        /* \"#utility.yul\":8323:8335   */\n      add\n        /* \"#utility.yul\":8316:8335   */\n      swap1\n      pop\n        /* \"#utility.yul\":7975:8341   */\n      swap2\n      swap1\n      pop\n      jump\t// out\n        /* \"#utility.yul\":8347:8766   */\n    tag_42:\n        /* \"#utility.yul\":8513:8517   */\n      0x00\n        /* \"#utility.yul\":8551:8553   */\n      0x20\n        /* \"#utility.yul\":8540:8549   */\n      dup3\n        /* \"#utility.yul\":8536:8554   */\n      add\n        /* \"#utility.yul\":8528:8554   */\n      swap1\n      pop\n        /* \"#utility.yul\":8600:8609   */\n      dup2\n        /* \"#utility.yul\":8594:8598   */\n      dup2\n        /* \"#utility.yul\":8590:8610   */\n      sub\n        /* \"#utility.yul\":8586:8587   */\n      0x00\n        /* \"#utility.yul\":8575:8584   */\n      dup4\n        /* \"#utility.yul\":8571:8588   */\n      add\n        /* \"#utility.yul\":8564:8611   */\n      mstore\n        /* \"#utility.yul\":8628:8759   */\n      tag_326\n        /* \"#utility.yul\":8754:8758   */\n      dup2\n        /* \"#utility.yul\":8628:8759   */\n      tag_207\n      jump\t// in\n    tag_326:\n        /* \"#utility.yul\":8620:8759   */\n      swap1\n      pop\n        /* \"#utility.yul\":8347:8766   */\n      swap2\n      swap1\n      pop\n      jump\t// out\n        /* \"#utility.yul\":8772:8849   */\n    tag_208:\n        /* \"#utility.yul\":8809:8816   */\n      0x00\n        /* \"#utility.yul\":8838:8843   */\n      dup2\n        /* \"#utility.yul\":8827:8843   */\n      swap1\n      pop\n        /* \"#utility.yul\":8772:8849   */\n      swap2\n      swap1\n      pop\n      jump\t// out\n        /* \"#utility.yul\":8855:8973   */\n    tag_209:\n        /* \"#utility.yul\":8942:8966   */\n      tag_329\n        /* \"#utility.yul\":8960:8965   */\n      dup2\n        /* \"#utility.yul\":8942:8966   */\n      tag_208\n      jump\t// in\n    tag_329:\n        /* \"#utility.yul\":8937:8940   */\n      dup3\n        /* \"#utility.yul\":8930:8967   */\n      mstore\n        /* \"#utility.yul\":8855:8973   */\n      pop\n      pop\n      jump\t// out\n        /* \"#utility.yul\":8979:9080   */\n    tag_210:\n        /* \"#utility.yul\":9015:9022   */\n      0x00\n        /* \"#utility.yul\":9055:9073   */\n      0xffffffffffffffff\n        /* \"#utility.yul\":9048:9053   */\n      dup3\n        /* \"#utility.yul\":9044:9074   */\n      and\n        /* \"#utility.yul\":9033:9074   */\n      swap1\n      pop\n        /* \"#utility.yul\":8979:9080   */\n      swap2\n      swap1\n      pop\n      jump\t// out\n        /* \"#utility.yul\":9086:9201   */\n    tag_211:\n        /* \"#utility.yul\":9171:9194   */\n      tag_332\n        /* \"#utility.yul\":9188:9193   */\n      dup2\n        /* \"#utility.yul\":9171:9194   */\n      tag_210\n      jump\t// in\n    tag_332:\n        /* \"#utility.yul\":9166:9169   */\n      dup3\n        /* \"#utility.yul\":9159:9195   */\n      mstore\n        /* \"#utility.yul\":9086:9201   */\n      pop\n      pop\n      jump\t// out\n        /* \"#utility.yul\":9207:9296   */\n    tag_212:\n        /* \"#utility.yul\":9243:9250   */\n      0x00\n        /* \"#utility.yul\":9283:9289   */\n      0xffff\n        /* \"#utility.yul\":9276:9281   */\n      dup3\n        /* \"#utility.yul\":9272:9290   */\n      and\n        /* \"#utility.yul\":9261:9290   */\n      swap1\n      pop\n        /* \"#utility.yul\":9207:9296   */\n      swap2\n      swap1\n      pop\n      jump\t// out\n        /* \"#utility.yul\":9302:9417   */\n    tag_213:\n        /* \"#utility.yul\":9387:9410   */\n      tag_335\n        /* \"#utility.yul\":9404:9409   */\n      dup2\n        /* \"#utility.yul\":9387:9410   */\n      tag_212\n      jump\t// in\n    tag_335:\n        /* \"#utility.yul\":9382:9385   */\n      dup3\n        /* \"#utility.yul\":9375:9411   */\n      mstore\n        /* \"#utility.yul\":9302:9417   */\n      pop\n      pop\n      jump\t// out\n        /* \"#utility.yul\":9423:9516   */\n    tag_214:\n        /* \"#utility.yul\":9459:9466   */\n      0x00\n        /* \"#utility.yul\":9499:9509   */\n      0xffffffff\n        /* \"#utility.yul\":9492:9497   */\n      dup3\n        /* \"#utility.yul\":9488:9510   */\n      and\n        /* \"#utility.yul\":9477:9510   */\n      swap1\n      pop\n        /* \"#utility.yul\":9423:9516   */\n      swap2\n      swap1\n      pop\n      jump\t// out\n        /* \"#utility.yul\":9522:9637   */\n    tag_215:\n        /* \"#utility.yul\":9607:9630   */\n      tag_338\n        /* \"#utility.yul\":9624:9629   */\n      dup2\n        /* \"#utility.yul\":9607:9630   */\n      tag_214\n      jump\t// in\n    tag_338:\n        /* \"#utility.yul\":9602:9605   */\n      dup3\n        /* \"#utility.yul\":9595:9631   */\n      mstore\n        /* \"#utility.yul\":9522:9637   */\n      pop\n      pop\n      jump\t// out\n        /* \"#utility.yul\":9643:10291   */\n    tag_44:\n        /* \"#utility.yul\":9840:9844   */\n      0x00\n        /* \"#utility.yul\":9878:9881   */\n      0xa0\n        /* \"#utility.yul\":9867:9876   */\n      dup3\n        /* \"#utility.yul\":9863:9882   */\n      add\n        /* \"#utility.yul\":9855:9882   */\n      swap1\n      pop\n        /* \"#utility.yul\":9892:9963   */\n      tag_340\n        /* \"#utility.yul\":9960:9961   */\n      0x00\n        /* \"#utility.yul\":9949:9958   */\n      dup4\n        /* \"#utility.yul\":9945:9962   */\n      add\n        /* \"#utility.yul\":9936:9942   */\n      dup9\n        /* \"#utility.yul\":9892:9963   */\n      tag_209\n      jump\t// in\n    tag_340:\n        /* \"#utility.yul\":9973:10043   */\n      tag_341\n        /* \"#utility.yul\":10039:10041   */\n      0x20\n        /* \"#utility.yul\":10028:10037   */\n      dup4\n        /* \"#utility.yul\":10024:10042   */\n      add\n        /* \"#utility.yul\":10015:10021   */\n      dup8\n        /* \"#utility.yul\":9973:10043   */\n      tag_211\n      jump\t// in\n    tag_341:\n        /* \"#utility.yul\":10053:10123   */\n      tag_342\n        /* \"#utility.yul\":10119:10121   */\n      0x40\n        /* \"#utility.yul\":10108:10117   */\n      dup4\n        /* \"#utility.yul\":10104:10122   */\n      add\n        /* \"#utility.yul\":10095:10101   */\n      dup7\n        /* \"#utility.yul\":10053:10123   */\n      tag_213\n      jump\t// in\n    tag_342:\n        /* \"#utility.yul\":10133:10203   */\n      tag_343\n        /* \"#utility.yul\":10199:10201   */\n      0x60\n        /* \"#utility.yul\":10188:10197   */\n      dup4\n        /* \"#utility.yul\":10184:10202   */\n      add\n        /* \"#utility.yul\":10175:10181   */\n      dup6\n        /* \"#utility.yul\":10133:10203   */\n      tag_215\n      jump\t// in\n    tag_343:\n        /* \"#utility.yul\":10213:10284   */\n      tag_344\n        /* \"#utility.yul\":10279:10282   */\n      0x80\n        /* \"#utility.yul\":10268:10277   */\n      dup4\n        /* \"#utility.yul\":10264:10283   */\n      add\n        /* \"#utility.yul\":10255:10261   */\n      dup5\n        /* \"#utility.yul\":10213:10284   */\n      tag_215\n      jump\t// in\n    tag_344:\n        /* \"#utility.yul\":9643:10291   */\n      swap7\n      swap6\n      pop\n      pop\n      pop\n      pop\n      pop\n      pop\n      jump\t// out\n        /* \"#utility.yul\":10297:10440   */\n    tag_216:\n        /* \"#utility.yul\":10354:10359   */\n      0x00\n        /* \"#utility.yul\":10385:10391   */\n      dup2\n        /* \"#utility.yul\":10379:10392   */\n      mload\n        /* \"#utility.yul\":10370:10392   */\n      swap1\n      pop\n        /* \"#utility.yul\":10401:10434   */\n      tag_346\n        /* \"#utility.yul\":10428:10433   */\n      dup2\n        /* \"#utility.yul\":10401:10434   */\n      tag_178\n      jump\t// in\n    tag_346:\n        /* \"#utility.yul\":10297:10440   */\n      swap3\n      swap2\n      pop\n      pop\n      jump\t// out\n        /* \"#utility.yul\":10446:10797   */\n    tag_48:\n        /* \"#utility.yul\":10516:10522   */\n      0x00\n        /* \"#utility.yul\":10565:10567   */\n      0x20\n        /* \"#utility.yul\":10553:10562   */\n      dup3\n        /* \"#utility.yul\":10544:10551   */\n      dup5\n        /* \"#utility.yul\":10540:10563   */\n      sub\n        /* \"#utility.yul\":10536:10568   */\n      slt\n        /* \"#utility.yul\":10533:10652   */\n      iszero\n      tag_348\n      jumpi\n        /* \"#utility.yul\":10571:10650   */\n      tag_349\n      tag_175\n      jump\t// in\n    tag_349:\n        /* \"#utility.yul\":10533:10652   */\n    tag_348:\n        /* \"#utility.yul\":10691:10692   */\n      0x00\n        /* \"#utility.yul\":10716:10780   */\n      tag_350\n        /* \"#utility.yul\":10772:10779   */\n      dup5\n        /* \"#utility.yul\":10763:10769   */\n      dup3\n        /* \"#utility.yul\":10752:10761   */\n      dup6\n        /* \"#utility.yul\":10748:10770   */\n      add\n        /* \"#utility.yul\":10716:10780   */\n      tag_216\n      jump\t// in\n    tag_350:\n        /* \"#utility.yul\":10706:10780   */\n      swap2\n      pop\n        /* \"#utility.yul\":10662:10790   */\n      pop\n        /* \"#utility.yul\":10446:10797   */\n      swap3\n      swap2\n      pop\n      pop\n      jump\t// out\n        /* \"#utility.yul\":10803:10888   */\n    tag_217:\n        /* \"#utility.yul\":10848:10855   */\n      0x00\n        /* \"#utility.yul\":10877:10882   */\n      dup2\n        /* \"#utility.yul\":10866:10882   */\n      swap1\n      pop\n        /* \"#utility.yul\":10803:10888   */\n      swap2\n      swap1\n      pop\n      jump\t// out\n        /* \"#utility.yul\":10894:10954   */\n    tag_218:\n        /* \"#utility.yul\":10922:10925   */\n      0x00\n        /* \"#utility.yul\":10943:10948   */\n      dup2\n        /* \"#utility.yul\":10936:10948   */\n      swap1\n      pop\n        /* \"#utility.yul\":10894:10954   */\n      swap2\n      swap1\n      pop\n      jump\t// out\n        /* \"#utility.yul\":10960:11114   */\n    tag_219:\n        /* \"#utility.yul\":11016:11025   */\n      0x00\n        /* \"#utility.yul\":11049:11108   */\n      tag_354\n        /* \"#utility.yul\":11065:11107   */\n      tag_355\n        /* \"#utility.yul\":11074:11106   */\n      tag_356\n        /* \"#utility.yul\":11100:11105   */\n      dup5\n        /* \"#utility.yul\":11074:11106   */\n      tag_217\n      jump\t// in\n    tag_356:\n        /* \"#utility.yul\":11065:11107   */\n      tag_218\n      jump\t// in\n    tag_355:\n        /* \"#utility.yul\":11049:11108   */\n      tag_197\n      jump\t// in\n    tag_354:\n        /* \"#utility.yul\":11036:11108   */\n      swap1\n      pop\n        /* \"#utility.yul\":10960:11114   */\n      swap2\n      swap1\n      pop\n      jump\t// out\n        /* \"#utility.yul\":11120:11263   */\n    tag_220:\n        /* \"#utility.yul\":11213:11256   */\n      tag_358\n        /* \"#utility.yul\":11250:11255   */\n      dup2\n        /* \"#utility.yul\":11213:11256   */\n      tag_219\n      jump\t// in\n    tag_358:\n        /* \"#utility.yul\":11208:11211   */\n      dup3\n        /* \"#utility.yul\":11201:11257   */\n      mstore\n        /* \"#utility.yul\":11120:11263   */\n      pop\n      pop\n      jump\t// out\n        /* \"#utility.yul\":11269:12062   */\n    tag_55:\n        /* \"#utility.yul\":11511:11515   */\n      0x00\n        /* \"#utility.yul\":11549:11552   */\n      0xc0\n        /* \"#utility.yul\":11538:11547   */\n      dup3\n        /* \"#utility.yul\":11534:11553   */\n      add\n        /* \"#utility.yul\":11526:11553   */\n      swap1\n      pop\n        /* \"#utility.yul\":11563:11634   */\n      tag_360\n        /* \"#utility.yul\":11631:11632   */\n      0x00\n        /* \"#utility.yul\":11620:11629   */\n      dup4\n        /* \"#utility.yul\":11616:11633   */\n      add\n        /* \"#utility.yul\":11607:11613   */\n      dup10\n        /* \"#utility.yul\":11563:11634   */\n      tag_192\n      jump\t// in\n    tag_360:\n        /* \"#utility.yul\":11644:11716   */\n      tag_361\n        /* \"#utility.yul\":11712:11714   */\n      0x20\n        /* \"#utility.yul\":11701:11710   */\n      dup4\n        /* \"#utility.yul\":11697:11715   */\n      add\n        /* \"#utility.yul\":11688:11694   */\n      dup9\n        /* \"#utility.yul\":11644:11716   */\n      tag_191\n      jump\t// in\n    tag_361:\n        /* \"#utility.yul\":11726:11798   */\n      tag_362\n        /* \"#utility.yul\":11794:11796   */\n      0x40\n        /* \"#utility.yul\":11783:11792   */\n      dup4\n        /* \"#utility.yul\":11779:11797   */\n      add\n        /* \"#utility.yul\":11770:11776   */\n      dup8\n        /* \"#utility.yul\":11726:11798   */\n      tag_192\n      jump\t// in\n    tag_362:\n        /* \"#utility.yul\":11808:11889   */\n      tag_363\n        /* \"#utility.yul\":11885:11887   */\n      0x60\n        /* \"#utility.yul\":11874:11883   */\n      dup4\n        /* \"#utility.yul\":11870:11888   */\n      add\n        /* \"#utility.yul\":11861:11867   */\n      dup7\n        /* \"#utility.yul\":11808:11889   */\n      tag_196\n      jump\t// in\n    tag_363:\n        /* \"#utility.yul\":11899:11978   */\n      tag_364\n        /* \"#utility.yul\":11973:11976   */\n      0x80\n        /* \"#utility.yul\":11962:11971   */\n      dup4\n        /* \"#utility.yul\":11958:11977   */\n      add\n        /* \"#utility.yul\":11949:11955   */\n      dup6\n        /* \"#utility.yul\":11899:11978   */\n      tag_220\n      jump\t// in\n    tag_364:\n        /* \"#utility.yul\":11988:12055   */\n      tag_365\n        /* \"#utility.yul\":12050:12053   */\n      0xa0\n        /* \"#utility.yul\":12039:12048   */\n      dup4\n        /* \"#utility.yul\":12035:12054   */\n      add\n        /* \"#utility.yul\":12026:12032   */\n      dup5\n        /* \"#utility.yul\":11988:12055   */\n      tag_200\n      jump\t// in\n    tag_365:\n        /* \"#utility.yul\":11269:12062   */\n      swap8\n      swap7\n      pop\n      pop\n      pop\n      pop\n      pop\n      pop\n      pop\n      jump\t// out\n        /* \"#utility.yul\":12068:12400   */\n    tag_59:\n        /* \"#utility.yul\":12189:12193   */\n      0x00\n        /* \"#utility.yul\":12227:12229   */\n      0x40\n        /* \"#utility.yul\":12216:12225   */\n      dup3\n        /* \"#utility.yul\":12212:12230   */\n      add\n        /* \"#utility.yul\":12204:12230   */\n      swap1\n      pop\n        /* \"#utility.yul\":12240:12311   */\n      tag_367\n        /* \"#utility.yul\":12308:12309   */\n      0x00\n        /* \"#utility.yul\":12297:12306   */\n      dup4\n        /* \"#utility.yul\":12293:12310   */\n      add\n        /* \"#utility.yul\":12284:12290   */\n      dup6\n        /* \"#utility.yul\":12240:12311   */\n      tag_191\n      jump\t// in\n    tag_367:\n        /* \"#utility.yul\":12321:12393   */\n      tag_368\n        /* \"#utility.yul\":12389:12391   */\n      0x20\n        /* \"#utility.yul\":12378:12387   */\n      dup4\n        /* \"#utility.yul\":12374:12392   */\n      add\n        /* \"#utility.yul\":12365:12371   */\n      dup5\n        /* \"#utility.yul\":12321:12393   */\n      tag_191\n      jump\t// in\n    tag_368:\n        /* \"#utility.yul\":12068:12400   */\n      swap4\n      swap3\n      pop\n      pop\n      pop\n      jump\t// out\n        /* \"#utility.yul\":12406:12570   */\n    tag_221:\n        /* \"#utility.yul\":12546:12562   */\n      0x496e76616c6964206e756d626572000000000000000000000000000000000000\n        /* \"#utility.yul\":12542:12543   */\n      0x00\n        /* \"#utility.yul\":12534:12540   */\n      dup3\n        /* \"#utility.yul\":12530:12544   */\n      add\n        /* \"#utility.yul\":12523:12563   */\n      mstore\n        /* \"#utility.yul\":12406:12570   */\n      pop\n      jump\t// out\n        /* \"#utility.yul\":12576:12942   */\n    tag_222:\n        /* \"#utility.yul\":12718:12721   */\n      0x00\n        /* \"#utility.yul\":12739:12806   */\n      tag_371\n        /* \"#utility.yul\":12803:12805   */\n      0x0e\n        /* \"#utility.yul\":12798:12801   */\n      dup4\n        /* \"#utility.yul\":12739:12806   */\n      tag_205\n      jump\t// in\n    tag_371:\n        /* \"#utility.yul\":12732:12806   */\n      swap2\n      pop\n        /* \"#utility.yul\":12815:12908   */\n      tag_372\n        /* \"#utility.yul\":12904:12907   */\n      dup3\n        /* \"#utility.yul\":12815:12908   */\n      tag_221\n      jump\t// in\n    tag_372:\n        /* \"#utility.yul\":12933:12935   */\n      0x20\n        /* \"#utility.yul\":12928:12931   */\n      dup3\n        /* \"#utility.yul\":12924:12936   */\n      add\n        /* \"#utility.yul\":12917:12936   */\n      swap1\n      pop\n        /* \"#utility.yul\":12576:12942   */\n      swap2\n      swap1\n      pop\n      jump\t// out\n        /* \"#utility.yul\":12948:13367   */\n    tag_67:\n        /* \"#utility.yul\":13114:13118   */\n      0x00\n        /* \"#utility.yul\":13152:13154   */\n      0x20\n        /* \"#utility.yul\":13141:13150   */\n      dup3\n        /* \"#utility.yul\":13137:13155   */\n      add\n        /* \"#utility.yul\":13129:13155   */\n      swap1\n      pop\n        /* \"#utility.yul\":13201:13210   */\n      dup2\n        /* \"#utility.yul\":13195:13199   */\n      dup2\n        /* \"#utility.yul\":13191:13211   */\n      sub\n        /* \"#utility.yul\":13187:13188   */\n      0x00\n        /* \"#utility.yul\":13176:13185   */\n      dup4\n        /* \"#utility.yul\":13172:13189   */\n      add\n        /* \"#utility.yul\":13165:13212   */\n      mstore\n        /* \"#utility.yul\":13229:13360   */\n      tag_374\n        /* \"#utility.yul\":13355:13359   */\n      dup2\n        /* \"#utility.yul\":13229:13360   */\n      tag_222\n      jump\t// in\n    tag_374:\n        /* \"#utility.yul\":13221:13360   */\n      swap1\n      pop\n        /* \"#utility.yul\":12948:13367   */\n      swap2\n      swap1\n      pop\n      jump\t// out\n        /* \"#utility.yul\":13373:14146   */\n    tag_77:\n        /* \"#utility.yul\":13605:13609   */\n      0x00\n        /* \"#utility.yul\":13643:13646   */\n      0xc0\n        /* \"#utility.yul\":13632:13641   */\n      dup3\n        /* \"#utility.yul\":13628:13647   */\n      add\n        /* \"#utility.yul\":13620:13647   */\n      swap1\n      pop\n        /* \"#utility.yul\":13657:13728   */\n      tag_376\n        /* \"#utility.yul\":13725:13726   */\n      0x00\n        /* \"#utility.yul\":13714:13723   */\n      dup4\n        /* \"#utility.yul\":13710:13727   */\n      add\n        /* \"#utility.yul\":13701:13707   */\n      dup10\n        /* \"#utility.yul\":13657:13728   */\n      tag_192\n      jump\t// in\n    tag_376:\n        /* \"#utility.yul\":13738:13810   */\n      tag_377\n        /* \"#utility.yul\":13806:13808   */\n      0x20\n        /* \"#utility.yul\":13795:13804   */\n      dup4\n        /* \"#utility.yul\":13791:13809   */\n      add\n        /* \"#utility.yul\":13782:13788   */\n      dup9\n        /* \"#utility.yul\":13738:13810   */\n      tag_191\n      jump\t// in\n    tag_377:\n        /* \"#utility.yul\":13820:13892   */\n      tag_378\n        /* \"#utility.yul\":13888:13890   */\n      0x40\n        /* \"#utility.yul\":13877:13886   */\n      dup4\n        /* \"#utility.yul\":13873:13891   */\n      add\n        /* \"#utility.yul\":13864:13870   */\n      dup8\n        /* \"#utility.yul\":13820:13892   */\n      tag_192\n      jump\t// in\n    tag_378:\n        /* \"#utility.yul\":13902:13983   */\n      tag_379\n        /* \"#utility.yul\":13979:13981   */\n      0x60\n        /* \"#utility.yul\":13968:13977   */\n      dup4\n        /* \"#utility.yul\":13964:13982   */\n      add\n        /* \"#utility.yul\":13955:13961   */\n      dup7\n        /* \"#utility.yul\":13902:13983   */\n      tag_196\n      jump\t// in\n    tag_379:\n        /* \"#utility.yul\":13993:14062   */\n      tag_380\n        /* \"#utility.yul\":14057:14060   */\n      0x80\n        /* \"#utility.yul\":14046:14055   */\n      dup4\n        /* \"#utility.yul\":14042:14061   */\n      add\n        /* \"#utility.yul\":14033:14039   */\n      dup6\n        /* \"#utility.yul\":13993:14062   */\n      tag_198\n      jump\t// in\n    tag_380:\n        /* \"#utility.yul\":14072:14139   */\n      tag_381\n        /* \"#utility.yul\":14134:14137   */\n      0xa0\n        /* \"#utility.yul\":14123:14132   */\n      dup4\n        /* \"#utility.yul\":14119:14138   */\n      add\n        /* \"#utility.yul\":14110:14116   */\n      dup5\n        /* \"#utility.yul\":14072:14139   */\n      tag_200\n      jump\t// in\n    tag_381:\n        /* \"#utility.yul\":13373:14146   */\n      swap8\n      swap7\n      pop\n      pop\n      pop\n      pop\n      pop\n      pop\n      pop\n      jump\t// out\n        /* \"#utility.yul\":14152:14332   */\n    tag_121:\n        /* \"#utility.yul\":14200:14277   */\n      0x4e487b7100000000000000000000000000000000000000000000000000000000\n        /* \"#utility.yul\":14197:14198   */\n      0x00\n        /* \"#utility.yul\":14190:14278   */\n      mstore\n        /* \"#utility.yul\":14297:14301   */\n      0x32\n        /* \"#utility.yul\":14294:14295   */\n      0x04\n        /* \"#utility.yul\":14287:14302   */\n      mstore\n        /* \"#utility.yul\":14321:14325   */\n      0x24\n        /* \"#utility.yul\":14318:14319   */\n      0x00\n        /* \"#utility.yul\":14311:14326   */\n      revert\n        /* \"#utility.yul\":14338:14518   */\n    tag_223:\n        /* \"#utility.yul\":14386:14463   */\n      0x4e487b7100000000000000000000000000000000000000000000000000000000\n        /* \"#utility.yul\":14383:14384   */\n      0x00\n        /* \"#utility.yul\":14376:14464   */\n      mstore\n        /* \"#utility.yul\":14483:14487   */\n      0x12\n        /* \"#utility.yul\":14480:14481   */\n      0x04\n        /* \"#utility.yul\":14473:14488   */\n      mstore\n        /* \"#utility.yul\":14507:14511   */\n      0x24\n        /* \"#utility.yul\":14504:14505   */\n      0x00\n        /* \"#utility.yul\":14497:14512   */\n      revert\n        /* \"#utility.yul\":14524:14700   */\n    tag_123:\n        /* \"#utility.yul\":14556:14557   */\n      0x00\n        /* \"#utility.yul\":14573:14593   */\n      tag_385\n        /* \"#utility.yul\":14591:14592   */\n      dup3\n        /* \"#utility.yul\":14573:14593   */\n      tag_177\n      jump\t// in\n    tag_385:\n        /* \"#utility.yul\":14568:14593   */\n      swap2\n      pop\n        /* \"#utility.yul\":14607:14627   */\n      tag_386\n        /* \"#utility.yul\":14625:14626   */\n      dup4\n        /* \"#utility.yul\":14607:14627   */\n      tag_177\n      jump\t// in\n    tag_386:\n        /* \"#utility.yul\":14602:14627   */\n      swap3\n      pop\n        /* \"#utility.yul\":14646:14647   */\n      dup3\n        /* \"#utility.yul\":14636:14671   */\n      tag_387\n      jumpi\n        /* \"#utility.yul\":14651:14669   */\n      tag_388\n      tag_223\n      jump\t// in\n    tag_388:\n        /* \"#utility.yul\":14636:14671   */\n    tag_387:\n        /* \"#utility.yul\":14692:14693   */\n      dup3\n        /* \"#utility.yul\":14689:14690   */\n      dup3\n        /* \"#utility.yul\":14685:14694   */\n      mod\n        /* \"#utility.yul\":14680:14694   */\n      swap1\n      pop\n        /* \"#utility.yul\":14524:14700   */\n      swap3\n      swap2\n      pop\n      pop\n      jump\t// out\n        /* \"#utility.yul\":14706:14876   */\n    tag_125:\n        /* \"#utility.yul\":14736:14737   */\n      0x00\n        /* \"#utility.yul\":14753:14771   */\n      tag_390\n        /* \"#utility.yul\":14769:14770   */\n      dup3\n        /* \"#utility.yul\":14753:14771   */\n      tag_197\n      jump\t// in\n    tag_390:\n        /* \"#utility.yul\":14748:14771   */\n      swap2\n      pop\n        /* \"#utility.yul\":14785:14803   */\n      tag_391\n        /* \"#utility.yul\":14801:14802   */\n      dup4\n        /* \"#utility.yul\":14785:14803   */\n      tag_197\n      jump\t// in\n    tag_391:\n        /* \"#utility.yul\":14780:14803   */\n      swap3\n      pop\n        /* \"#utility.yul\":14822:14823   */\n      dup3\n        /* \"#utility.yul\":14812:14847   */\n      tag_392\n      jumpi\n        /* \"#utility.yul\":14827:14845   */\n      tag_393\n      tag_223\n      jump\t// in\n    tag_393:\n        /* \"#utility.yul\":14812:14847   */\n    tag_392:\n        /* \"#utility.yul\":14868:14869   */\n      dup3\n        /* \"#utility.yul\":14865:14866   */\n      dup3\n        /* \"#utility.yul\":14861:14870   */\n      mod\n        /* \"#utility.yul\":14856:14870   */\n      swap1\n      pop\n        /* \"#utility.yul\":14706:14876   */\n      swap3\n      swap2\n      pop\n      pop\n      jump\t// out\n        /* \"#utility.yul\":14882:15062   */\n    tag_224:\n        /* \"#utility.yul\":14930:15007   */\n      0x4e487b7100000000000000000000000000000000000000000000000000000000\n        /* \"#utility.yul\":14927:14928   */\n      0x00\n        /* \"#utility.yul\":14920:15008   */\n      mstore\n        /* \"#utility.yul\":15027:15031   */\n      0x11\n        /* \"#utility.yul\":15024:15025   */\n      0x04\n        /* \"#utility.yul\":15017:15032   */\n      mstore\n        /* \"#utility.yul\":15051:15055   */\n      0x24\n        /* \"#utility.yul\":15048:15049   */\n      0x00\n        /* \"#utility.yul\":15041:15056   */\n      revert\n        /* \"#utility.yul\":15068:15478   */\n    tag_136:\n        /* \"#utility.yul\":15108:15115   */\n      0x00\n        /* \"#utility.yul\":15131:15151   */\n      tag_396\n        /* \"#utility.yul\":15149:15150   */\n      dup3\n        /* \"#utility.yul\":15131:15151   */\n      tag_177\n      jump\t// in\n    tag_396:\n        /* \"#utility.yul\":15126:15151   */\n      swap2\n      pop\n        /* \"#utility.yul\":15165:15185   */\n      tag_397\n        /* \"#utility.yul\":15183:15184   */\n      dup4\n        /* \"#utility.yul\":15165:15185   */\n      tag_177\n      jump\t// in\n    tag_397:\n        /* \"#utility.yul\":15160:15185   */\n      swap3\n      pop\n        /* \"#utility.yul\":15220:15221   */\n      dup3\n        /* \"#utility.yul\":15217:15218   */\n      dup3\n        /* \"#utility.yul\":15213:15222   */\n      mul\n        /* \"#utility.yul\":15242:15272   */\n      tag_398\n        /* \"#utility.yul\":15260:15271   */\n      dup2\n        /* \"#utility.yul\":15242:15272   */\n      tag_177\n      jump\t// in\n    tag_398:\n        /* \"#utility.yul\":15231:15272   */\n      swap2\n      pop\n        /* \"#utility.yul\":15421:15422   */\n      dup3\n        /* \"#utility.yul\":15412:15419   */\n      dup3\n        /* \"#utility.yul\":15408:15423   */\n      div\n        /* \"#utility.yul\":15405:15406   */\n      dup5\n        /* \"#utility.yul\":15402:15424   */\n      eq\n        /* \"#utility.yul\":15382:15383   */\n      dup4\n        /* \"#utility.yul\":15375:15384   */\n      iszero\n        /* \"#utility.yul\":15355:15438   */\n      or\n        /* \"#utility.yul\":15332:15471   */\n      tag_399\n      jumpi\n        /* \"#utility.yul\":15451:15469   */\n      tag_400\n      tag_224\n      jump\t// in\n    tag_400:\n        /* \"#utility.yul\":15332:15471   */\n    tag_399:\n        /* \"#utility.yul\":15116:15478   */\n      pop\n        /* \"#utility.yul\":15068:15478   */\n      swap3\n      swap2\n      pop\n      pop\n      jump\t// out\n        /* \"#utility.yul\":15484:16128   */\n    tag_173:\n        /* \"#utility.yul\":15679:15683   */\n      0x00\n        /* \"#utility.yul\":15717:15720   */\n      0xa0\n        /* \"#utility.yul\":15706:15715   */\n      dup3\n        /* \"#utility.yul\":15702:15721   */\n      add\n        /* \"#utility.yul\":15694:15721   */\n      swap1\n      pop\n        /* \"#utility.yul\":15731:15802   */\n      tag_402\n        /* \"#utility.yul\":15799:15800   */\n      0x00\n        /* \"#utility.yul\":15788:15797   */\n      dup4\n        /* \"#utility.yul\":15784:15801   */\n      add\n        /* \"#utility.yul\":15775:15781   */\n      dup9\n        /* \"#utility.yul\":15731:15802   */\n      tag_192\n      jump\t// in\n    tag_402:\n        /* \"#utility.yul\":15812:15884   */\n      tag_403\n        /* \"#utility.yul\":15880:15882   */\n      0x20\n        /* \"#utility.yul\":15869:15878   */\n      dup4\n        /* \"#utility.yul\":15865:15883   */\n      add\n        /* \"#utility.yul\":15856:15862   */\n      dup8\n        /* \"#utility.yul\":15812:15884   */\n      tag_191\n      jump\t// in\n    tag_403:\n        /* \"#utility.yul\":15894:15966   */\n      tag_404\n        /* \"#utility.yul\":15962:15964   */\n      0x40\n        /* \"#utility.yul\":15951:15960   */\n      dup4\n        /* \"#utility.yul\":15947:15965   */\n      add\n        /* \"#utility.yul\":15938:15944   */\n      dup7\n        /* \"#utility.yul\":15894:15966   */\n      tag_192\n      jump\t// in\n    tag_404:\n        /* \"#utility.yul\":15976:16044   */\n      tag_405\n        /* \"#utility.yul\":16040:16042   */\n      0x60\n        /* \"#utility.yul\":16029:16038   */\n      dup4\n        /* \"#utility.yul\":16025:16043   */\n      add\n        /* \"#utility.yul\":16016:16022   */\n      dup6\n        /* \"#utility.yul\":15976:16044   */\n      tag_198\n      jump\t// in\n    tag_405:\n        /* \"#utility.yul\":16054:16121   */\n      tag_406\n        /* \"#utility.yul\":16116:16119   */\n      0x80\n        /* \"#utility.yul\":16105:16114   */\n      dup4\n        /* \"#utility.yul\":16101:16120   */\n      add\n        /* \"#utility.yul\":16092:16098   */\n      dup5\n        /* \"#utility.yul\":16054:16121   */\n      tag_200\n      jump\t// in\n    tag_406:\n        /* \"#utility.yul\":15484:16128   */\n      swap7\n      swap6\n      pop\n      pop\n      pop\n      pop\n      pop\n      pop\n      jump\t// out\n\n    auxdata: 0xa2646970667358221220d2931a8e1356d820a624babdd8d4387a74faf992d0d7abcb5fe66505e7e6eafe64736f6c634300081d0033\n}\n",
				"bytecode": {
					"linkReferences": {},
					"object": "60a0604052738103b0a8a00be2ddc778e6e7eaa21791cd36462560015f6101000a81548173ffffffffffffffffffffffffffffffffffffffff021916908373ffffffffffffffffffffffffffffffffffffffff1602179055507f474e34a077df58807dbe9c96d3c009b23b3c6d0cce433e59bbf5b34f823bc56c5f1b60025562030d4060035f6101000a81548163ffffffff021916908363ffffffff16021790555060038060046101000a81548161ffff021916908361ffff1602179055506001600360066101000a81548163ffffffff021916908363ffffffff1602179055503480156100eb575f5ffd5b50604051611f57380380611f57833981810160405281019061010d9190610233565b60015f9054906101000a900473ffffffffffffffffffffffffffffffffffffffff168073ffffffffffffffffffffffffffffffffffffffff1660808173ffffffffffffffffffffffffffffffffffffffff16815250505060015f9054906101000a900473ffffffffffffffffffffffffffffffffffffffff165f5f6101000a81548173ffffffffffffffffffffffffffffffffffffffff021916908373ffffffffffffffffffffffffffffffffffffffff160217905550805f60146101000a81548167ffffffffffffffff021916908367ffffffffffffffff1602179055505061025e565b5f5ffd5b5f67ffffffffffffffff82169050919050565b610212816101f6565b811461021c575f5ffd5b50565b5f8151905061022d81610209565b92915050565b5f60208284031215610248576102476101f2565b5b5f6102558482850161021f565b91505092915050565b608051611cda61027d5f395f81816103da015261042e0152611cda5ff3fe608060405260043610610073575f3560e01c80635c70b5611161004d5780635c70b561146100f05780637f1bbfd31461010c578063a9b67bf114610116578063b996b99c146101205761007a565b80631f5390fe1461007e5780631fe543e31461008857806322af00fa146100b05761007a565b3661007a57005b5f5ffd5b61008661013c565b005b348015610093575f5ffd5b506100ae60048036038101906100a991906115aa565b6103d8565b005b3480156100bb575f5ffd5b506100d660048036038101906100d19190611604565b610498565b6040516100e7959493929190611725565b60405180910390f35b61010a600480360381019061010591906117a0565b61050f565b005b6101146107f1565b005b61011e610a8d565b005b61013a600480360381019061013591906117f5565b610d28565b005b5f341161017e576040517f08c379a00000000000000000000000000000000000000000000000000000000081526004016101759061187a565b60405180910390fd5b5f5f5f9054906101000a900473ffffffffffffffffffffffffffffffffffffffff1673ffffffffffffffffffffffffffffffffffffffff16635d3b1d306002545f60149054906101000a900467ffffffffffffffff16600360049054906101000a900461ffff1660035f9054906101000a900463ffffffff16600360069054906101000a900463ffffffff166040518663ffffffff1660e01b815260040161022a95949392919061190c565b6020604051808303815f875af1158015610246573d5f5f3e3d5ffd5b505050506040513d601f19601f8201168201806040525081019061026a9190611971565b90506040518060a001604052803373ffffffffffffffffffffffffffffffffffffffff168152602001348152602001600260048111156102ad576102ac61167d565b5b81526020015f60ff1681526020015f151581525060045f8381526020019081526020015f205f820151815f015f6101000a81548173ffffffffffffffffffffffffffffffffffffffff021916908373ffffffffffffffffffffffffffffffffffffffff160217905550602082015181600101556040820151816002015f6101000a81548160ff0219169083600481111561034a5761034961167d565b5b021790555060608201518160020160016101000a81548160ff021916908360ff16021790555060808201518160020160026101000a81548160ff0219169083151502179055509050507f541cf68fcba3379a00d80d5cd28d5ba5a9eadd91f8f573f962eb3b7ef598bad281333460025f5f6040516103cd969594939291906119de565b60405180910390a150565b7f000000000000000000000000000000000000000000000000000000000000000073ffffffffffffffffffffffffffffffffffffffff163373ffffffffffffffffffffffffffffffffffffffff161461048a57337f00000000000000000000000000000000000000000000000000000000000000006040517f1cf993f4000000000000000000000000000000000000000000000000000000008152600401610481929190611a3d565b60405180910390fd5b6104948282610fc5565b5050565b6004602052805f5260405f205f91509050805f015f9054906101000a900473ffffffffffffffffffffffffffffffffffffffff1690806001015490806002015f9054906101000a900460ff16908060020160019054906101000a900460ff16908060020160029054906101000a900460ff16905085565b5f3411610551576040517f08c379a00000000000000000000000000000000000000000000000000000000081526004016105489061187a565b60405180910390fd5b60248160ff161115610598576040517f08c379a000000000000000000000000000000000000000000000000000000000815260040161058f90611aae565b60405180910390fd5b5f5f5f9054906101000a900473ffffffffffffffffffffffffffffffffffffffff1673ffffffffffffffffffffffffffffffffffffffff16635d3b1d306002545f60149054906101000a900467ffffffffffffffff16600360049054906101000a900461ffff1660035f9054906101000a900463ffffffff16600360069054906101000a900463ffffffff166040518663ffffffff1660e01b815260040161064495949392919061190c565b6020604051808303815f875af1158015610660573d5f5f3e3d5ffd5b505050506040513d601f19601f820116820180604052508101906106849190611971565b90506040518060a001604052803373ffffffffffffffffffffffffffffffffffffffff1681526020013481526020015f60048111156106c6576106c561167d565b5b81526020018360ff1681526020015f151581525060045f8381526020019081526020015f205f820151815f015f6101000a81548173ffffffffffffffffffffffffffffffffffffffff021916908373ffffffffffffffffffffffffffffffffffffffff160217905550602082015181600101556040820151816002015f6101000a81548160ff021916908360048111156107635761076261167d565b5b021790555060608201518160020160016101000a81548160ff021916908360ff16021790555060808201518160020160026101000a81548160ff0219169083151502179055509050507f541cf68fcba3379a00d80d5cd28d5ba5a9eadd91f8f573f962eb3b7ef598bad28133345f865f6040516107e596959493929190611acc565b60405180910390a15050565b5f3411610833576040517f08c379a000000000000000000000000000000000000000000000000000000000815260040161082a9061187a565b60405180910390fd5b5f5f5f9054906101000a900473ffffffffffffffffffffffffffffffffffffffff1673ffffffffffffffffffffffffffffffffffffffff16635d3b1d306002545f60149054906101000a900467ffffffffffffffff16600360049054906101000a900461ffff1660035f9054906101000a900463ffffffff16600360069054906101000a900463ffffffff166040518663ffffffff1660e01b81526004016108df95949392919061190c565b6020604051808303815f875af11580156108fb573d5f5f3e3d5ffd5b505050506040513d601f19601f8201168201806040525081019061091f9190611971565b90506040518060a001604052803373ffffffffffffffffffffffffffffffffffffffff168152602001348152602001600360048111156109625761096161167d565b5b81526020015f60ff1681526020015f151581525060045f8381526020019081526020015f205f820151815f015f6101000a81548173ffffffffffffffffffffffffffffffffffffffff021916908373ffffffffffffffffffffffffffffffffffffffff160217905550602082015181600101556040820151816002015f6101000a81548160ff021916908360048111156109ff576109fe61167d565b5b021790555060608201518160020160016101000a81548160ff021916908360ff16021790555060808201518160020160026101000a81548160ff0219169083151502179055509050507f541cf68fcba3379a00d80d5cd28d5ba5a9eadd91f8f573f962eb3b7ef598bad281333460035f5f604051610a82969594939291906119de565b60405180910390a150565b5f3411610acf576040517f08c379a0000000000000000000000000000000000000000000000000000000008152600401610ac69061187a565b60405180910390fd5b5f5f5f9054906101000a900473ffffffffffffffffffffffffffffffffffffffff1673ffffffffffffffffffffffffffffffffffffffff16635d3b1d306002545f60149054906101000a900467ffffffffffffffff16600360049054906101000a900461ffff1660035f9054906101000a900463ffffffff16600360069054906101000a900463ffffffff166040518663ffffffff1660e01b8152600401610b7b95949392919061190c565b6020604051808303815f875af1158015610b97573d5f5f3e3d5ffd5b505050506040513d601f19601f82011682018060405250810190610bbb9190611971565b90506040518060a001604052803373ffffffffffffffffffffffffffffffffffffffff168152602001348152602001600480811115610bfd57610bfc61167d565b5b81526020015f60ff1681526020015f151581525060045f8381526020019081526020015f205f820151815f015f6101000a81548173ffffffffffffffffffffffffffffffffffffffff021916908373ffffffffffffffffffffffffffffffffffffffff160217905550602082015181600101556040820151816002015f6101000a81548160ff02191690836004811115610c9a57610c9961167d565b5b021790555060608201518160020160016101000a81548160ff021916908360ff16021790555060808201518160020160026101000a81548160ff0219169083151502179055509050507f541cf68fcba3379a00d80d5cd28d5ba5a9eadd91f8f573f962eb3b7ef598bad281333460045f5f604051610d1d969594939291906119de565b60405180910390a150565b5f3411610d6a576040517f08c379a0000000000000000000000000000000000000000000000000000000008152600401610d619061187a565b60405180910390fd5b5f5f5f9054906101000a900473ffffffffffffffffffffffffffffffffffffffff1673ffffffffffffffffffffffffffffffffffffffff16635d3b1d306002545f60149054906101000a900467ffffffffffffffff16600360049054906101000a900461ffff1660035f9054906101000a900463ffffffff16600360069054906101000a900463ffffffff166040518663ffffffff1660e01b8152600401610e1695949392919061190c565b6020604051808303815f875af1158015610e32573d5f5f3e3d5ffd5b505050506040513d601f19601f82011682018060405250810190610e569190611971565b90506040518060a001604052803373ffffffffffffffffffffffffffffffffffffffff16815260200134815260200160016004811115610e9957610e9861167d565b5b81526020015f60ff16815260200183151581525060045f8381526020019081526020015f205f820151815f015f6101000a81548173ffffffffffffffffffffffffffffffffffffffff021916908373ffffffffffffffffffffffffffffffffffffffff160217905550602082015181600101556040820151816002015f6101000a81548160ff02191690836004811115610f3657610f3561167d565b5b021790555060608201518160020160016101000a81548160ff021916908360ff16021790555060808201518160020160026101000a81548160ff0219169083151502179055509050507f541cf68fcba3379a00d80d5cd28d5ba5a9eadd91f8f573f962eb3b7ef598bad281333460015f87604051610fb9969594939291906119de565b60405180910390a15050565b5f60045f8481526020019081526020015f206040518060a00160405290815f82015f9054906101000a900473ffffffffffffffffffffffffffffffffffffffff1673ffffffffffffffffffffffffffffffffffffffff1673ffffffffffffffffffffffffffffffffffffffff16815260200160018201548152602001600282015f9054906101000a900460ff1660048111156110645761106361167d565b5b60048111156110765761107561167d565b5b81526020016002820160019054906101000a900460ff1660ff1660ff1681526020016002820160029054906101000a900460ff16151515158152505090505f6025835f815181106110ca576110c9611b2b565b5b60200260200101516110dc9190611b85565b90505f5f6002836110ed9190611bb5565b60ff161490505f5f6002846111029190611bb5565b60ff1614801561111557505f8360ff1614155b90505f5f6002856111269190611bb5565b60ff16141590505f5f90505f5f90505f60048111156111485761114761167d565b5b8760400151600481111561115f5761115e61167d565b5b14801561117557508560ff16876060015160ff16145b1561119657600191506024876020015161118f9190611c12565b90506112fc565b600160048111156111aa576111a961167d565b5b876040015160048111156111c1576111c061167d565b5b1480156111d5575084151587608001511515145b156111f65760019150600287602001516111ef9190611c12565b90506112fb565b6002600481111561120a5761120961167d565b5b876040015160048111156112215761122061167d565b5b14801561123057505f8660ff16145b1561125157600191506024876020015161124a9190611c12565b90506112fa565b600360048111156112655761126461167d565b5b8760400151600481111561127c5761127b61167d565b5b1480156112865750825b156112a75760019150600287602001516112a09190611c12565b90506112f9565b6004808111156112ba576112b961167d565b5b876040015160048111156112d1576112d061167d565b5b1480156112db5750835b156112f85760019150600287602001516112f59190611c12565b90505b5b5b5b5b811561134a57865f015173ffffffffffffffffffffffffffffffffffffffff166108fc8290811502906040515f60405180830381858888f19350505050158015611348573d5f5f3e3d5ffd5b505b7f7204b31c5bbfa97e1aee8ef0fb88d079da912ad60e762363640da9f84333c11089885f015189602001518986604051611388959493929190611c53565b60405180910390a160045f8a81526020019081526020015f205f5f82015f6101000a81549073ffffffffffffffffffffffffffffffffffffffff0219169055600182015f9055600282015f6101000a81549060ff02191690556002820160016101000a81549060ff02191690556002820160026101000a81549060ff02191690555050505050505050505050565b5f604051905090565b5f5ffd5b5f5ffd5b5f819050919050565b61143981611427565b8114611443575f5ffd5b50565b5f8135905061145481611430565b92915050565b5f5ffd5b5f601f19601f8301169050919050565b7f4e487b71000000000000000000000000000000000000000000000000000000005f52604160045260245ffd5b6114a48261145e565b810181811067ffffffffffffffff821117156114c3576114c261146e565b5b80604052505050565b5f6114d5611416565b90506114e1828261149b565b919050565b5f67ffffffffffffffff821115611500576114ff61146e565b5b602082029050602081019050919050565b5f5ffd5b5f611527611522846114e6565b6114cc565b9050808382526020820190506020840283018581111561154a57611549611511565b5b835b81811015611573578061155f8882611446565b84526020840193505060208101905061154c565b5050509392505050565b5f82601f8301126115915761159061145a565b5b81356115a1848260208601611515565b91505092915050565b5f5f604083850312156115c0576115bf61141f565b5b5f6115cd85828601611446565b925050602083013567ffffffffffffffff8111156115ee576115ed611423565b5b6115fa8582860161157d565b9150509250929050565b5f602082840312156116195761161861141f565b5b5f61162684828501611446565b91505092915050565b5f73ffffffffffffffffffffffffffffffffffffffff82169050919050565b5f6116588261162f565b9050919050565b6116688161164e565b82525050565b61167781611427565b82525050565b7f4e487b71000000000000000000000000000000000000000000000000000000005f52602160045260245ffd5b600581106116bb576116ba61167d565b5b50565b5f8190506116cb826116aa565b919050565b5f6116da826116be565b9050919050565b6116ea816116d0565b82525050565b5f60ff82169050919050565b611705816116f0565b82525050565b5f8115159050919050565b61171f8161170b565b82525050565b5f60a0820190506117385f83018861165f565b611745602083018761166e565b61175260408301866116e1565b61175f60608301856116fc565b61176c6080830184611716565b9695505050505050565b61177f816116f0565b8114611789575f5ffd5b50565b5f8135905061179a81611776565b92915050565b5f602082840312156117b5576117b461141f565b5b5f6117c28482850161178c565b91505092915050565b6117d48161170b565b81146117de575f5ffd5b50565b5f813590506117ef816117cb565b92915050565b5f6020828403121561180a5761180961141f565b5b5f611817848285016117e1565b91505092915050565b5f82825260208201905092915050565b7f426574206d7573742062652067726561746572207468616e20300000000000005f82015250565b5f611864601a83611820565b915061186f82611830565b602082019050919050565b5f6020820190508181035f83015261189181611858565b9050919050565b5f819050919050565b6118aa81611898565b82525050565b5f67ffffffffffffffff82169050919050565b6118cc816118b0565b82525050565b5f61ffff82169050919050565b6118e8816118d2565b82525050565b5f63ffffffff82169050919050565b611906816118ee565b82525050565b5f60a08201905061191f5f8301886118a1565b61192c60208301876118c3565b61193960408301866118df565b61194660608301856118fd565b61195360808301846118fd565b9695505050505050565b5f8151905061196b81611430565b92915050565b5f602082840312156119865761198561141f565b5b5f6119938482850161195d565b91505092915050565b5f819050919050565b5f819050919050565b5f6119c86119c36119be8461199c565b6119a5565b6116f0565b9050919050565b6119d8816119ae565b82525050565b5f60c0820190506119f15f83018961166e565b6119fe602083018861165f565b611a0b604083018761166e565b611a1860608301866116e1565b611a2560808301856119cf565b611a3260a0830184611716565b979650505050505050565b5f604082019050611a505f83018561165f565b611a5d602083018461165f565b9392505050565b7f496e76616c6964206e756d6265720000000000000000000000000000000000005f82015250565b5f611a98600e83611820565b9150611aa382611a64565b602082019050919050565b5f6020820190508181035f830152611ac581611a8c565b9050919050565b5f60c082019050611adf5f83018961166e565b611aec602083018861165f565b611af9604083018761166e565b611b0660608301866116e1565b611b1360808301856116fc565b611b2060a0830184611716565b979650505050505050565b7f4e487b71000000000000000000000000000000000000000000000000000000005f52603260045260245ffd5b7f4e487b71000000000000000000000000000000000000000000000000000000005f52601260045260245ffd5b5f611b8f82611427565b9150611b9a83611427565b925082611baa57611ba9611b58565b5b828206905092915050565b5f611bbf826116f0565b9150611bca836116f0565b925082611bda57611bd9611b58565b5b828206905092915050565b7f4e487b71000000000000000000000000000000000000000000000000000000005f52601160045260245ffd5b5f611c1c82611427565b9150611c2783611427565b9250828202611c3581611427565b91508282048414831517611c4c57611c4b611be5565b5b5092915050565b5f60a082019050611c665f83018861166e565b611c73602083018761165f565b611c80604083018661166e565b611c8d60608301856116fc565b611c9a6080830184611716565b969550505050505056fea2646970667358221220d2931a8e1356d820a624babdd8d4387a74faf992d0d7abcb5fe66505e7e6eafe64736f6c634300081d0033",
					"opcodes": "PUSH1 0xA0 PUSH1 0x40 MSTORE PUSH20 0x8103B0A8A00BE2DDC778E6E7EAA21791CD364625 PUSH1 0x1 PUSH0 PUSH2 0x100 EXP DUP2 SLOAD DUP2 PUSH20 0xFFFFFFFFFFFFFFFFFFFFFFFFFFFFFFFFFFFFFFFF MUL NOT AND SWAP1 DUP4 PUSH20 0xFFFFFFFFFFFFFFFFFFFFFFFFFFFFFFFFFFFFFFFF AND MUL OR SWAP1 SSTORE POP PUSH32 0x474E34A077DF58807DBE9C96D3C009B23B3C6D0CCE433E59BBF5B34F823BC56C PUSH0 SHL PUSH1 0x2 SSTORE PUSH3 0x30D40 PUSH1 0x3 PUSH0 PUSH2 0x100 EXP DUP2 SLOAD DUP2 PUSH4 0xFFFFFFFF MUL NOT AND SWAP1 DUP4 PUSH4 0xFFFFFFFF AND MUL OR SWAP1 SSTORE POP PUSH1 0x3 DUP1 PUSH1 0x4 PUSH2 0x100 EXP DUP2 SLOAD DUP2 PUSH2 0xFFFF MUL NOT AND SWAP1 DUP4 PUSH2 0xFFFF AND MUL OR SWAP1 SSTORE POP PUSH1 0x1 PUSH1 0x3 PUSH1 0x6 PUSH2 0x100 EXP DUP2 SLOAD DUP2 PUSH4 0xFFFFFFFF MUL NOT AND SWAP1 DUP4 PUSH4 0xFFFFFFFF AND MUL OR SWAP1 SSTORE POP CALLVALUE DUP1 ISZERO PUSH2 0xEB JUMPI PUSH0 PUSH0 REVERT JUMPDEST POP PUSH1 0x40 MLOAD PUSH2 0x1F57 CODESIZE SUB DUP1 PUSH2 0x1F57 DUP4 CODECOPY DUP2 DUP2 ADD PUSH1 0x40 MSTORE DUP2 ADD SWAP1 PUSH2 0x10D SWAP2 SWAP1 PUSH2 0x233 JUMP JUMPDEST PUSH1 0x1 PUSH0 SWAP1 SLOAD SWAP1 PUSH2 0x100 EXP SWAP1 DIV PUSH20 0xFFFFFFFFFFFFFFFFFFFFFFFFFFFFFFFFFFFFFFFF AND DUP1 PUSH20 0xFFFFFFFFFFFFFFFFFFFFFFFFFFFFFFFFFFFFFFFF AND PUSH1 0x80 DUP2 PUSH20 0xFFFFFFFFFFFFFFFFFFFFFFFFFFFFFFFFFFFFFFFF AND DUP2 MSTORE POP POP POP PUSH1 0x1 PUSH0 SWAP1 SLOAD SWAP1 PUSH2 0x100 EXP SWAP1 DIV PUSH20 0xFFFFFFFFFFFFFFFFFFFFFFFFFFFFFFFFFFFFFFFF AND PUSH0 PUSH0 PUSH2 0x100 EXP DUP2 SLOAD DUP2 PUSH20 0xFFFFFFFFFFFFFFFFFFFFFFFFFFFFFFFFFFFFFFFF MUL NOT AND SWAP1 DUP4 PUSH20 0xFFFFFFFFFFFFFFFFFFFFFFFFFFFFFFFFFFFFFFFF AND MUL OR SWAP1 SSTORE POP DUP1 PUSH0 PUSH1 0x14 PUSH2 0x100 EXP DUP2 SLOAD DUP2 PUSH8 0xFFFFFFFFFFFFFFFF MUL NOT AND SWAP1 DUP4 PUSH8 0xFFFFFFFFFFFFFFFF AND MUL OR SWAP1 SSTORE POP POP PUSH2 0x25E JUMP JUMPDEST PUSH0 PUSH0 REVERT JUMPDEST PUSH0 PUSH8 0xFFFFFFFFFFFFFFFF DUP3 AND SWAP1 POP SWAP2 SWAP1 POP JUMP JUMPDEST PUSH2 0x212 DUP2 PUSH2 0x1F6 JUMP JUMPDEST DUP2 EQ PUSH2 0x21C JUMPI PUSH0 PUSH0 REVERT JUMPDEST POP JUMP JUMPDEST PUSH0 DUP2 MLOAD SWAP1 POP PUSH2 0x22D DUP2 PUSH2 0x209 JUMP JUMPDEST SWAP3 SWAP2 POP POP JUMP JUMPDEST PUSH0 PUSH1 0x20 DUP3 DUP5 SUB SLT ISZERO PUSH2 0x248 JUMPI PUSH2 0x247 PUSH2 0x1F2 JUMP JUMPDEST JUMPDEST PUSH0 PUSH2 0x255 DUP5 DUP3 DUP6 ADD PUSH2 0x21F JUMP JUMPDEST SWAP2 POP POP SWAP3 SWAP2 POP POP JUMP JUMPDEST PUSH1 0x80 MLOAD PUSH2 0x1CDA PUSH2 0x27D PUSH0 CODECOPY PUSH0 DUP2 DUP2 PUSH2 0x3DA ADD MSTORE PUSH2 0x42E ADD MSTORE PUSH2 0x1CDA PUSH0 RETURN INVALID PUSH1 0x80 PUSH1 0x40 MSTORE PUSH1 0x4 CALLDATASIZE LT PUSH2 0x73 JUMPI PUSH0 CALLDATALOAD PUSH1 0xE0 SHR DUP1 PUSH4 0x5C70B561 GT PUSH2 0x4D JUMPI DUP1 PUSH4 0x5C70B561 EQ PUSH2 0xF0 JUMPI DUP1 PUSH4 0x7F1BBFD3 EQ PUSH2 0x10C JUMPI DUP1 PUSH4 0xA9B67BF1 EQ PUSH2 0x116 JUMPI DUP1 PUSH4 0xB996B99C EQ PUSH2 0x120 JUMPI PUSH2 0x7A JUMP JUMPDEST DUP1 PUSH4 0x1F5390FE EQ PUSH2 0x7E JUMPI DUP1 PUSH4 0x1FE543E3 EQ PUSH2 0x88 JUMPI DUP1 PUSH4 0x22AF00FA EQ PUSH2 0xB0 JUMPI PUSH2 0x7A JUMP JUMPDEST CALLDATASIZE PUSH2 0x7A JUMPI STOP JUMPDEST PUSH0 PUSH0 REVERT JUMPDEST PUSH2 0x86 PUSH2 0x13C JUMP JUMPDEST STOP JUMPDEST CALLVALUE DUP1 ISZERO PUSH2 0x93 JUMPI PUSH0 PUSH0 REVERT JUMPDEST POP PUSH2 0xAE PUSH1 0x4 DUP1 CALLDATASIZE SUB DUP2 ADD SWAP1 PUSH2 0xA9 SWAP2 SWAP1 PUSH2 0x15AA JUMP JUMPDEST PUSH2 0x3D8 JUMP JUMPDEST STOP JUMPDEST CALLVALUE DUP1 ISZERO PUSH2 0xBB JUMPI PUSH0 PUSH0 REVERT JUMPDEST POP PUSH2 0xD6 PUSH1 0x4 DUP1 CALLDATASIZE SUB DUP2 ADD SWAP1 PUSH2 0xD1 SWAP2 SWAP1 PUSH2 0x1604 JUMP JUMPDEST PUSH2 0x498 JUMP JUMPDEST PUSH1 0x40 MLOAD PUSH2 0xE7 SWAP6 SWAP5 SWAP4 SWAP3 SWAP2 SWAP1 PUSH2 0x1725 JUMP JUMPDEST PUSH1 0x40 MLOAD DUP1 SWAP2 SUB SWAP1 RETURN JUMPDEST PUSH2 0x10A PUSH1 0x4 DUP1 CALLDATASIZE SUB DUP2 ADD SWAP1 PUSH2 0x105 SWAP2 SWAP1 PUSH2 0x17A0 JUMP JUMPDEST PUSH2 0x50F JUMP JUMPDEST STOP JUMPDEST PUSH2 0x114 PUSH2 0x7F1 JUMP JUMPDEST STOP JUMPDEST PUSH2 0x11E PUSH2 0xA8D JUMP JUMPDEST STOP JUMPDEST PUSH2 0x13A PUSH1 0x4 DUP1 CALLDATASIZE SUB DUP2 ADD SWAP1 PUSH2 0x135 SWAP2 SWAP1 PUSH2 0x17F5 JUMP JUMPDEST PUSH2 0xD28 JUMP JUMPDEST STOP JUMPDEST PUSH0 CALLVALUE GT PUSH2 0x17E JUMPI PUSH1 0x40 MLOAD PUSH32 0x8C379A000000000000000000000000000000000000000000000000000000000 DUP2 MSTORE PUSH1 0x4 ADD PUSH2 0x175 SWAP1 PUSH2 0x187A JUMP JUMPDEST PUSH1 0x40 MLOAD DUP1 SWAP2 SUB SWAP1 REVERT JUMPDEST PUSH0 PUSH0 PUSH0 SWAP1 SLOAD SWAP1 PUSH2 0x100 EXP SWAP1 DIV PUSH20 0xFFFFFFFFFFFFFFFFFFFFFFFFFFFFFFFFFFFFFFFF AND PUSH20 0xFFFFFFFFFFFFFFFFFFFFFFFFFFFFFFFFFFFFFFFF AND PUSH4 0x5D3B1D30 PUSH1 0x2 SLOAD PUSH0 PUSH1 0x14 SWAP1 SLOAD SWAP1 PUSH2 0x100 EXP SWAP1 DIV PUSH8 0xFFFFFFFFFFFFFFFF AND PUSH1 0x3 PUSH1 0x4 SWAP1 SLOAD SWAP1 PUSH2 0x100 EXP SWAP1 DIV PUSH2 0xFFFF AND PUSH1 0x3 PUSH0 SWAP1 SLOAD SWAP1 PUSH2 0x100 EXP SWAP1 DIV PUSH4 0xFFFFFFFF AND PUSH1 0x3 PUSH1 0x6 SWAP1 SLOAD SWAP1 PUSH2 0x100 EXP SWAP1 DIV PUSH4 0xFFFFFFFF AND PUSH1 0x40 MLOAD DUP7 PUSH4 0xFFFFFFFF AND PUSH1 0xE0 SHL DUP2 MSTORE PUSH1 0x4 ADD PUSH2 0x22A SWAP6 SWAP5 SWAP4 SWAP3 SWAP2 SWAP1 PUSH2 0x190C JUMP JUMPDEST PUSH1 0x20 PUSH1 0x40 MLOAD DUP1 DUP4 SUB DUP2 PUSH0 DUP8 GAS CALL ISZERO DUP1 ISZERO PUSH2 0x246 JUMPI RETURNDATASIZE PUSH0 PUSH0 RETURNDATACOPY RETURNDATASIZE PUSH0 REVERT JUMPDEST POP POP POP POP PUSH1 0x40 MLOAD RETURNDATASIZE PUSH1 0x1F NOT PUSH1 0x1F DUP3 ADD AND DUP3 ADD DUP1 PUSH1 0x40 MSTORE POP DUP2 ADD SWAP1 PUSH2 0x26A SWAP2 SWAP1 PUSH2 0x1971 JUMP JUMPDEST SWAP1 POP PUSH1 0x40 MLOAD DUP1 PUSH1 0xA0 ADD PUSH1 0x40 MSTORE DUP1 CALLER PUSH20 0xFFFFFFFFFFFFFFFFFFFFFFFFFFFFFFFFFFFFFFFF AND DUP2 MSTORE PUSH1 0x20 ADD CALLVALUE DUP2 MSTORE PUSH1 0x20 ADD PUSH1 0x2 PUSH1 0x4 DUP2 GT ISZERO PUSH2 0x2AD JUMPI PUSH2 0x2AC PUSH2 0x167D JUMP JUMPDEST JUMPDEST DUP2 MSTORE PUSH1 0x20 ADD PUSH0 PUSH1 0xFF AND DUP2 MSTORE PUSH1 0x20 ADD PUSH0 ISZERO ISZERO DUP2 MSTORE POP PUSH1 0x4 PUSH0 DUP4 DUP2 MSTORE PUSH1 0x20 ADD SWAP1 DUP2 MSTORE PUSH1 0x20 ADD PUSH0 KECCAK256 PUSH0 DUP3 ADD MLOAD DUP2 PUSH0 ADD PUSH0 PUSH2 0x100 EXP DUP2 SLOAD DUP2 PUSH20 0xFFFFFFFFFFFFFFFFFFFFFFFFFFFFFFFFFFFFFFFF MUL NOT AND SWAP1 DUP4 PUSH20 0xFFFFFFFFFFFFFFFFFFFFFFFFFFFFFFFFFFFFFFFF AND MUL OR SWAP1 SSTORE POP PUSH1 0x20 DUP3 ADD MLOAD DUP2 PUSH1 0x1 ADD SSTORE PUSH1 0x40 DUP3 ADD MLOAD DUP2 PUSH1 0x2 ADD PUSH0 PUSH2 0x100 EXP DUP2 SLOAD DUP2 PUSH1 0xFF MUL NOT AND SWAP1 DUP4 PUSH1 0x4 DUP2 GT ISZERO PUSH2 0x34A JUMPI PUSH2 0x349 PUSH2 0x167D JUMP JUMPDEST JUMPDEST MUL OR SWAP1 SSTORE POP PUSH1 0x60 DUP3 ADD MLOAD DUP2 PUSH1 0x2 ADD PUSH1 0x1 PUSH2 0x100 EXP DUP2 SLOAD DUP2 PUSH1 0xFF MUL NOT AND SWAP1 DUP4 PUSH1 0xFF AND MUL OR SWAP1 SSTORE POP PUSH1 0x80 DUP3 ADD MLOAD DUP2 PUSH1 0x2 ADD PUSH1 0x2 PUSH2 0x100 EXP DUP2 SLOAD DUP2 PUSH1 0xFF MUL NOT AND SWAP1 DUP4 ISZERO ISZERO MUL OR SWAP1 SSTORE POP SWAP1 POP POP PUSH32 0x541CF68FCBA3379A00D80D5CD28D5BA5A9EADD91F8F573F962EB3B7EF598BAD2 DUP2 CALLER CALLVALUE PUSH1 0x2 PUSH0 PUSH0 PUSH1 0x40 MLOAD PUSH2 0x3CD SWAP7 SWAP6 SWAP5 SWAP4 SWAP3 SWAP2 SWAP1 PUSH2 0x19DE JUMP JUMPDEST PUSH1 0x40 MLOAD DUP1 SWAP2 SUB SWAP1 LOG1 POP JUMP JUMPDEST PUSH32 0x0 PUSH20 0xFFFFFFFFFFFFFFFFFFFFFFFFFFFFFFFFFFFFFFFF AND CALLER PUSH20 0xFFFFFFFFFFFFFFFFFFFFFFFFFFFFFFFFFFFFFFFF AND EQ PUSH2 0x48A JUMPI CALLER PUSH32 0x0 PUSH1 0x40 MLOAD PUSH32 0x1CF993F400000000000000000000000000000000000000000000000000000000 DUP2 MSTORE PUSH1 0x4 ADD PUSH2 0x481 SWAP3 SWAP2 SWAP1 PUSH2 0x1A3D JUMP JUMPDEST PUSH1 0x40 MLOAD DUP1 SWAP2 SUB SWAP1 REVERT JUMPDEST PUSH2 0x494 DUP3 DUP3 PUSH2 0xFC5 JUMP JUMPDEST POP POP JUMP JUMPDEST PUSH1 0x4 PUSH1 0x20 MSTORE DUP1 PUSH0 MSTORE PUSH1 0x40 PUSH0 KECCAK256 PUSH0 SWAP2 POP SWAP1 POP DUP1 PUSH0 ADD PUSH0 SWAP1 SLOAD SWAP1 PUSH2 0x100 EXP SWAP1 DIV PUSH20 0xFFFFFFFFFFFFFFFFFFFFFFFFFFFFFFFFFFFFFFFF AND SWAP1 DUP1 PUSH1 0x1 ADD SLOAD SWAP1 DUP1 PUSH1 0x2 ADD PUSH0 SWAP1 SLOAD SWAP1 PUSH2 0x100 EXP SWAP1 DIV PUSH1 0xFF AND SWAP1 DUP1 PUSH1 0x2 ADD PUSH1 0x1 SWAP1 SLOAD SWAP1 PUSH2 0x100 EXP SWAP1 DIV PUSH1 0xFF AND SWAP1 DUP1 PUSH1 0x2 ADD PUSH1 0x2 SWAP1 SLOAD SWAP1 PUSH2 0x100 EXP SWAP1 DIV PUSH1 0xFF AND SWAP1 POP DUP6 JUMP JUMPDEST PUSH0 CALLVALUE GT PUSH2 0x551 JUMPI PUSH1 0x40 MLOAD PUSH32 0x8C379A000000000000000000000000000000000000000000000000000000000 DUP2 MSTORE PUSH1 0x4 ADD PUSH2 0x548 SWAP1 PUSH2 0x187A JUMP JUMPDEST PUSH1 0x40 MLOAD DUP1 SWAP2 SUB SWAP1 REVERT JUMPDEST PUSH1 0x24 DUP2 PUSH1 0xFF AND GT ISZERO PUSH2 0x598 JUMPI PUSH1 0x40 MLOAD PUSH32 0x8C379A000000000000000000000000000000000000000000000000000000000 DUP2 MSTORE PUSH1 0x4 ADD PUSH2 0x58F SWAP1 PUSH2 0x1AAE JUMP JUMPDEST PUSH1 0x40 MLOAD DUP1 SWAP2 SUB SWAP1 REVERT JUMPDEST PUSH0 PUSH0 PUSH0 SWAP1 SLOAD SWAP1 PUSH2 0x100 EXP SWAP1 DIV PUSH20 0xFFFFFFFFFFFFFFFFFFFFFFFFFFFFFFFFFFFFFFFF AND PUSH20 0xFFFFFFFFFFFFFFFFFFFFFFFFFFFFFFFFFFFFFFFF AND PUSH4 0x5D3B1D30 PUSH1 0x2 SLOAD PUSH0 PUSH1 0x14 SWAP1 SLOAD SWAP1 PUSH2 0x100 EXP SWAP1 DIV PUSH8 0xFFFFFFFFFFFFFFFF AND PUSH1 0x3 PUSH1 0x4 SWAP1 SLOAD SWAP1 PUSH2 0x100 EXP SWAP1 DIV PUSH2 0xFFFF AND PUSH1 0x3 PUSH0 SWAP1 SLOAD SWAP1 PUSH2 0x100 EXP SWAP1 DIV PUSH4 0xFFFFFFFF AND PUSH1 0x3 PUSH1 0x6 SWAP1 SLOAD SWAP1 PUSH2 0x100 EXP SWAP1 DIV PUSH4 0xFFFFFFFF AND PUSH1 0x40 MLOAD DUP7 PUSH4 0xFFFFFFFF AND PUSH1 0xE0 SHL DUP2 MSTORE PUSH1 0x4 ADD PUSH2 0x644 SWAP6 SWAP5 SWAP4 SWAP3 SWAP2 SWAP1 PUSH2 0x190C JUMP JUMPDEST PUSH1 0x20 PUSH1 0x40 MLOAD DUP1 DUP4 SUB DUP2 PUSH0 DUP8 GAS CALL ISZERO DUP1 ISZERO PUSH2 0x660 JUMPI RETURNDATASIZE PUSH0 PUSH0 RETURNDATACOPY RETURNDATASIZE PUSH0 REVERT JUMPDEST POP POP POP POP PUSH1 0x40 MLOAD RETURNDATASIZE PUSH1 0x1F NOT PUSH1 0x1F DUP3 ADD AND DUP3 ADD DUP1 PUSH1 0x40 MSTORE POP DUP2 ADD SWAP1 PUSH2 0x684 SWAP2 SWAP1 PUSH2 0x1971 JUMP JUMPDEST SWAP1 POP PUSH1 0x40 MLOAD DUP1 PUSH1 0xA0 ADD PUSH1 0x40 MSTORE DUP1 CALLER PUSH20 0xFFFFFFFFFFFFFFFFFFFFFFFFFFFFFFFFFFFFFFFF AND DUP2 MSTORE PUSH1 0x20 ADD CALLVALUE DUP2 MSTORE PUSH1 0x20 ADD PUSH0 PUSH1 0x4 DUP2 GT ISZERO PUSH2 0x6C6 JUMPI PUSH2 0x6C5 PUSH2 0x167D JUMP JUMPDEST JUMPDEST DUP2 MSTORE PUSH1 0x20 ADD DUP4 PUSH1 0xFF AND DUP2 MSTORE PUSH1 0x20 ADD PUSH0 ISZERO ISZERO DUP2 MSTORE POP PUSH1 0x4 PUSH0 DUP4 DUP2 MSTORE PUSH1 0x20 ADD SWAP1 DUP2 MSTORE PUSH1 0x20 ADD PUSH0 KECCAK256 PUSH0 DUP3 ADD MLOAD DUP2 PUSH0 ADD PUSH0 PUSH2 0x100 EXP DUP2 SLOAD DUP2 PUSH20 0xFFFFFFFFFFFFFFFFFFFFFFFFFFFFFFFFFFFFFFFF MUL NOT AND SWAP1 DUP4 PUSH20 0xFFFFFFFFFFFFFFFFFFFFFFFFFFFFFFFFFFFFFFFF AND MUL OR SWAP1 SSTORE POP PUSH1 0x20 DUP3 ADD MLOAD DUP2 PUSH1 0x1 ADD SSTORE PUSH1 0x40 DUP3 ADD MLOAD DUP2 PUSH1 0x2 ADD PUSH0 PUSH2 0x100 EXP DUP2 SLOAD DUP2 PUSH1 0xFF MUL NOT AND SWAP1 DUP4 PUSH1 0x4 DUP2 GT ISZERO PUSH2 0x763 JUMPI PUSH2 0x762 PUSH2 0x167D JUMP JUMPDEST JUMPDEST MUL OR SWAP1 SSTORE POP PUSH1 0x60 DUP3 ADD MLOAD DUP2 PUSH1 0x2 ADD PUSH1 0x1 PUSH2 0x100 EXP DUP2 SLOAD DUP2 PUSH1 0xFF MUL NOT AND SWAP1 DUP4 PUSH1 0xFF AND MUL OR SWAP1 SSTORE POP PUSH1 0x80 DUP3 ADD MLOAD DUP2 PUSH1 0x2 ADD PUSH1 0x2 PUSH2 0x100 EXP DUP2 SLOAD DUP2 PUSH1 0xFF MUL NOT AND SWAP1 DUP4 ISZERO ISZERO MUL OR SWAP1 SSTORE POP SWAP1 POP POP PUSH32 0x541CF68FCBA3379A00D80D5CD28D5BA5A9EADD91F8F573F962EB3B7EF598BAD2 DUP2 CALLER CALLVALUE PUSH0 DUP7 PUSH0 PUSH1 0x40 MLOAD PUSH2 0x7E5 SWAP7 SWAP6 SWAP5 SWAP4 SWAP3 SWAP2 SWAP1 PUSH2 0x1ACC JUMP JUMPDEST PUSH1 0x40 MLOAD DUP1 SWAP2 SUB SWAP1 LOG1 POP POP JUMP JUMPDEST PUSH0 CALLVALUE GT PUSH2 0x833 JUMPI PUSH1 0x40 MLOAD PUSH32 0x8C379A000000000000000000000000000000000000000000000000000000000 DUP2 MSTORE PUSH1 0x4 ADD PUSH2 0x82A SWAP1 PUSH2 0x187A JUMP JUMPDEST PUSH1 0x40 MLOAD DUP1 SWAP2 SUB SWAP1 REVERT JUMPDEST PUSH0 PUSH0 PUSH0 SWAP1 SLOAD SWAP1 PUSH2 0x100 EXP SWAP1 DIV PUSH20 0xFFFFFFFFFFFFFFFFFFFFFFFFFFFFFFFFFFFFFFFF AND PUSH20 0xFFFFFFFFFFFFFFFFFFFFFFFFFFFFFFFFFFFFFFFF AND PUSH4 0x5D3B1D30 PUSH1 0x2 SLOAD PUSH0 PUSH1 0x14 SWAP1 SLOAD SWAP1 PUSH2 0x100 EXP SWAP1 DIV PUSH8 0xFFFFFFFFFFFFFFFF AND PUSH1 0x3 PUSH1 0x4 SWAP1 SLOAD SWAP1 PUSH2 0x100 EXP SWAP1 DIV PUSH2 0xFFFF AND PUSH1 0x3 PUSH0 SWAP1 SLOAD SWAP1 PUSH2 0x100 EXP SWAP1 DIV PUSH4 0xFFFFFFFF AND PUSH1 0x3 PUSH1 0x6 SWAP1 SLOAD SWAP1 PUSH2 0x100 EXP SWAP1 DIV PUSH4 0xFFFFFFFF AND PUSH1 0x40 MLOAD DUP7 PUSH4 0xFFFFFFFF AND PUSH1 0xE0 SHL DUP2 MSTORE PUSH1 0x4 ADD PUSH2 0x8DF SWAP6 SWAP5 SWAP4 SWAP3 SWAP2 SWAP1 PUSH2 0x190C JUMP JUMPDEST PUSH1 0x20 PUSH1 0x40 MLOAD DUP1 DUP4 SUB DUP2 PUSH0 DUP8 GAS CALL ISZERO DUP1 ISZERO PUSH2 0x8FB JUMPI RETURNDATASIZE PUSH0 PUSH0 RETURNDATACOPY RETURNDATASIZE PUSH0 REVERT JUMPDEST POP POP POP POP PUSH1 0x40 MLOAD RETURNDATASIZE PUSH1 0x1F NOT PUSH1 0x1F DUP3 ADD AND DUP3 ADD DUP1 PUSH1 0x40 MSTORE POP DUP2 ADD SWAP1 PUSH2 0x91F SWAP2 SWAP1 PUSH2 0x1971 JUMP JUMPDEST SWAP1 POP PUSH1 0x40 MLOAD DUP1 PUSH1 0xA0 ADD PUSH1 0x40 MSTORE DUP1 CALLER PUSH20 0xFFFFFFFFFFFFFFFFFFFFFFFFFFFFFFFFFFFFFFFF AND DUP2 MSTORE PUSH1 0x20 ADD CALLVALUE DUP2 MSTORE PUSH1 0x20 ADD PUSH1 0x3 PUSH1 0x4 DUP2 GT ISZERO PUSH2 0x962 JUMPI PUSH2 0x961 PUSH2 0x167D JUMP JUMPDEST JUMPDEST DUP2 MSTORE PUSH1 0x20 ADD PUSH0 PUSH1 0xFF AND DUP2 MSTORE PUSH1 0x20 ADD PUSH0 ISZERO ISZERO DUP2 MSTORE POP PUSH1 0x4 PUSH0 DUP4 DUP2 MSTORE PUSH1 0x20 ADD SWAP1 DUP2 MSTORE PUSH1 0x20 ADD PUSH0 KECCAK256 PUSH0 DUP3 ADD MLOAD DUP2 PUSH0 ADD PUSH0 PUSH2 0x100 EXP DUP2 SLOAD DUP2 PUSH20 0xFFFFFFFFFFFFFFFFFFFFFFFFFFFFFFFFFFFFFFFF MUL NOT AND SWAP1 DUP4 PUSH20 0xFFFFFFFFFFFFFFFFFFFFFFFFFFFFFFFFFFFFFFFF AND MUL OR SWAP1 SSTORE POP PUSH1 0x20 DUP3 ADD MLOAD DUP2 PUSH1 0x1 ADD SSTORE PUSH1 0x40 DUP3 ADD MLOAD DUP2 PUSH1 0x2 ADD PUSH0 PUSH2 0x100 EXP DUP2 SLOAD DUP2 PUSH1 0xFF MUL NOT AND SWAP1 DUP4 PUSH1 0x4 DUP2 GT ISZERO PUSH2 0x9FF JUMPI PUSH2 0x9FE PUSH2 0x167D JUMP JUMPDEST JUMPDEST MUL OR SWAP1 SSTORE POP PUSH1 0x60 DUP3 ADD MLOAD DUP2 PUSH1 0x2 ADD PUSH1 0x1 PUSH2 0x100 EXP DUP2 SLOAD DUP2 PUSH1 0xFF MUL NOT AND SWAP1 DUP4 PUSH1 0xFF AND MUL OR SWAP1 SSTORE POP PUSH1 0x80 DUP3 ADD MLOAD DUP2 PUSH1 0x2 ADD PUSH1 0x2 PUSH2 0x100 EXP DUP2 SLOAD DUP2 PUSH1 0xFF MUL NOT AND SWAP1 DUP4 ISZERO ISZERO MUL OR SWAP1 SSTORE POP SWAP1 POP POP PUSH32 0x541CF68FCBA3379A00D80D5CD28D5BA5A9EADD91F8F573F962EB3B7EF598BAD2 DUP2 CALLER CALLVALUE PUSH1 0x3 PUSH0 PUSH0 PUSH1 0x40 MLOAD PUSH2 0xA82 SWAP7 SWAP6 SWAP5 SWAP4 SWAP3 SWAP2 SWAP1 PUSH2 0x19DE JUMP JUMPDEST PUSH1 0x40 MLOAD DUP1 SWAP2 SUB SWAP1 LOG1 POP JUMP JUMPDEST PUSH0 CALLVALUE GT PUSH2 0xACF JUMPI PUSH1 0x40 MLOAD PUSH32 0x8C379A000000000000000000000000000000000000000000000000000000000 DUP2 MSTORE PUSH1 0x4 ADD PUSH2 0xAC6 SWAP1 PUSH2 0x187A JUMP JUMPDEST PUSH1 0x40 MLOAD DUP1 SWAP2 SUB SWAP1 REVERT JUMPDEST PUSH0 PUSH0 PUSH0 SWAP1 SLOAD SWAP1 PUSH2 0x100 EXP SWAP1 DIV PUSH20 0xFFFFFFFFFFFFFFFFFFFFFFFFFFFFFFFFFFFFFFFF AND PUSH20 0xFFFFFFFFFFFFFFFFFFFFFFFFFFFFFFFFFFFFFFFF AND PUSH4 0x5D3B1D30 PUSH1 0x2 SLOAD PUSH0 PUSH1 0x14 SWAP1 SLOAD SWAP1 PUSH2 0x100 EXP SWAP1 DIV PUSH8 0xFFFFFFFFFFFFFFFF AND PUSH1 0x3 PUSH1 0x4 SWAP1 SLOAD SWAP1 PUSH2 0x100 EXP SWAP1 DIV PUSH2 0xFFFF AND PUSH1 0x3 PUSH0 SWAP1 SLOAD SWAP1 PUSH2 0x100 EXP SWAP1 DIV PUSH4 0xFFFFFFFF AND PUSH1 0x3 PUSH1 0x6 SWAP1 SLOAD SWAP1 PUSH2 0x100 EXP SWAP1 DIV PUSH4 0xFFFFFFFF AND PUSH1 0x40 MLOAD DUP7 PUSH4 0xFFFFFFFF AND PUSH1 0xE0 SHL DUP2 MSTORE PUSH1 0x4 ADD PUSH2 0xB7B SWAP6 SWAP5 SWAP4 SWAP3 SWAP2 SWAP1 PUSH2 0x190C JUMP JUMPDEST PUSH1 0x20 PUSH1 0x40 MLOAD DUP1 DUP4 SUB DUP2 PUSH0 DUP8 GAS CALL ISZERO DUP1 ISZERO PUSH2 0xB97 JUMPI RETURNDATASIZE PUSH0 PUSH0 RETURNDATACOPY RETURNDATASIZE PUSH0 REVERT JUMPDEST POP POP POP POP PUSH1 0x40 MLOAD RETURNDATASIZE PUSH1 0x1F NOT PUSH1 0x1F DUP3 ADD AND DUP3 ADD DUP1 PUSH1 0x40 MSTORE POP DUP2 ADD SWAP1 PUSH2 0xBBB SWAP2 SWAP1 PUSH2 0x1971 JUMP JUMPDEST SWAP1 POP PUSH1 0x40 MLOAD DUP1 PUSH1 0xA0 ADD PUSH1 0x40 MSTORE DUP1 CALLER PUSH20 0xFFFFFFFFFFFFFFFFFFFFFFFFFFFFFFFFFFFFFFFF AND DUP2 MSTORE PUSH1 0x20 ADD CALLVALUE DUP2 MSTORE PUSH1 0x20 ADD PUSH1 0x4 DUP1 DUP2 GT ISZERO PUSH2 0xBFD JUMPI PUSH2 0xBFC PUSH2 0x167D JUMP JUMPDEST JUMPDEST DUP2 MSTORE PUSH1 0x20 ADD PUSH0 PUSH1 0xFF AND DUP2 MSTORE PUSH1 0x20 ADD PUSH0 ISZERO ISZERO DUP2 MSTORE POP PUSH1 0x4 PUSH0 DUP4 DUP2 MSTORE PUSH1 0x20 ADD SWAP1 DUP2 MSTORE PUSH1 0x20 ADD PUSH0 KECCAK256 PUSH0 DUP3 ADD MLOAD DUP2 PUSH0 ADD PUSH0 PUSH2 0x100 EXP DUP2 SLOAD DUP2 PUSH20 0xFFFFFFFFFFFFFFFFFFFFFFFFFFFFFFFFFFFFFFFF MUL NOT AND SWAP1 DUP4 PUSH20 0xFFFFFFFFFFFFFFFFFFFFFFFFFFFFFFFFFFFFFFFF AND MUL OR SWAP1 SSTORE POP PUSH1 0x20 DUP3 ADD MLOAD DUP2 PUSH1 0x1 ADD SSTORE PUSH1 0x40 DUP3 ADD MLOAD DUP2 PUSH1 0x2 ADD PUSH0 PUSH2 0x100 EXP DUP2 SLOAD DUP2 PUSH1 0xFF MUL NOT AND SWAP1 DUP4 PUSH1 0x4 DUP2 GT ISZERO PUSH2 0xC9A JUMPI PUSH2 0xC99 PUSH2 0x167D JUMP JUMPDEST JUMPDEST MUL OR SWAP1 SSTORE POP PUSH1 0x60 DUP3 ADD MLOAD DUP2 PUSH1 0x2 ADD PUSH1 0x1 PUSH2 0x100 EXP DUP2 SLOAD DUP2 PUSH1 0xFF MUL NOT AND SWAP1 DUP4 PUSH1 0xFF AND MUL OR SWAP1 SSTORE POP PUSH1 0x80 DUP3 ADD MLOAD DUP2 PUSH1 0x2 ADD PUSH1 0x2 PUSH2 0x100 EXP DUP2 SLOAD DUP2 PUSH1 0xFF MUL NOT AND SWAP1 DUP4 ISZERO ISZERO MUL OR SWAP1 SSTORE POP SWAP1 POP POP PUSH32 0x541CF68FCBA3379A00D80D5CD28D5BA5A9EADD91F8F573F962EB3B7EF598BAD2 DUP2 CALLER CALLVALUE PUSH1 0x4 PUSH0 PUSH0 PUSH1 0x40 MLOAD PUSH2 0xD1D SWAP7 SWAP6 SWAP5 SWAP4 SWAP3 SWAP2 SWAP1 PUSH2 0x19DE JUMP JUMPDEST PUSH1 0x40 MLOAD DUP1 SWAP2 SUB SWAP1 LOG1 POP JUMP JUMPDEST PUSH0 CALLVALUE GT PUSH2 0xD6A JUMPI PUSH1 0x40 MLOAD PUSH32 0x8C379A000000000000000000000000000000000000000000000000000000000 DUP2 MSTORE PUSH1 0x4 ADD PUSH2 0xD61 SWAP1 PUSH2 0x187A JUMP JUMPDEST PUSH1 0x40 MLOAD DUP1 SWAP2 SUB SWAP1 REVERT JUMPDEST PUSH0 PUSH0 PUSH0 SWAP1 SLOAD SWAP1 PUSH2 0x100 EXP SWAP1 DIV PUSH20 0xFFFFFFFFFFFFFFFFFFFFFFFFFFFFFFFFFFFFFFFF AND PUSH20 0xFFFFFFFFFFFFFFFFFFFFFFFFFFFFFFFFFFFFFFFF AND PUSH4 0x5D3B1D30 PUSH1 0x2 SLOAD PUSH0 PUSH1 0x14 SWAP1 SLOAD SWAP1 PUSH2 0x100 EXP SWAP1 DIV PUSH8 0xFFFFFFFFFFFFFFFF AND PUSH1 0x3 PUSH1 0x4 SWAP1 SLOAD SWAP1 PUSH2 0x100 EXP SWAP1 DIV PUSH2 0xFFFF AND PUSH1 0x3 PUSH0 SWAP1 SLOAD SWAP1 PUSH2 0x100 EXP SWAP1 DIV PUSH4 0xFFFFFFFF AND PUSH1 0x3 PUSH1 0x6 SWAP1 SLOAD SWAP1 PUSH2 0x100 EXP SWAP1 DIV PUSH4 0xFFFFFFFF AND PUSH1 0x40 MLOAD DUP7 PUSH4 0xFFFFFFFF AND PUSH1 0xE0 SHL DUP2 MSTORE PUSH1 0x4 ADD PUSH2 0xE16 SWAP6 SWAP5 SWAP4 SWAP3 SWAP2 SWAP1 PUSH2 0x190C JUMP JUMPDEST PUSH1 0x20 PUSH1 0x40 MLOAD DUP1 DUP4 SUB DUP2 PUSH0 DUP8 GAS CALL ISZERO DUP1 ISZERO PUSH2 0xE32 JUMPI RETURNDATASIZE PUSH0 PUSH0 RETURNDATACOPY RETURNDATASIZE PUSH0 REVERT JUMPDEST POP POP POP POP PUSH1 0x40 MLOAD RETURNDATASIZE PUSH1 0x1F NOT PUSH1 0x1F DUP3 ADD AND DUP3 ADD DUP1 PUSH1 0x40 MSTORE POP DUP2 ADD SWAP1 PUSH2 0xE56 SWAP2 SWAP1 PUSH2 0x1971 JUMP JUMPDEST SWAP1 POP PUSH1 0x40 MLOAD DUP1 PUSH1 0xA0 ADD PUSH1 0x40 MSTORE DUP1 CALLER PUSH20 0xFFFFFFFFFFFFFFFFFFFFFFFFFFFFFFFFFFFFFFFF AND DUP2 MSTORE PUSH1 0x20 ADD CALLVALUE DUP2 MSTORE PUSH1 0x20 ADD PUSH1 0x1 PUSH1 0x4 DUP2 GT ISZERO PUSH2 0xE99 JUMPI PUSH2 0xE98 PUSH2 0x167D JUMP JUMPDEST JUMPDEST DUP2 MSTORE PUSH1 0x20 ADD PUSH0 PUSH1 0xFF AND DUP2 MSTORE PUSH1 0x20 ADD DUP4 ISZERO ISZERO DUP2 MSTORE POP PUSH1 0x4 PUSH0 DUP4 DUP2 MSTORE PUSH1 0x20 ADD SWAP1 DUP2 MSTORE PUSH1 0x20 ADD PUSH0 KECCAK256 PUSH0 DUP3 ADD MLOAD DUP2 PUSH0 ADD PUSH0 PUSH2 0x100 EXP DUP2 SLOAD DUP2 PUSH20 0xFFFFFFFFFFFFFFFFFFFFFFFFFFFFFFFFFFFFFFFF MUL NOT AND SWAP1 DUP4 PUSH20 0xFFFFFFFFFFFFFFFFFFFFFFFFFFFFFFFFFFFFFFFF AND MUL OR SWAP1 SSTORE POP PUSH1 0x20 DUP3 ADD MLOAD DUP2 PUSH1 0x1 ADD SSTORE PUSH1 0x40 DUP3 ADD MLOAD DUP2 PUSH1 0x2 ADD PUSH0 PUSH2 0x100 EXP DUP2 SLOAD DUP2 PUSH1 0xFF MUL NOT AND SWAP1 DUP4 PUSH1 0x4 DUP2 GT ISZERO PUSH2 0xF36 JUMPI PUSH2 0xF35 PUSH2 0x167D JUMP JUMPDEST JUMPDEST MUL OR SWAP1 SSTORE POP PUSH1 0x60 DUP3 ADD MLOAD DUP2 PUSH1 0x2 ADD PUSH1 0x1 PUSH2 0x100 EXP DUP2 SLOAD DUP2 PUSH1 0xFF MUL NOT AND SWAP1 DUP4 PUSH1 0xFF AND MUL OR SWAP1 SSTORE POP PUSH1 0x80 DUP3 ADD MLOAD DUP2 PUSH1 0x2 ADD PUSH1 0x2 PUSH2 0x100 EXP DUP2 SLOAD DUP2 PUSH1 0xFF MUL NOT AND SWAP1 DUP4 ISZERO ISZERO MUL OR SWAP1 SSTORE POP SWAP1 POP POP PUSH32 0x541CF68FCBA3379A00D80D5CD28D5BA5A9EADD91F8F573F962EB3B7EF598BAD2 DUP2 CALLER CALLVALUE PUSH1 0x1 PUSH0 DUP8 PUSH1 0x40 MLOAD PUSH2 0xFB9 SWAP7 SWAP6 SWAP5 SWAP4 SWAP3 SWAP2 SWAP1 PUSH2 0x19DE JUMP JUMPDEST PUSH1 0x40 MLOAD DUP1 SWAP2 SUB SWAP1 LOG1 POP POP JUMP JUMPDEST PUSH0 PUSH1 0x4 PUSH0 DUP5 DUP2 MSTORE PUSH1 0x20 ADD SWAP1 DUP2 MSTORE PUSH1 0x20 ADD PUSH0 KECCAK256 PUSH1 0x40 MLOAD DUP1 PUSH1 0xA0 ADD PUSH1 0x40 MSTORE SWAP1 DUP2 PUSH0 DUP3 ADD PUSH0 SWAP1 SLOAD SWAP1 PUSH2 0x100 EXP SWAP1 DIV PUSH20 0xFFFFFFFFFFFFFFFFFFFFFFFFFFFFFFFFFFFFFFFF AND PUSH20 0xFFFFFFFFFFFFFFFFFFFFFFFFFFFFFFFFFFFFFFFF AND PUSH20 0xFFFFFFFFFFFFFFFFFFFFFFFFFFFFFFFFFFFFFFFF AND DUP2 MSTORE PUSH1 0x20 ADD PUSH1 0x1 DUP3 ADD SLOAD DUP2 MSTORE PUSH1 0x20 ADD PUSH1 0x2 DUP3 ADD PUSH0 SWAP1 SLOAD SWAP1 PUSH2 0x100 EXP SWAP1 DIV PUSH1 0xFF AND PUSH1 0x4 DUP2 GT ISZERO PUSH2 0x1064 JUMPI PUSH2 0x1063 PUSH2 0x167D JUMP JUMPDEST JUMPDEST PUSH1 0x4 DUP2 GT ISZERO PUSH2 0x1076 JUMPI PUSH2 0x1075 PUSH2 0x167D JUMP JUMPDEST JUMPDEST DUP2 MSTORE PUSH1 0x20 ADD PUSH1 0x2 DUP3 ADD PUSH1 0x1 SWAP1 SLOAD SWAP1 PUSH2 0x100 EXP SWAP1 DIV PUSH1 0xFF AND PUSH1 0xFF AND PUSH1 0xFF AND DUP2 MSTORE PUSH1 0x20 ADD PUSH1 0x2 DUP3 ADD PUSH1 0x2 SWAP1 SLOAD SWAP1 PUSH2 0x100 EXP SWAP1 DIV PUSH1 0xFF AND ISZERO ISZERO ISZERO ISZERO DUP2 MSTORE POP POP SWAP1 POP PUSH0 PUSH1 0x25 DUP4 PUSH0 DUP2 MLOAD DUP2 LT PUSH2 0x10CA JUMPI PUSH2 0x10C9 PUSH2 0x1B2B JUMP JUMPDEST JUMPDEST PUSH1 0x20 MUL PUSH1 0x20 ADD ADD MLOAD PUSH2 0x10DC SWAP2 SWAP1 PUSH2 0x1B85 JUMP JUMPDEST SWAP1 POP PUSH0 PUSH0 PUSH1 0x2 DUP4 PUSH2 0x10ED SWAP2 SWAP1 PUSH2 0x1BB5 JUMP JUMPDEST PUSH1 0xFF AND EQ SWAP1 POP PUSH0 PUSH0 PUSH1 0x2 DUP5 PUSH2 0x1102 SWAP2 SWAP1 PUSH2 0x1BB5 JUMP JUMPDEST PUSH1 0xFF AND EQ DUP1 ISZERO PUSH2 0x1115 JUMPI POP PUSH0 DUP4 PUSH1 0xFF AND EQ ISZERO JUMPDEST SWAP1 POP PUSH0 PUSH0 PUSH1 0x2 DUP6 PUSH2 0x1126 SWAP2 SWAP1 PUSH2 0x1BB5 JUMP JUMPDEST PUSH1 0xFF AND EQ ISZERO SWAP1 POP PUSH0 PUSH0 SWAP1 POP PUSH0 PUSH0 SWAP1 POP PUSH0 PUSH1 0x4 DUP2 GT ISZERO PUSH2 0x1148 JUMPI PUSH2 0x1147 PUSH2 0x167D JUMP JUMPDEST JUMPDEST DUP8 PUSH1 0x40 ADD MLOAD PUSH1 0x4 DUP2 GT ISZERO PUSH2 0x115F JUMPI PUSH2 0x115E PUSH2 0x167D JUMP JUMPDEST JUMPDEST EQ DUP1 ISZERO PUSH2 0x1175 JUMPI POP DUP6 PUSH1 0xFF AND DUP8 PUSH1 0x60 ADD MLOAD PUSH1 0xFF AND EQ JUMPDEST ISZERO PUSH2 0x1196 JUMPI PUSH1 0x1 SWAP2 POP PUSH1 0x24 DUP8 PUSH1 0x20 ADD MLOAD PUSH2 0x118F SWAP2 SWAP1 PUSH2 0x1C12 JUMP JUMPDEST SWAP1 POP PUSH2 0x12FC JUMP JUMPDEST PUSH1 0x1 PUSH1 0x4 DUP2 GT ISZERO PUSH2 0x11AA JUMPI PUSH2 0x11A9 PUSH2 0x167D JUMP JUMPDEST JUMPDEST DUP8 PUSH1 0x40 ADD MLOAD PUSH1 0x4 DUP2 GT ISZERO PUSH2 0x11C1 JUMPI PUSH2 0x11C0 PUSH2 0x167D JUMP JUMPDEST JUMPDEST EQ DUP1 ISZERO PUSH2 0x11D5 JUMPI POP DUP5 ISZERO ISZERO DUP8 PUSH1 0x80 ADD MLOAD ISZERO ISZERO EQ JUMPDEST ISZERO PUSH2 0x11F6 JUMPI PUSH1 0x1 SWAP2 POP PUSH1 0x2 DUP8 PUSH1 0x20 ADD MLOAD PUSH2 0x11EF SWAP2 SWAP1 PUSH2 0x1C12 JUMP JUMPDEST SWAP1 POP PUSH2 0x12FB JUMP JUMPDEST PUSH1 0x2 PUSH1 0x4 DUP2 GT ISZERO PUSH2 0x120A JUMPI PUSH2 0x1209 PUSH2 0x167D JUMP JUMPDEST JUMPDEST DUP8 PUSH1 0x40 ADD MLOAD PUSH1 0x4 DUP2 GT ISZERO PUSH2 0x1221 JUMPI PUSH2 0x1220 PUSH2 0x167D JUMP JUMPDEST JUMPDEST EQ DUP1 ISZERO PUSH2 0x1230 JUMPI POP PUSH0 DUP7 PUSH1 0xFF AND EQ JUMPDEST ISZERO PUSH2 0x1251 JUMPI PUSH1 0x1 SWAP2 POP PUSH1 0x24 DUP8 PUSH1 0x20 ADD MLOAD PUSH2 0x124A SWAP2 SWAP1 PUSH2 0x1C12 JUMP JUMPDEST SWAP1 POP PUSH2 0x12FA JUMP JUMPDEST PUSH1 0x3 PUSH1 0x4 DUP2 GT ISZERO PUSH2 0x1265 JUMPI PUSH2 0x1264 PUSH2 0x167D JUMP JUMPDEST JUMPDEST DUP8 PUSH1 0x40 ADD MLOAD PUSH1 0x4 DUP2 GT ISZERO PUSH2 0x127C JUMPI PUSH2 0x127B PUSH2 0x167D JUMP JUMPDEST JUMPDEST EQ DUP1 ISZERO PUSH2 0x1286 JUMPI POP DUP3 JUMPDEST ISZERO PUSH2 0x12A7 JUMPI PUSH1 0x1 SWAP2 POP PUSH1 0x2 DUP8 PUSH1 0x20 ADD MLOAD PUSH2 0x12A0 SWAP2 SWAP1 PUSH2 0x1C12 JUMP JUMPDEST SWAP1 POP PUSH2 0x12F9 JUMP JUMPDEST PUSH1 0x4 DUP1 DUP2 GT ISZERO PUSH2 0x12BA JUMPI PUSH2 0x12B9 PUSH2 0x167D JUMP JUMPDEST JUMPDEST DUP8 PUSH1 0x40 ADD MLOAD PUSH1 0x4 DUP2 GT ISZERO PUSH2 0x12D1 JUMPI PUSH2 0x12D0 PUSH2 0x167D JUMP JUMPDEST JUMPDEST EQ DUP1 ISZERO PUSH2 0x12DB JUMPI POP DUP4 JUMPDEST ISZERO PUSH2 0x12F8 JUMPI PUSH1 0x1 SWAP2 POP PUSH1 0x2 DUP8 PUSH1 0x20 ADD MLOAD PUSH2 0x12F5 SWAP2 SWAP1 PUSH2 0x1C12 JUMP JUMPDEST SWAP1 POP JUMPDEST JUMPDEST JUMPDEST JUMPDEST JUMPDEST DUP2 ISZERO PUSH2 0x134A JUMPI DUP7 PUSH0 ADD MLOAD PUSH20 0xFFFFFFFFFFFFFFFFFFFFFFFFFFFFFFFFFFFFFFFF AND PUSH2 0x8FC DUP3 SWAP1 DUP2 ISZERO MUL SWAP1 PUSH1 0x40 MLOAD PUSH0 PUSH1 0x40 MLOAD DUP1 DUP4 SUB DUP2 DUP6 DUP9 DUP9 CALL SWAP4 POP POP POP POP ISZERO DUP1 ISZERO PUSH2 0x1348 JUMPI RETURNDATASIZE PUSH0 PUSH0 RETURNDATACOPY RETURNDATASIZE PUSH0 REVERT JUMPDEST POP JUMPDEST PUSH32 0x7204B31C5BBFA97E1AEE8EF0FB88D079DA912AD60E762363640DA9F84333C110 DUP10 DUP9 PUSH0 ADD MLOAD DUP10 PUSH1 0x20 ADD MLOAD DUP10 DUP7 PUSH1 0x40 MLOAD PUSH2 0x1388 SWAP6 SWAP5 SWAP4 SWAP3 SWAP2 SWAP1 PUSH2 0x1C53 JUMP JUMPDEST PUSH1 0x40 MLOAD DUP1 SWAP2 SUB SWAP1 LOG1 PUSH1 0x4 PUSH0 DUP11 DUP2 MSTORE PUSH1 0x20 ADD SWAP1 DUP2 MSTORE PUSH1 0x20 ADD PUSH0 KECCAK256 PUSH0 PUSH0 DUP3 ADD PUSH0 PUSH2 0x100 EXP DUP2 SLOAD SWAP1 PUSH20 0xFFFFFFFFFFFFFFFFFFFFFFFFFFFFFFFFFFFFFFFF MUL NOT AND SWAP1 SSTORE PUSH1 0x1 DUP3 ADD PUSH0 SWAP1 SSTORE PUSH1 0x2 DUP3 ADD PUSH0 PUSH2 0x100 EXP DUP2 SLOAD SWAP1 PUSH1 0xFF MUL NOT AND SWAP1 SSTORE PUSH1 0x2 DUP3 ADD PUSH1 0x1 PUSH2 0x100 EXP DUP2 SLOAD SWAP1 PUSH1 0xFF MUL NOT AND SWAP1 SSTORE PUSH1 0x2 DUP3 ADD PUSH1 0x2 PUSH2 0x100 EXP DUP2 SLOAD SWAP1 PUSH1 0xFF MUL NOT AND SWAP1 SSTORE POP POP POP POP POP POP POP POP POP POP POP JUMP JUMPDEST PUSH0 PUSH1 0x40 MLOAD SWAP1 POP SWAP1 JUMP JUMPDEST PUSH0 PUSH0 REVERT JUMPDEST PUSH0 PUSH0 REVERT JUMPDEST PUSH0 DUP2 SWAP1 POP SWAP2 SWAP1 POP JUMP JUMPDEST PUSH2 0x1439 DUP2 PUSH2 0x1427 JUMP JUMPDEST DUP2 EQ PUSH2 0x1443 JUMPI PUSH0 PUSH0 REVERT JUMPDEST POP JUMP JUMPDEST PUSH0 DUP2 CALLDATALOAD SWAP1 POP PUSH2 0x1454 DUP2 PUSH2 0x1430 JUMP JUMPDEST SWAP3 SWAP2 POP POP JUMP JUMPDEST PUSH0 PUSH0 REVERT JUMPDEST PUSH0 PUSH1 0x1F NOT PUSH1 0x1F DUP4 ADD AND SWAP1 POP SWAP2 SWAP1 POP JUMP JUMPDEST PUSH32 0x4E487B7100000000000000000000000000000000000000000000000000000000 PUSH0 MSTORE PUSH1 0x41 PUSH1 0x4 MSTORE PUSH1 0x24 PUSH0 REVERT JUMPDEST PUSH2 0x14A4 DUP3 PUSH2 0x145E JUMP JUMPDEST DUP2 ADD DUP2 DUP2 LT PUSH8 0xFFFFFFFFFFFFFFFF DUP3 GT OR ISZERO PUSH2 0x14C3 JUMPI PUSH2 0x14C2 PUSH2 0x146E JUMP JUMPDEST JUMPDEST DUP1 PUSH1 0x40 MSTORE POP POP POP JUMP JUMPDEST PUSH0 PUSH2 0x14D5 PUSH2 0x1416 JUMP JUMPDEST SWAP1 POP PUSH2 0x14E1 DUP3 DUP3 PUSH2 0x149B JUMP JUMPDEST SWAP2 SWAP1 POP JUMP JUMPDEST PUSH0 PUSH8 0xFFFFFFFFFFFFFFFF DUP3 GT ISZERO PUSH2 0x1500 JUMPI PUSH2 0x14FF PUSH2 0x146E JUMP JUMPDEST JUMPDEST PUSH1 0x20 DUP3 MUL SWAP1 POP PUSH1 0x20 DUP2 ADD SWAP1 POP SWAP2 SWAP1 POP JUMP JUMPDEST PUSH0 PUSH0 REVERT JUMPDEST PUSH0 PUSH2 0x1527 PUSH2 0x1522 DUP5 PUSH2 0x14E6 JUMP JUMPDEST PUSH2 0x14CC JUMP JUMPDEST SWAP1 POP DUP1 DUP4 DUP3 MSTORE PUSH1 0x20 DUP3 ADD SWAP1 POP PUSH1 0x20 DUP5 MUL DUP4 ADD DUP6 DUP2 GT ISZERO PUSH2 0x154A JUMPI PUSH2 0x1549 PUSH2 0x1511 JUMP JUMPDEST JUMPDEST DUP4 JUMPDEST DUP2 DUP2 LT ISZERO PUSH2 0x1573 JUMPI DUP1 PUSH2 0x155F DUP9 DUP3 PUSH2 0x1446 JUMP JUMPDEST DUP5 MSTORE PUSH1 0x20 DUP5 ADD SWAP4 POP POP PUSH1 0x20 DUP2 ADD SWAP1 POP PUSH2 0x154C JUMP JUMPDEST POP POP POP SWAP4 SWAP3 POP POP POP JUMP JUMPDEST PUSH0 DUP3 PUSH1 0x1F DUP4 ADD SLT PUSH2 0x1591 JUMPI PUSH2 0x1590 PUSH2 0x145A JUMP JUMPDEST JUMPDEST DUP2 CALLDATALOAD PUSH2 0x15A1 DUP5 DUP3 PUSH1 0x20 DUP7 ADD PUSH2 0x1515 JUMP JUMPDEST SWAP2 POP POP SWAP3 SWAP2 POP POP JUMP JUMPDEST PUSH0 PUSH0 PUSH1 0x40 DUP4 DUP6 SUB SLT ISZERO PUSH2 0x15C0 JUMPI PUSH2 0x15BF PUSH2 0x141F JUMP JUMPDEST JUMPDEST PUSH0 PUSH2 0x15CD DUP6 DUP3 DUP7 ADD PUSH2 0x1446 JUMP JUMPDEST SWAP3 POP POP PUSH1 0x20 DUP4 ADD CALLDATALOAD PUSH8 0xFFFFFFFFFFFFFFFF DUP2 GT ISZERO PUSH2 0x15EE JUMPI PUSH2 0x15ED PUSH2 0x1423 JUMP JUMPDEST JUMPDEST PUSH2 0x15FA DUP6 DUP3 DUP7 ADD PUSH2 0x157D JUMP JUMPDEST SWAP2 POP POP SWAP3 POP SWAP3 SWAP1 POP JUMP JUMPDEST PUSH0 PUSH1 0x20 DUP3 DUP5 SUB SLT ISZERO PUSH2 0x1619 JUMPI PUSH2 0x1618 PUSH2 0x141F JUMP JUMPDEST JUMPDEST PUSH0 PUSH2 0x1626 DUP5 DUP3 DUP6 ADD PUSH2 0x1446 JUMP JUMPDEST SWAP2 POP POP SWAP3 SWAP2 POP POP JUMP JUMPDEST PUSH0 PUSH20 0xFFFFFFFFFFFFFFFFFFFFFFFFFFFFFFFFFFFFFFFF DUP3 AND SWAP1 POP SWAP2 SWAP1 POP JUMP JUMPDEST PUSH0 PUSH2 0x1658 DUP3 PUSH2 0x162F JUMP JUMPDEST SWAP1 POP SWAP2 SWAP1 POP JUMP JUMPDEST PUSH2 0x1668 DUP2 PUSH2 0x164E JUMP JUMPDEST DUP3 MSTORE POP POP JUMP JUMPDEST PUSH2 0x1677 DUP2 PUSH2 0x1427 JUMP JUMPDEST DUP3 MSTORE POP POP JUMP JUMPDEST PUSH32 0x4E487B7100000000000000000000000000000000000000000000000000000000 PUSH0 MSTORE PUSH1 0x21 PUSH1 0x4 MSTORE PUSH1 0x24 PUSH0 REVERT JUMPDEST PUSH1 0x5 DUP2 LT PUSH2 0x16BB JUMPI PUSH2 0x16BA PUSH2 0x167D JUMP JUMPDEST JUMPDEST POP JUMP JUMPDEST PUSH0 DUP2 SWAP1 POP PUSH2 0x16CB DUP3 PUSH2 0x16AA JUMP JUMPDEST SWAP2 SWAP1 POP JUMP JUMPDEST PUSH0 PUSH2 0x16DA DUP3 PUSH2 0x16BE JUMP JUMPDEST SWAP1 POP SWAP2 SWAP1 POP JUMP JUMPDEST PUSH2 0x16EA DUP2 PUSH2 0x16D0 JUMP JUMPDEST DUP3 MSTORE POP POP JUMP JUMPDEST PUSH0 PUSH1 0xFF DUP3 AND SWAP1 POP SWAP2 SWAP1 POP JUMP JUMPDEST PUSH2 0x1705 DUP2 PUSH2 0x16F0 JUMP JUMPDEST DUP3 MSTORE POP POP JUMP JUMPDEST PUSH0 DUP2 ISZERO ISZERO SWAP1 POP SWAP2 SWAP1 POP JUMP JUMPDEST PUSH2 0x171F DUP2 PUSH2 0x170B JUMP JUMPDEST DUP3 MSTORE POP POP JUMP JUMPDEST PUSH0 PUSH1 0xA0 DUP3 ADD SWAP1 POP PUSH2 0x1738 PUSH0 DUP4 ADD DUP9 PUSH2 0x165F JUMP JUMPDEST PUSH2 0x1745 PUSH1 0x20 DUP4 ADD DUP8 PUSH2 0x166E JUMP JUMPDEST PUSH2 0x1752 PUSH1 0x40 DUP4 ADD DUP7 PUSH2 0x16E1 JUMP JUMPDEST PUSH2 0x175F PUSH1 0x60 DUP4 ADD DUP6 PUSH2 0x16FC JUMP JUMPDEST PUSH2 0x176C PUSH1 0x80 DUP4 ADD DUP5 PUSH2 0x1716 JUMP JUMPDEST SWAP7 SWAP6 POP POP POP POP POP POP JUMP JUMPDEST PUSH2 0x177F DUP2 PUSH2 0x16F0 JUMP JUMPDEST DUP2 EQ PUSH2 0x1789 JUMPI PUSH0 PUSH0 REVERT JUMPDEST POP JUMP JUMPDEST PUSH0 DUP2 CALLDATALOAD SWAP1 POP PUSH2 0x179A DUP2 PUSH2 0x1776 JUMP JUMPDEST SWAP3 SWAP2 POP POP JUMP JUMPDEST PUSH0 PUSH1 0x20 DUP3 DUP5 SUB SLT ISZERO PUSH2 0x17B5 JUMPI PUSH2 0x17B4 PUSH2 0x141F JUMP JUMPDEST JUMPDEST PUSH0 PUSH2 0x17C2 DUP5 DUP3 DUP6 ADD PUSH2 0x178C JUMP JUMPDEST SWAP2 POP POP SWAP3 SWAP2 POP POP JUMP JUMPDEST PUSH2 0x17D4 DUP2 PUSH2 0x170B JUMP JUMPDEST DUP2 EQ PUSH2 0x17DE JUMPI PUSH0 PUSH0 REVERT JUMPDEST POP JUMP JUMPDEST PUSH0 DUP2 CALLDATALOAD SWAP1 POP PUSH2 0x17EF DUP2 PUSH2 0x17CB JUMP JUMPDEST SWAP3 SWAP2 POP POP JUMP JUMPDEST PUSH0 PUSH1 0x20 DUP3 DUP5 SUB SLT ISZERO PUSH2 0x180A JUMPI PUSH2 0x1809 PUSH2 0x141F JUMP JUMPDEST JUMPDEST PUSH0 PUSH2 0x1817 DUP5 DUP3 DUP6 ADD PUSH2 0x17E1 JUMP JUMPDEST SWAP2 POP POP SWAP3 SWAP2 POP POP JUMP JUMPDEST PUSH0 DUP3 DUP3 MSTORE PUSH1 0x20 DUP3 ADD SWAP1 POP SWAP3 SWAP2 POP POP JUMP JUMPDEST PUSH32 0x426574206D7573742062652067726561746572207468616E2030000000000000 PUSH0 DUP3 ADD MSTORE POP JUMP JUMPDEST PUSH0 PUSH2 0x1864 PUSH1 0x1A DUP4 PUSH2 0x1820 JUMP JUMPDEST SWAP2 POP PUSH2 0x186F DUP3 PUSH2 0x1830 JUMP JUMPDEST PUSH1 0x20 DUP3 ADD SWAP1 POP SWAP2 SWAP1 POP JUMP JUMPDEST PUSH0 PUSH1 0x20 DUP3 ADD SWAP1 POP DUP2 DUP2 SUB PUSH0 DUP4 ADD MSTORE PUSH2 0x1891 DUP2 PUSH2 0x1858 JUMP JUMPDEST SWAP1 POP SWAP2 SWAP1 POP JUMP JUMPDEST PUSH0 DUP2 SWAP1 POP SWAP2 SWAP1 POP JUMP JUMPDEST PUSH2 0x18AA DUP2 PUSH2 0x1898 JUMP JUMPDEST DUP3 MSTORE POP POP JUMP JUMPDEST PUSH0 PUSH8 0xFFFFFFFFFFFFFFFF DUP3 AND SWAP1 POP SWAP2 SWAP1 POP JUMP JUMPDEST PUSH2 0x18CC DUP2 PUSH2 0x18B0 JUMP JUMPDEST DUP3 MSTORE POP POP JUMP JUMPDEST PUSH0 PUSH2 0xFFFF DUP3 AND SWAP1 POP SWAP2 SWAP1 POP JUMP JUMPDEST PUSH2 0x18E8 DUP2 PUSH2 0x18D2 JUMP JUMPDEST DUP3 MSTORE POP POP JUMP JUMPDEST PUSH0 PUSH4 0xFFFFFFFF DUP3 AND SWAP1 POP SWAP2 SWAP1 POP JUMP JUMPDEST PUSH2 0x1906 DUP2 PUSH2 0x18EE JUMP JUMPDEST DUP3 MSTORE POP POP JUMP JUMPDEST PUSH0 PUSH1 0xA0 DUP3 ADD SWAP1 POP PUSH2 0x191F PUSH0 DUP4 ADD DUP9 PUSH2 0x18A1 JUMP JUMPDEST PUSH2 0x192C PUSH1 0x20 DUP4 ADD DUP8 PUSH2 0x18C3 JUMP JUMPDEST PUSH2 0x1939 PUSH1 0x40 DUP4 ADD DUP7 PUSH2 0x18DF JUMP JUMPDEST PUSH2 0x1946 PUSH1 0x60 DUP4 ADD DUP6 PUSH2 0x18FD JUMP JUMPDEST PUSH2 0x1953 PUSH1 0x80 DUP4 ADD DUP5 PUSH2 0x18FD JUMP JUMPDEST SWAP7 SWAP6 POP POP POP POP POP POP JUMP JUMPDEST PUSH0 DUP2 MLOAD SWAP1 POP PUSH2 0x196B DUP2 PUSH2 0x1430 JUMP JUMPDEST SWAP3 SWAP2 POP POP JUMP JUMPDEST PUSH0 PUSH1 0x20 DUP3 DUP5 SUB SLT ISZERO PUSH2 0x1986 JUMPI PUSH2 0x1985 PUSH2 0x141F JUMP JUMPDEST JUMPDEST PUSH0 PUSH2 0x1993 DUP5 DUP3 DUP6 ADD PUSH2 0x195D JUMP JUMPDEST SWAP2 POP POP SWAP3 SWAP2 POP POP JUMP JUMPDEST PUSH0 DUP2 SWAP1 POP SWAP2 SWAP1 POP JUMP JUMPDEST PUSH0 DUP2 SWAP1 POP SWAP2 SWAP1 POP JUMP JUMPDEST PUSH0 PUSH2 0x19C8 PUSH2 0x19C3 PUSH2 0x19BE DUP5 PUSH2 0x199C JUMP JUMPDEST PUSH2 0x19A5 JUMP JUMPDEST PUSH2 0x16F0 JUMP JUMPDEST SWAP1 POP SWAP2 SWAP1 POP JUMP JUMPDEST PUSH2 0x19D8 DUP2 PUSH2 0x19AE JUMP JUMPDEST DUP3 MSTORE POP POP JUMP JUMPDEST PUSH0 PUSH1 0xC0 DUP3 ADD SWAP1 POP PUSH2 0x19F1 PUSH0 DUP4 ADD DUP10 PUSH2 0x166E JUMP JUMPDEST PUSH2 0x19FE PUSH1 0x20 DUP4 ADD DUP9 PUSH2 0x165F JUMP JUMPDEST PUSH2 0x1A0B PUSH1 0x40 DUP4 ADD DUP8 PUSH2 0x166E JUMP JUMPDEST PUSH2 0x1A18 PUSH1 0x60 DUP4 ADD DUP7 PUSH2 0x16E1 JUMP JUMPDEST PUSH2 0x1A25 PUSH1 0x80 DUP4 ADD DUP6 PUSH2 0x19CF JUMP JUMPDEST PUSH2 0x1A32 PUSH1 0xA0 DUP4 ADD DUP5 PUSH2 0x1716 JUMP JUMPDEST SWAP8 SWAP7 POP POP POP POP POP POP POP JUMP JUMPDEST PUSH0 PUSH1 0x40 DUP3 ADD SWAP1 POP PUSH2 0x1A50 PUSH0 DUP4 ADD DUP6 PUSH2 0x165F JUMP JUMPDEST PUSH2 0x1A5D PUSH1 0x20 DUP4 ADD DUP5 PUSH2 0x165F JUMP JUMPDEST SWAP4 SWAP3 POP POP POP JUMP JUMPDEST PUSH32 0x496E76616C6964206E756D626572000000000000000000000000000000000000 PUSH0 DUP3 ADD MSTORE POP JUMP JUMPDEST PUSH0 PUSH2 0x1A98 PUSH1 0xE DUP4 PUSH2 0x1820 JUMP JUMPDEST SWAP2 POP PUSH2 0x1AA3 DUP3 PUSH2 0x1A64 JUMP JUMPDEST PUSH1 0x20 DUP3 ADD SWAP1 POP SWAP2 SWAP1 POP JUMP JUMPDEST PUSH0 PUSH1 0x20 DUP3 ADD SWAP1 POP DUP2 DUP2 SUB PUSH0 DUP4 ADD MSTORE PUSH2 0x1AC5 DUP2 PUSH2 0x1A8C JUMP JUMPDEST SWAP1 POP SWAP2 SWAP1 POP JUMP JUMPDEST PUSH0 PUSH1 0xC0 DUP3 ADD SWAP1 POP PUSH2 0x1ADF PUSH0 DUP4 ADD DUP10 PUSH2 0x166E JUMP JUMPDEST PUSH2 0x1AEC PUSH1 0x20 DUP4 ADD DUP9 PUSH2 0x165F JUMP JUMPDEST PUSH2 0x1AF9 PUSH1 0x40 DUP4 ADD DUP8 PUSH2 0x166E JUMP JUMPDEST PUSH2 0x1B06 PUSH1 0x60 DUP4 ADD DUP7 PUSH2 0x16E1 JUMP JUMPDEST PUSH2 0x1B13 PUSH1 0x80 DUP4 ADD DUP6 PUSH2 0x16FC JUMP JUMPDEST PUSH2 0x1B20 PUSH1 0xA0 DUP4 ADD DUP5 PUSH2 0x1716 JUMP JUMPDEST SWAP8 SWAP7 POP POP POP POP POP POP POP JUMP JUMPDEST PUSH32 0x4E487B7100000000000000000000000000000000000000000000000000000000 PUSH0 MSTORE PUSH1 0x32 PUSH1 0x4 MSTORE PUSH1 0x24 PUSH0 REVERT JUMPDEST PUSH32 0x4E487B7100000000000000000000000000000000000000000000000000000000 PUSH0 MSTORE PUSH1 0x12 PUSH1 0x4 MSTORE PUSH1 0x24 PUSH0 REVERT JUMPDEST PUSH0 PUSH2 0x1B8F DUP3 PUSH2 0x1427 JUMP JUMPDEST SWAP2 POP PUSH2 0x1B9A DUP4 PUSH2 0x1427 JUMP JUMPDEST SWAP3 POP DUP3 PUSH2 0x1BAA JUMPI PUSH2 0x1BA9 PUSH2 0x1B58 JUMP JUMPDEST JUMPDEST DUP3 DUP3 MOD SWAP1 POP SWAP3 SWAP2 POP POP JUMP JUMPDEST PUSH0 PUSH2 0x1BBF DUP3 PUSH2 0x16F0 JUMP JUMPDEST SWAP2 POP PUSH2 0x1BCA DUP4 PUSH2 0x16F0 JUMP JUMPDEST SWAP3 POP DUP3 PUSH2 0x1BDA JUMPI PUSH2 0x1BD9 PUSH2 0x1B58 JUMP JUMPDEST JUMPDEST DUP3 DUP3 MOD SWAP1 POP SWAP3 SWAP2 POP POP JUMP JUMPDEST PUSH32 0x4E487B7100000000000000000000000000000000000000000000000000000000 PUSH0 MSTORE PUSH1 0x11 PUSH1 0x4 MSTORE PUSH1 0x24 PUSH0 REVERT JUMPDEST PUSH0 PUSH2 0x1C1C DUP3 PUSH2 0x1427 JUMP JUMPDEST SWAP2 POP PUSH2 0x1C27 DUP4 PUSH2 0x1427 JUMP JUMPDEST SWAP3 POP DUP3 DUP3 MUL PUSH2 0x1C35 DUP2 PUSH2 0x1427 JUMP JUMPDEST SWAP2 POP DUP3 DUP3 DIV DUP5 EQ DUP4 ISZERO OR PUSH2 0x1C4C JUMPI PUSH2 0x1C4B PUSH2 0x1BE5 JUMP JUMPDEST JUMPDEST POP SWAP3 SWAP2 POP POP JUMP JUMPDEST PUSH0 PUSH1 0xA0 DUP3 ADD SWAP1 POP PUSH2 0x1C66 PUSH0 DUP4 ADD DUP9 PUSH2 0x166E JUMP JUMPDEST PUSH2 0x1C73 PUSH1 0x20 DUP4 ADD DUP8 PUSH2 0x165F JUMP JUMPDEST PUSH2 0x1C80 PUSH1 0x40 DUP4 ADD DUP7 PUSH2 0x166E JUMP JUMPDEST PUSH2 0x1C8D PUSH1 0x60 DUP4 ADD DUP6 PUSH2 0x16FC JUMP JUMPDEST PUSH2 0x1C9A PUSH1 0x80 DUP4 ADD DUP5 PUSH2 0x1716 JUMP JUMPDEST SWAP7 SWAP6 POP POP POP POP POP POP JUMP INVALID LOG2 PUSH5 0x6970667358 0x22 SLT KECCAK256 0xD2 SWAP4 BYTE DUP15 SGT JUMP 0xD8 KECCAK256 0xA6 0x24 0xBA 0xBD 0xD8 0xD4 CODESIZE PUSH27 0x74FAF992D0D7ABCB5FE66505E7E6EAFE64736F6C634300081D0033 "
				},
				"gasEstimates": {
					"creation": {
						"codeDepositCost": "1477200",
						"executionCost": "infinite",
						"totalCost": "infinite"
					},
					"external": {
						"bets(uint256)": "infinite",
						"placeBetColor(bool)": "infinite",
						"placeBetEVEN()": "infinite",
						"placeBetGreen()": "infinite",
						"placeBetNumber(uint8)": "infinite",
						"placeBetODD()": "infinite",
						"rawFulfillRandomWords(uint256,uint256[])": "infinite"
					},
					"internal": {
						"fulfillRandomWords(uint256,uint256[] memory)": "infinite"
					}
				},
				"methodIdentifiers": {
					"bets(uint256)": "22af00fa",
					"placeBetColor(bool)": "b996b99c",
					"placeBetEVEN()": "a9b67bf1",
					"placeBetGreen()": "1f5390fe",
					"placeBetNumber(uint8)": "5c70b561",
					"placeBetODD()": "7f1bbfd3",
					"rawFulfillRandomWords(uint256,uint256[])": "1fe543e3"
				}
			},
			"storageLayout": {
				"storage": [
					{
						"astId": 162,
						"contract": "contracts/Token.sol:Roulette",
						"label": "COORDINATOR",
						"offset": 0,
						"slot": "0",
						"type": "t_contract(VRFCoordinatorV2Interface)153"
					},
					{
						"astId": 164,
						"contract": "contracts/Token.sol:Roulette",
						"label": "subscriptionId",
						"offset": 20,
						"slot": "0",
						"type": "t_uint64"
					},
					{
						"astId": 167,
						"contract": "contracts/Token.sol:Roulette",
						"label": "vrfCoordinator",
						"offset": 0,
						"slot": "1",
						"type": "t_address"
					},
					{
						"astId": 170,
						"contract": "contracts/Token.sol:Roulette",
						"label": "keyHash",
						"offset": 0,
						"slot": "2",
						"type": "t_bytes32"
					},
					{
						"astId": 173,
						"contract": "contracts/Token.sol:Roulette",
						"label": "callbackGasLimit",
						"offset": 0,
						"slot": "3",
						"type": "t_uint32"
					},
					{
						"astId": 176,
						"contract": "contracts/Token.sol:Roulette",
						"label": "requestConfirmations",
						"offset": 4,
						"slot": "3",
						"type": "t_uint16"
					},
					{
						"astId": 179,
						"contract": "contracts/Token.sol:Roulette",
						"label": "numWords",
						"offset": 6,
						"slot": "3",
						"type": "t_uint32"
					},
					{
						"astId": 202,
						"contract": "contracts/Token.sol:Roulette",
						"label": "bets",
						"offset": 0,
						"slot": "4",
						"type": "t_mapping(t_uint256,t_struct(Bet)197_storage)"
					}
				],
				"types": {
					"t_address": {
						"encoding": "inplace",
						"label": "address",
						"numberOfBytes": "20"
					},
					"t_bool": {
						"encoding": "inplace",
						"label": "bool",
						"numberOfBytes": "1"
					},
					"t_bytes32": {
						"encoding": "inplace",
						"label": "bytes32",
						"numberOfBytes": "32"
					},
					"t_contract(VRFCoordinatorV2Interface)153": {
						"encoding": "inplace",
						"label": "contract VRFCoordinatorV2Interface",
						"numberOfBytes": "20"
					},
					"t_enum(BetType)185": {
						"encoding": "inplace",
						"label": "enum Roulette.BetType",
						"numberOfBytes": "1"
					},
					"t_mapping(t_uint256,t_struct(Bet)197_storage)": {
						"encoding": "mapping",
						"key": "t_uint256",
						"label": "mapping(uint256 => struct Roulette.Bet)",
						"numberOfBytes": "32",
						"value": "t_struct(Bet)197_storage"
					},
					"t_struct(Bet)197_storage": {
						"encoding": "inplace",
						"label": "struct Roulette.Bet",
						"members": [
							{
								"astId": 187,
								"contract": "contracts/Token.sol:Roulette",
								"label": "player",
								"offset": 0,
								"slot": "0",
								"type": "t_address"
							},
							{
								"astId": 189,
								"contract": "contracts/Token.sol:Roulette",
								"label": "amount",
								"offset": 0,
								"slot": "1",
								"type": "t_uint256"
							},
							{
								"astId": 192,
								"contract": "contracts/Token.sol:Roulette",
								"label": "betType",
								"offset": 0,
								"slot": "2",
								"type": "t_enum(BetType)185"
							},
							{
								"astId": 194,
								"contract": "contracts/Token.sol:Roulette",
								"label": "number",
								"offset": 1,
								"slot": "2",
								"type": "t_uint8"
							},
							{
								"astId": 196,
								"contract": "contracts/Token.sol:Roulette",
								"label": "color",
								"offset": 2,
								"slot": "2",
								"type": "t_bool"
							}
						],
						"numberOfBytes": "96"
					},
					"t_uint16": {
						"encoding": "inplace",
						"label": "uint16",
						"numberOfBytes": "2"
					},
					"t_uint256": {
						"encoding": "inplace",
						"label": "uint256",
						"numberOfBytes": "32"
					},
					"t_uint32": {
						"encoding": "inplace",
						"label": "uint32",
						"numberOfBytes": "4"
					},
					"t_uint64": {
						"encoding": "inplace",
						"label": "uint64",
						"numberOfBytes": "8"
					},
					"t_uint8": {
						"encoding": "inplace",
						"label": "uint8",
						"numberOfBytes": "1"
					}
				}
			},
			"userdoc": {
				"kind": "user",
				"methods": {},
				"version": 1
			}
		}
	}
}